:020000040000FA
:100000000C9463000C948B000C948B000C948B006C
:100010000C948B000C948B000C948B000C948B0034
:100020000C948B000C948B000C948B000C94740734
:100030000C948B000C948B000C948B000C948B0014
:100040000C942A070C948B000C94F8060C94D2069E
:100050000C948B000C948B000C948B000C948B00F4
:100060000C9430080C948B00000000002400270042
:100070002A0000000000250028002B0000000000DE
:1000800023002600290004040404040404040202DA
:100090000202020203030303030301020408102007
:1000A0004080010204081020010204081020000012
:1000B0000008000201000003040700000000000027
:1000C00000008B09FE0F11241FBECFEFD8E0DEBF6A
:1000D000CDBF11E0A0E0B1E0EEEBFAE202C0059086
:1000E0000D92A039B107D9F724E0A0E9B1E001C031
:1000F0001D92A836B207E1F710E0C2E6D0E004C0D6
:100100002197FE010E94B010C136D107C9F70E94A5
:100110009C0A0C9452150C9400008F929F92AF92FF
:10012000BF92FF920F931F93CF93DF93F09035030D
:100130002BE02F1508F44CC02091370308E512E09E
:10014000021B110927FD1395000F111F000F111F2E
:1001500020913603C8E8D0E0C21BD10927FDD39512
:10016000CC0FDD1FCC0FDD1F4E010D2E000CAA0899
:10017000BB089801012E000C440B550B28193909B6
:100180004A095B09DC010E94341024EB30E040E0B6
:1001900050E00E940A10820E931EA41EB51E8C16FB
:1001A0009D062CF0E801801691060CF4E4012297DC
:1001B000CC0FDD1F2FB7F8948F2D90E0FC01EE0FD0
:1001C000FF1FE80FF91FE250FD4FD283C1832FBFFD
:1001D000DF91CF911F910F91FF90BF90AF909F90B3
:1001E0008F90089596E0899FD0011124A85CBC4FA0
:1001F00090967C936E935F9791E091969C939197E4
:10020000E091A503F091A6039091A403992339F0FE
:10021000309751F0811108C08091540309943097B0
:1002200019F05C968C91FACF089508950895AF92D5
:10023000BF92CF92DF92EF92FF920F931F93CF93D3
:10024000DF936C017B018B01040F151FEB015E0135
:10025000AE18BF08C017D10759F06991D601ED91CA
:10026000FC910190F081E02DC6010995892B79F769
:10027000C501DF91CF911F910F91FF90EF90DF901B
:10028000CF90BF90AF900895FC01538D448D252FE2
:1002900030E0842F90E0821B930B541710F0CF9620
:1002A000089501970895FC01918D828D981761F052
:1002B000A28DAE0FBF2FB11D5D968C91928D9F5F69
:1002C0009F73928F90E008958FEF9FEF0895FC0148
:1002D000918D828D981731F0828DE80FF11D858DFB
:1002E00090E008958FEF9FEF0895FC01918D228D8E
:1002F000892F90E0805C9F4F821B91098F73992713
:10030000089585E592E00E94750121E0892B09F4AA
:1003100020E0822F089580E090E0892B29F00E9450
:10032000810181110C9400000895FC01A48DA80F97
:10033000B92FB11DA35ABF4F2C91848D90E0019627
:100340008F739927848FA689B7892C93A089B18947
:100350008C91837080648C93938D848D981306C0E8
:100360000288F389E02D80818F7D80830895EF924C
:10037000FF920F931F93CF93DF93EC0181E0888F5F
:100380009B8D8C8D98131AC0E889F989808185FF2F
:1003900015C09FB7F894EE89FF896083E889F989D1
:1003A00080818370806480839FBF81E090E0DF91D3
:1003B000CF911F910F91FF90EF900895F62E0B8D26
:1003C00010E00F5F1F4F0F731127E02E8C8D8E11E1
:1003D0000CC00FB607FCFACFE889F989808185FF48
:1003E000F5CFCE010E949501F1CFEB8DEC0FFD2FE3
:1003F000F11DE35AFF4FF0829FB7F8940B8FEA8903
:10040000FB8980818062CFCFCF93DF93EC01888D11
:100410008823B9F0AA89BB89E889F9898C9185FD7F
:1004200003C0808186FD0DC00FB607FCF7CF8C910D
:1004300085FFF2CF808185FFEDCFCE010E9495012F
:10044000E9CFDF91CF910895833081F028F4813096
:1004500099F08230A9F008958730A9F08830C9F06A
:100460008430B1F4809180008F7D03C08091800042
:100470008F7780938000089584B58F7784BD089529
:1004800084B58F7DFBCF8091B0008F778093B000D3
:1004900008958091B0008F7DF9CFCF93DF93282FFF
:1004A00030E0F901E255FF4F8491F901E656FF4F24
:1004B000D491F901EA57FF4FC491CC23A1F08111E7
:1004C0000E942402EC2FF0E0EE0FFF1FE458FF4FD4
:1004D000A591B491EC91ED2381E090E009F480E0E6
:1004E000DF91CF91089580E090E0FACF862F0C94B1
:1004F0004D021F93CF93DF93282F30E0F901E2558F
:10050000FF4F8491F901E656FF4FD491F901EA5764
:10051000FF4FC491CC23A9F0162F81110E94240211
:10052000EC2FF0E0EE0FFF1FEE58FF4FA591B491B6
:100530008FB7F894EC91111108C0D095DE23DC93AD
:100540008FBFDF91CF911F910895DE2BF8CF862FBB
:10055000642F0C947902CF93DF9390E0FC01E65670
:10056000FF4F24918A579F4FFC0184918823C9F043
:1005700090E0880F991FFC01E859FF4FA591B491B5
:10058000FC01EE58FF4FC591D49161110DC09FB78A
:10059000F8948C91209582238C938881282328833A
:1005A0009FBFDF91CF910895623051F49FB7F894C7
:1005B0003C91822F809583238C93E8812E2BEFCF63
:1005C0008FB7F894EC912E2B2C938FBFEACF862F08
:1005D000642F0C94AB023FB7F8948091480290913D
:1005E0004902A0914A02B0914B0226B5A89B05C0D2
:1005F0002F3F19F00196A11DB11D3FBFBA2FA92FA2
:10060000982F8827BC01CD01620F711D811D911D9E
:1006100042E0660F771F881F991F4A95D1F708950A
:100620008F929F92AF92BF92CF92DF92EF92FF9202
:100630004B015C010E94EB026B017C010E94EB020A
:100640006C197D098E099F09683E734081059105EB
:10065000A8F321E0821A9108A108B10888EEC80E1B
:1006600083E0D81EE11CF11C81149104A104B104A3
:1006700029F7FF90EF90DF90CF90BF90AF909F90C1
:100680008F9008952FB7F8946091440270914502BD
:1006900080914602909147022FBF08950F931F93B8
:1006A000CF93DF93C82FD62F86E0C89FF001112487
:1006B000E85CFC4F11A2878D90A181309105F1F08B
:1006C00058F082309105F1F1039709F440C0DF91B1
:1006D000CF911F910F9108956623C9F361E070E0F7
:1006E0008C2F0E94F2000E9442036093900370934B
:1006F00091038093920390939303E9CF0E94420366
:1007000000919003109191032091920330919303F3
:10071000AB01BC01401B510B620B730B8091A20318
:100720009091A303B0E0A0E084179507A607B70750
:1007300048F462E070E08C2FDF91CF911F910F9110
:100740000C94F20063E070E0D111C1CFF4CF70E0FF
:1007500060E0F1CF2091F801260F3327331F2132BB
:100760003105ECF420911C02FC0190E080E0243083
:1007700069F082E00895A091F8012191AC014852FE
:100780005E4FA40FB52FB11D2C930196861798F3D9
:100790008091F801680F6093F80180E0089581E08E
:1007A000089510921C0281E080931E0210921D0297
:1007B00061E082E10E94790261E083E10E947902B6
:1007C000E9EBF0E080818E7F808380818D7F808364
:1007D00088E48093B80085E48093BC000895CF93AB
:1007E000DF9391E09093D7018823B9F0C091B800CE
:1007F000D091BA008091BC008A7B8093BC0060E0FD
:1008000082E10E94790260E083E10E9479020E9405
:10081000D103D093BA00C093B800DF91CF9108956F
:100820000895E091530280915202E81730F4F0E00D
:10083000EE54FE4F808190E008958FEF9FEF089572
:1008400090915302809152022FEF3FEF981748F496
:10085000E92FF0E0EE54FE4F208130E09F5F90934F
:100860005302C90108958091520290915302891B4D
:10087000990B0895CF92DF92EF92FF920F931F93FF
:10088000CF93DF937C01CB018A012091B101222318
:1008900089F0EB016B01C40ED51ECC15DD0569F0A6
:1008A0006991D701ED91FC910190F081E02DC70194
:1008B0000995F3CF642F0E94AA03C801DF91CF915D
:1008C0001F910F91FF90EF90DF90CF900895CF93FD
:1008D000DF931F92CDB7DEB769832091B101222348
:1008E000F9F020915002203258F021E030E0FC0174
:1008F0003383228390E080E00F90DF91CF910895C1
:1009000080915102E82FF0E0EF56FE4F99819083DD
:100910008F5F809351028093500281E090E0ECCF92
:1009200061E0CE0101960E94AA03F7CFCF92DF9239
:10093000EF92FF920F931F93CF93DF93FC01C4813B
:1009400021E02093B101C0939001109251021092C6
:1009500050028385682B82EF92E00E946704D09159
:100960005002D13208F092C00E94EB026B017C0170
:1009700080911C02811165C082E080931C0281E09D
:1009800080931E028FEF80931B0210924002D0933F
:100990003F02A1E9B1E0EFE1F2E080E0D81385C0C9
:1009A0001092410280914102CC0FC82BC0934102AA
:1009B00080911D02813009F07CC010921D020E94BE
:1009C000EB026B017C01809141028093BB0080911E
:1009D000D3019091D401A091D501B091D601892B7A
:1009E0008A2B8B2B99F00E94EB020091D30110917E
:1009F000D4012091D5013091D6016C197D098E0961
:100A00009F090617170728073907E0F18091BC00F6
:100A100083FDD9CF85EC8093BC000E94EB026B0173
:100A20007C0180911C02823009F445C080911B0238
:100A30008F3F61F180911B02803241F180911B0256
:100A400025C08091D3019091D401A091D501B0919E
:100A5000D601892B8A2B8B2B09F48ACF0E94EB02BB
:100A60000091D3011091D4012091D5013091D6018C
:100A70006C197D098E099F09061717072807390782
:100A800008F076CF8091D2010E94EF0310925102BC
:100A9000109250021092B101DF91CF911F910F91EE
:100AA000FF90EF90DF90CF9008959D9191938F5F8D
:100AB00075CF85EEB0CF8091D3019091D401A091F4
:100AC000D501B091D601892B8A2B8B2B09F4A9CFA4
:100AD0000E94EB020091D3011091D4012091D50125
:100AE0003091D6016C197D098E099F0906171707E9
:100AF0002807390708F095CFC5CF089590E080E02A
:100B000008950F931F93CF938C01C62F0E949604D4
:100B10006C2F6460C8010E9496046C2F6B7FC80123
:100B20000E94960483EC90E00197F1F7CF911F911A
:100B30000F9108950F931F93CF93DF938C01D62FBE
:100B4000C42F607F642B0E94810580E1D89FB00193
:100B500011246C2BC801DF91CF911F910F910C9440
:100B60008105CF93DF93CDB7DEB728970FB6F89402
:100B7000DEBF0FBECDBF98E0E0E2F1E0DE011196EE
:100B800001900D929A95E1F79091B303981710F4A4
:100B90008FEF890F90E0880F991F21E030E02C0F34
:100BA0003D1F820F931FFC016081606840E08BEA6B
:100BB00093E028960FB6F894DEBF0FBECDBFDF914D
:100BC000CF910C949A0541E00E949A0581E090E053
:100BD0000895FB0101900020E9F73197AF01461B12
:100BE000570BDC01ED91FC910280F381E02D09941B
:100BF000FC0180819181009711F00C9452110895AD
:100C00000F931F93CF93DF93EC0188819981009715
:100C100059F02A813B812617370730F081E0DF91B8
:100C2000CF911F910F9108958B016F5F7F4F0E94AD
:100C3000DB11009759F0998388831B830A832C81E9
:100C40003D81232B59F7FC011082E8CF80E0E7CFEC
:100C5000CF93DF93EC0170E060E00E9400062881F2
:100C6000398181110FC02115310519F0C9010E9488
:100C70005211198218821D821C821B821A82DF91F6
:100C8000CF9108951D821C826FE871E0C901DF9148
:100C9000CF910C94AA120F931F93CF93DF93CDB7EC
:100CA000DEB761970FB6F894DEBF0FBECDBF1092CE
:100CB00054028FE293E00E94280689E293E00E94AA
:100CC00028068091630481111DC08FE891E09F93F5
:100CD0008F9382E691E09F938F938E010F5F1F4F5A
:100CE0001F930F930E94B11281E00E94B105B801D9
:100CF0008BEA93E00E94E9050F900F900F900F9000
:100D00000F900F908FEF9FEF909301018093000160
:100D10001092B60360E08BEA93E00E94960461961D
:100D20000FB6F894DEBF0FBECDBFDF91CF911F91FC
:100D30000F91089585ED8093BC008091D30190912F
:100D4000D401A091D501B091D6010796A11DB11D86
:100D500023E0B695A795979587952A95D1F7209189
:100D6000BC0024FD03C010921C0208954091D301E1
:100D70005091D4016091D5017091D601452B462B3D
:100D8000472B69F30097A105B10541F025E32A95AA
:100D9000F1F700000197A109B109E1CF8091D201DB
:100DA0000C94EF031F920F920FB60F9211242F9302
:100DB0003F934F935F936F937F938F939F93AF93E3
:100DC000BF93EF93FF9385E592E00E949501FF9119
:100DD000EF91BF91AF919F918F917F916F915F91B3
:100DE0004F913F912F910F900FBE0F901F9018952C
:100DF0001F920F920FB60F9211242F938F939F93F0
:100E0000EF93FF93E0916502F09166028081E0919B
:100E10006B02F0916C0282FD1BC0908180916E028A
:100E20008F5F8F7320916F02821741F0E0916E0205
:100E3000F0E0EB5AFD4F958F80936E02FF91EF919A
:100E40009F918F912F910F900FBE0F901F9018952B
:100E50008081F4CF1F920F920FB60F9211242F931F
:100E60003F938F939F93AF93BF9380914402909150
:100E70004502A0914602B09147023091430223E01F
:100E8000230F2D3758F50196A11DB11D2093430264
:100E90008093440290934502A0934602B093470288
:100EA0008091480290914902A0914A02B0914B0270
:100EB0000196A11DB11D8093480290934902A09311
:100EC0004A02B0934B02BF91AF919F918F913F9196
:100ED0002F910F900FBE0F901F90189526E8230FAB
:100EE0000296A11DB11DD2CF1F920F920FB60F9285
:100EF00011242F933F934F935F936F937F938F931F
:100F00009F93AF93BF93CF93DF93EF93FF93809122
:100F10004202C0912203D0E087FF24C010928500D6
:100F200010928400809142028F5F809342028091F0
:100F30004202082E000C990B8C179D0724F4809117
:100F400042028C30C4F18091840090918500049617
:100F500080349C4908F47AC0809184009091850087
:100F6000049676C080914202082E000C990B8C17D3
:100F70009D07C4F6E09142028E2FEE0F990BFC0103
:100F8000EE0FFF1FE80FF91FE250FD4F808186FF33
:100F9000C9CFE09142028E2FEE0F990BFC01EE0FAC
:100FA000FF1FE80FF91FE250FD4F808160E08F7353
:100FB0000E947902B7CF2091840030918500E091A2
:100FC00042028E2FEE0F990BFC01EE0FFF1FE80F70
:100FD000F91FE250FD4F81819281820F931F909300
:100FE000890080938800E09142028E2FEE0F990BCA
:100FF000FC01EE0FFF1FE80FF91FE250FD4F80814B
:1010000086FF11C0E09142028E2FEE0F990BFC017A
:10101000EE0FFF1FE80FF91FE250FD4F808161E0E6
:101020008F730E947902FF91EF91DF91CF91BF9171
:10103000AF919F918F917F916F915F914F913F9170
:101040002F910F900FBE0F901F90189580E49CE990
:1010500090938900809388008FEF80934202E3CFC2
:101060001F920F920FB60F9211242F933F934F931D
:101070005F936F937F938F939F93AF93BF93EF9300
:10108000FF938091B900887F803609F44AC0F0F55B
:10109000883209F4A7C018F5803109F49BC0B8F470
:1010A000882309F4F9C0883009F494C0FF91EF91C6
:1010B000BF91AF919F918F917F916F915F914F9170
:1010C0003F912F910F900FBE0F901F901895883170
:1010D00009F488C0803251F780931B0214C0803419
:1010E00009F49DC040F48033B9F38833F9F6809356
:1010F0001B0285ECB0C0803509F485C0883509F441
:1011000096C0883499F60E949A06D0CF883909F49F
:101110008CC038F5883729F050F4883611F08037C4
:1011200029F683E080931C0210921A0257C0883877
:1011300009F47BC0803919F0803809F0B7CF80916D
:101140001A02803208F071C0E0911A0281E08E0F1D
:1011500080931A028091BB00F0E0E650FE4F80833E
:101160003DC0803B39F0E0F4803A09F479C0883A18
:1011700009F09CCF84E080931C021092F901109238
:10118000F801E0914E02F0914F0209958091F8012B
:1011900081110FC081E08093F8011092D80109C03D
:1011A000803C09F4A6CF883C09F4A3CF883B09F022
:1011B0007DCFE091F90181E08E0F8093F901F0E09D
:1011C000E852FE4F80818093BB009091F90180919D
:1011D000F80129C0809141028093BB0085EC809387
:1011E000BC0064CF9091400280913F02981758F55F
:1011F000E091400281E08E0F80934002F0E0E15EDA
:10120000FD4F8081E9CFE091400281E08E0F809315
:1012100040028091BB00F0E0E15EFD4F8083909141
:10122000400280913F029817C8F285E8D8CFE0913C
:10123000400281E08E0F809340028091BB00F0E07D
:10124000E15EFD4F808380911E0281115CCF81E0C1
:1012500080931D0284EA8093BC0010921C0226CF6A
:1012600085EC8093BC0010921C0280911A0280329F
:1012700030F4E0911A02F0E0E650FE4F10826091E7
:101280001A0270E0E0914C02F0914D028AEF91E079
:10129000099510921A020ACF10921B0234CFEF92D6
:1012A000FF920F931F93CF93DF93EC017B01198281
:1012B00018821B821A821D821C82FB010190002071
:1012C000E9F731978F01061B170BB8010E94000642
:1012D00028813981811113C02115310519F0C90107
:1012E0000E945211198218821D821C821B821A824E
:1012F000DF91CF911F910F91FF90EF9008951D8383
:101300000C83B701C901DF91CF911F910F91FF901D
:10131000EF900C94AA12CF93DF9310925802109280
:10132000570288EE93E0A0E0B0E0809359029093DA
:101330005A02A0935B02B0935C022CE231E030933E
:1013400056022093550225EC30E030936202209340
:10135000610224EC30E0309364022093630220ECBD
:1013600030E0309366022093650221EC30E0309348
:1013700068022093670222EC30E030936A022093E7
:10138000690226EC30E030936C0220936B021092DD
:101390006E0210926F0210927002109271021092FF
:1013A000F5021092F4028093F6029093F702A09354
:1013B000F802B093F9028EE391E09093F3028093E8
:1013C000F20280E092ECA1E0B0E08093A70390935A
:1013D000A803A093A903B093AA031092AE0310929E
:1013E000AD038AE591E09093AC038093AB0387E271
:1013F0008093AF0380E18093B40382E08093B503D0
:101400001092B6030E944203C3E4D4E0EFEDF3E090
:1014100047EB53E0199211921192DA016D937D938B
:101420008D939D93AD019F01225B3F4FD9011D928A
:101430001C92B3E0E33FFB0769F71092620410923D
:1014400061041092630410923A0310923E031092CA
:101450003D0310923F0380E591E090933903809320
:101460003803E4E5F3E080E993E01082148213820C
:10147000158236968E179F07C1F786E091E090930C
:101480009B0380939A0382E091E090939D03809365
:101490009C0384E080939E0380939F038AE091E005
:1014A00090939903809398038AE090E09093A1032E
:1014B0008093A00384EF91E09093A3038093A20311
:1014C0001092A6031092A503109294031092950314
:1014D00010929603109297031092A4038091220316
:1014E0008C3030F591E0980F909322038093350370
:1014F00090E0FC01EE0FFF1FE80FF91FE250FD4FD7
:1015000088EB9BE0928381836FE871E08FE293E048
:101510000E944F096FE871E089E293E00E944F0951
:1015200068E671E083E293E0DF91CF910C944F097C
:101530008FEF80933503E8CFCF93DF93CDB7DEB73E
:1015400069970FB6F894DEBF0FBECDBF789484B50F
:10155000826084BD84B5816084BD85B5826085BDAF
:1015600085B5816085BD80916E00816080936E003D
:10157000109281008091810082608093810080912F
:1015800081008160809381008091800081608093E0
:1015900080008091B10084608093B1008091B000A0
:1015A00081608093B00080917A00846080937A009B
:1015B00080917A00826080937A0080917A008160C5
:1015C00080937A0080917A00806880937A001092EC
:1015D000C100C090A703D090A803E090A903F090A9
:1015E000AA0360E079E08DE390E0A70196010E94F4
:1015F0007310215031094109510956954795379586
:101600002795E0916502F091660282E08083C11423
:1016100051EED506E104F10421F0211560E1360711
:10162000A8F0E0916502F0916602108260E874E82B
:101630008EE190E0A70196010E94731021503109BC
:10164000410951095695479537952795E0916102D3
:10165000F09162023083E0916302F0916402208392
:1016600010926D02E0916902F0916A0286E0808337
:10167000E0916702F0916802808180618083E0914F
:101680006702F0916802808188608083E091670240
:10169000F0916802808180688083E0916702F09118
:1016A000680280818F7D808380916304811189C06D
:1016B0001092530210925202109251021092500254
:1016C0000E94D10385E191E090934F0280934E02F6
:1016D00086E191E090934D0280934C021092B0030A
:1016E0008091B503823018F098E09093B003809316
:1016F000B30362E370E080E090E00E941003609129
:10170000B6038BEA93E00E94960468EE73E080E0F3
:1017100090E00E94100360E38BEA93E00E94810551
:101720000BE416E4C8010197F1F760E38BEA93E05C
:101730000E948105C8010197F1F760E38BEA93E00D
:101740000E94810583E592E00197F1F760E28BEA60
:1017500093E00E9481056091B003606240E08BEAF3
:1017600093E00E949A0584E08093B10340E06CE02E
:101770008BEA93E00E949A0540E061E08BEA93E0F7
:101780000E949A050BE31FE1C8010197F1F782E07F
:101790008093B20340E066E08BEA93E00E949A05F2
:1017A00040E062E08BEA93E00E949A05C80101974D
:1017B000F1F788E08093B60360E08BEA93E00E9443
:1017C00096041092B60360E08BEA93E00E949604C0
:1017D0008091630481111DC08DE691E09F938F93EA
:1017E00082E691E09F938F938E010F5F1F4F1F93AF
:1017F0000F930E94B11280E00E94B105B8018BEAFC
:1018000093E00E94E9050F900F900F900F900F90BA
:101810000F90809135038C3008F051C061E083E077
:101820000E94AB0280913503282F30E0F901EE0FC2
:10183000FF1FE20FF31FE250FD4F9081907C9360F9
:10184000908310923603109237032CE0622F0E948F
:10185000A410829FB001112430E020E0AB01420FC0
:10186000531FFA01EE0FFF1FE40FF51FE250FD4F6B
:10187000908196FD16C02F5F3F4F2C30310571F7D8
:1018800081110FC01092800082E08093810010923D
:10189000850010928400B19A80916F0082608093DD
:1018A0006F00E09135038E2F90E0FC01EE0FFF1FDB
:1018B000E80FF91FE250FD4F80818064808390E043
:1018C00080E00E948D0022242394312CCE010196C9
:1018D0006C010E9442032B013C01AFEDB3E0BB8BD6
:1018E000AA8B07EA13E0198F088FFD0130E020E092
:1018F000AF0142595F4FDA011D921C9280819181A4
:101900003296892BD1F1A88DB98D50964D915D916C
:101910006D917C915397CD01845B9F4FDC018D903D
:101920009D90AD90BC90D301C201841B950BA60B7A
:10193000B70B88159905AA05BB05F8F0480D591D88
:101940006A1D7B1DA88DB98D50964D935D936D9347
:101950007C935397C9018D5B9B4FDC018C9188234D
:1019600061F042AD53AD4115510509F05BC0CF01A7
:1019700084599F4FDC012D923C922F5F3F4FA88DE1
:10198000B98D1496B98FA88F2A30310509F0B0CFE0
:10199000F12CE12C5801B6EAAB0EB11CF5018081A7
:1019A00091818130910509F45DC0029709F460C00E
:1019B000BFEFEB1AFB0A0E5F1F4FEAE0EE16F104D1
:1019C00049F781E08093A4030E94420300919403AD
:1019D000109195032091960330919703AB01BC01C0
:1019E000401B510B620B730B8091A0039091A103DC
:1019F000B0E0A0E084179507A607B70708F097C1E5
:101A000010E080919E03181708F063C0E0919A03DC
:101A1000F0919B03E10FF11D62E080810E94AB0217
:101A20001F5FEFCF5F01BEE4AB0EB11CD5018D91FE
:101A30009C91841795070CF0A0CF7F01BCE6EB0EBC
:101A4000F11CD7012D923C920196D5018D939C9368
:101A5000841795070CF491CF82E090E0D7018D9325
:101A60009C938BCFD801D896ED91FC910995A0CF8E
:101A7000D801D896ED91FC910995809161049091DF
:101A80006204009709F494CFF80120AD31AD232B07
:101A900009F48ECF11AE10AEF701ED5BFB4F108253
:101AA000D5011D921C92F701EE0FFF1FEE0FFF1FD5
:101AB000ED50FC4F1082118212821382F801E85718
:101AC000FF4F11821082019790936204809361040A
:101AD0006FCF712C80919F03781608F063C0E72CBC
:101AE000F12CE0919C03F0919D03EE0DFF1D61E050
:101AF00080810E94AB02E0919C03F0919D03EE0D6A
:101B0000FF1D60E080810E94790281E090E0A0E00A
:101B1000B0E0072C04C0880F991FAA1FBB1F0A94AE
:101B2000D2F74C015C01A094B094612C80919E038B
:101B3000681608F5062D10E0E0919A03F0919B03DA
:101B4000E00FF11F80810E944D020C5F1F4F000FBC
:101B5000111FF801E85CFC4F892B41F480819181D1
:101B600088299929918380836394E0CF8081918132
:101B70008A219B21F7CFE0919C03F0919D03EE0D0C
:101B8000FF1D61E080810E94790280919C03909109
:101B90009D03E80EF91E60E0D7018C910E94AB0214
:101BA000739498CF08E313E07801F701878D90A133
:101BB000892B31F4148E8FEF9FEF968F858F11A2B2
:101BC00096E0E90EF11CA4E7B3E0AE15BF0569F796
:101BD000B12C80919E03B81608F053C0A12C8B2C19
:101BE000912C880C991CF401E05CFC4F4F01209172
:101BF0009F03A21608F043C0D4016D917C910A2C7A
:101C000002C0769567950A94E2F7B29E900111247E
:101C10002A0D311DE8E3F3E080E0458D568D241751
:101C2000350709F457C18F5F36968A30B1F760FFE8
:101C300024C0E8E3F3E090E080E0448D411118C057
:101C4000E0919803F0919903E20FF31F4081B6E011
:101C5000B89FF001B99FF00D1124E85CFC4F448F50
:101C6000368F258F10A2178E61E00E944E0305C0AB
:101C7000019636968A30910501F7A394B8CFB394B4
:101C8000A8CFB12CF80181A18111B82E0A5F1F4F96
:101C9000E016F106B9F70E94420360939403709333
:101CA00095038093960390939703BB2009F43FC05C
:101CB000809159038823D9F180915703909158035B
:101CC0000197A9F5809154038A3209F03FC081E061
:101CD000809354028FE293E00E94280689E293E009
:101CE0000E94280680916104909162040A9784F40E
:101CF00010E000E0AA89BB898D919D91BB8BAA8BD6
:101D0000892B09F4E9C00F5F1F4F0A30110591F7C5
:101D10000FEF1FEF109301010093000188E0809303
:101D2000B60360E08BEA93E00E94960402C0109232
:101D3000A40380E090E0892B09F4CBCD0E948101BF
:101D4000882309F4C6CD0E940000C3CD833209F078
:101D500042C0109254026DE771E085E592E00E9466
:101D6000E905409133035091340360912F03709142
:101D7000300385E592E00E94170142E050E06DE8F3
:101D800071E085E592E00E941701209133033091C4
:101D90003403809127039091280328173907C1F451
:101DA00080912F039091300360912303709124035D
:101DB000009709F4CCC06115710539F4232B09F49F
:101DC000D4C0DC018C9190E0CDC00E94A112CAC0A9
:101DD00090E080E0CCC0882309F4ABCF909154020E
:101DE000992309F4A6CF89831A82009133031091B5
:101DF00034030F5F1F4FB8018FE293E00E9400068B
:101E0000882389F020912F03309130038091330390
:101E100090913403B601820F931F0E94AA1210936F
:101E20003403009333038AE289831A8200912D03DD
:101E300010912E030F5F1F4FB80189E293E00E94BB
:101E40000006882389F02091290330912A0380918C
:101E50002D0390912E03B601820F931F0E94AA12A8
:101E600010932E0300932D038091630481111CC0F5
:101E700080912A038F93809129038F9382E691E0CA
:101E80009F938F93DF92CF920E94B11281E00E94C4
:101E9000B105B6018BEA93E00E94E9050F900F901F
:101EA0000F900F900F900F90009100011091010181
:101EB0000A3011050CF03DCF0E944203000F111FA4
:101EC000000F111FF801E955FC4F608B718B828B5D
:101ED000938B2FCF6170C9CEF801EE0FFF1FEE0F6D
:101EE000FF1FED51FC4F88E893E1A0E0B0E0808B4C
:101EF000918BA28BB38BF801EE0FFF1FE153FC4FC8
:101F00008BE496E0918B808BF801EE0FFF1FE55F6D
:101F1000FB4F318A208A81E0F801ED5BFB4F808323
:101F20000E944203F801EE0FFF1FEE0FFF1FE9555D
:101F3000FC4F608B718B828B938B809161049091AD
:101F4000620401969093620480936104E3CE61156C
:101F5000710559F0232B49F0FB01808190E09195A8
:101F600081959109892B09F033CF8AE590E00E9491
:101F70008D0080910001909101018A309105ACF5AE
:101F800020916104309162042115310571F1FC0149
:101F9000EE0FFF1FE153FC4F40895189452B29F17A
:101FA000118A108AFC01ED5BFB4F1082FC01EE0FE1
:101FB000FF1FE35CFB4F118A108AFC01EE0FFF1F2D
:101FC000EE0FFF1FED51FC4F108A118A128A138AFF
:101FD000880F991FFC01E15EFB4F118A108A215086
:101FE00031093093620420936104EFEFFFEFF09327
:101FF0000101E09300011092B60393CE83E293E0D7
:102000000E94F80589E293E00E94F8058FE293E0D0
:102010000C94F805052E97FB1EF400940E942110E5
:1020200057FD07D00E94731007FC03D04EF40C94A8
:10203000211050954095309521953F4F4F4F5F4F60
:10204000089590958095709561957F4F8F4F9F4F24
:1020500008950E949510A59F900DB49F900DA49F88
:10206000800D911D11240895B7FF0C9429100E9432
:102070002910821B930B08952F923F924F925F92EB
:102080006F927F928F929F92AF92BF92CF92DF9288
:10209000EF92FF920F931F93CF93DF93CDB7DEB7ED
:1020A000CA1BDB0B0FB6F894DEBF0FBECDBF099481
:1020B0002A88398848885F846E847D848C849B84D8
:1020C000AA84B984C884DF80EE80FD800C811B81E6
:1020D000AA81B981CE0FD11D0FB6F894DEBF0FBE15
:1020E000CDBFED010895A1E21A2EAA1BBB1BFD0175
:1020F0000DC0AA1FBB1FEE1FFF1FA217B307E407E7
:10210000F50720F0A21BB30BE40BF50B661F771F3E
:10211000881F991F1A9469F760957095809590951E
:102120009B01AC01BD01CF010895A29FB001B39FF7
:10213000C001A39F700D811D1124911DB29F700DD0
:10214000811D1124911D0895991B79E004C0991FE8
:10215000961708F0961B881F7A95C9F78095089501
:10216000EE0FFF1F0590F491E02D09940F931F933C
:10217000CF93DF938230910510F482E090E0E091FC
:102180006604F091670430E020E0B0E0A0E0309712
:1021900099F42115310509F44AC0281B390B243064
:1021A0003105D8F58A819B816115710589F1FB01A3
:1021B00093838283FE0111C040815181028113818A
:1021C00048175907E0F04817590799F4109761F03C
:1021D00012960C93129713961C933296CF01DF91AF
:1021E000CF911F910F910895009366041093670497
:1021F000F4CF2115310551F04217530738F0A901EA
:10220000DB019A01BD01DF01F801C1CFEF01F9CF78
:102210009093670480936604CDCFFE01E20FF31F15
:10222000819391932250310939832883D7CF20910C
:10223000640430916504232B41F420911C013091FA
:102240001D01309365042093640420911A0130919C
:102250001B012115310541F42DB73EB740911E01F8
:1022600050911F01241B350BE0916404F09165042B
:10227000E217F307A0F42E1B3F0B2817390778F05D
:10228000AC014E5F5F4F2417350748F04E0F5F1FBC
:102290005093650440936404819391939FCFF0E041
:1022A000E0E09CCFCF93DF930097E9F0FC013297F9
:1022B00013821282A0916604B0916704ED0130E0B0
:1022C00020E01097A1F420813181820F931F20918B
:1022D0006404309165042817390709F061C0F09350
:1022E0006504E0936404DF91CF910895EA01CE176D
:1022F000DF07E8F54A815B819E0141155105B1F781
:10230000E901FB83EA8349915991C40FD51FEC176A
:10231000FD0761F4808191810296840F951FE90188
:1023200099838883828193819B838A83F0E0E0E0B4
:1023300012968D919C9113970097B9F52D913C9130
:102340001197CD010296820F931F20916404309162
:1023500065042817390739F6309751F5109267044C
:1023600010926604B0936504A0936404BCCFD38339
:10237000C28340815181840F951FC817D90761F42A
:102380004E5F5F4F88819981480F591F5183408369
:102390008A819B81938382832115310509F0B0CF17
:1023A000F0936704E09366049ECFFD01DC01C0CF8B
:1023B00013821282D7CFB0E0A0E0E1EEF1E10C94FD
:1023C0003E108C01009751F4CB010E94B6108C0195
:1023D000C801CDB7DEB7E0E10C945A10FC01E60F5E
:1023E000F71F9C0122503109E217F30708F49DC042
:1023F000D901CD91DC911197C617D70798F0C53058
:10240000D10530F3CE0104978617970708F3C61B52
:10241000D70B2297C193D1936D937C93CF010E94E8
:102420005211D6CF5B01AC1ABD0A4C018C0E9D1E19
:10243000A0916604B0916704512C412CF12CE12C41
:10244000109731F580916404909165048815990581
:1024500009F05CC04616570608F058C080911A0172
:1024600090911B01009741F48DB79EB740911E01DA
:1024700050911F01841B950BE817F90708F055C010
:10248000F0936504E0936404F90171836083A0CF45
:102490008D919C91119712966C90129713967C9047
:1024A0001397A815B90559F56C0142E0C40ED11C6B
:1024B000CA14DB0420F1AC014A195B09DA01129657
:1024C000159780F06282738251834083D9016D93A6
:1024D0007C93E114F10471F0D7011396FC93EE9311
:1024E000129776CF22968C0F9D1FF90191838083DE
:1024F000F301EFCFF0936704E093660469CF4816C9
:10250000590608F42C017D01D3019ACFCB010E941A
:10251000B6107C01009749F0AE01B8010E949812F4
:10252000C8010E945211870153CF10E000E050CF44
:10253000FB01DC0102C001900D9241505040D8F7E0
:102540000895FB01DC018D91019080190110D9F3F0
:10255000990B0895FB01DC0101900D920020E1F739
:102560000895AEE0B0E0E7EBF2E10C944A100D897B
:102570001E8986E08C831A8309838FEF9FE79E83F1
:102580008D83AE01475E5F4F6F89788DCE010196D6
:102590000E94D4122F813885020F131FF801108278
:1025A0002E96E4E00C946610ABE0B0E0EAEDF2E1C8
:1025B0000C943C107C013B018A01FC0117821682BD
:1025C000838181FFC8C1CE0101965C01F70193812F
:1025D000F30193FD859193FF81913F01882309F4D5
:1025E00053C1853239F493FD859193FF81913F0169
:1025F000853229F4B70190E00E94C414E7CF912CF2
:10260000212C312CFFE1F31538F08B3211F190F4CD
:10261000803209F1833229F137FC3CC020ED280FCC
:102620002A3050F536FE20C08AE0989E200D1124F5
:10263000922E06C08D3291F0803371F7689430F895
:10264000F30193FD859193FF81913F018111DACFD1
:1026500021C0689431F8689432F8F2CF689433F866
:10266000EFCF689434F8ECCFEAE02E9E200D1124D1
:10267000222E689435F8E4CF8E3229F436FC04C15A
:10268000689436F8DDCF8C3619F4689437F8D8CFD3
:102690008836B1F2982F9F7D95549330E0F08336C1
:1026A000A1F18337C1F1833509F063C02801F2E05D
:1026B0004F0E511CF801C080D180692D70E036FCAE
:1026C00002C06FEF7FEFC6010E94AE144C01689408
:1026D00037F882010AC00C5F1F4FFFE3F98388249B
:1026E0008394912C6501E89437F833FE2DC0522C69
:1026F0008114910471F5552009F468CFB70180E287
:1027000090E00E94C4145A94F6CFF8018081898326
:102710000E5F1F4FE4CF2801F2E04F0E511CF8016D
:10272000C080D180692D70E036FC02C06FEF7FEF72
:10273000C6010E94B9144C018201D5CFB70180E2D5
:1027400090E00E94C4142A942814190409F0B0F7E8
:10275000CECFF60137FC859137FE81916F01B7012D
:1027600090E00E94C41451105A94F1E08F1A91081D
:10277000BFCF843619F0893609F077C0F80137FEEB
:102780006BC060817181828193810C5F1F4FF32D3B
:10279000FF763F2E97FF09C09095809570956195C3
:1027A0007F4F8F4F9F4F689437F82AE030E0A501A4
:1027B0000E94F414C82ECA188C2C432C36FE0CC070
:1027C000E89440F8C91440F434FE05C032FC03C05C
:1027D000F32DFE7E4F2E892C44FE95C0FE01EC0D9C
:1027E000F11D8081803309F087C0242D297E422E7F
:1027F000842D8870582E43FC95C040FE8FC09C2CC1
:10280000821418F42C0C922C981844FE91C0B70135
:1028100080E390E00E94C41442FE09C088E790E083
:1028200041FE02C088E590E0B7010E94C414C914BB
:1028300008F48AC0CA94D12C9FEFC91AD90ACA0CCD
:10284000DB1CF60182916F01B70190E00E94C41475
:10285000AC14BD04B1F74FCF60817181072E000C1D
:10286000880B990B0E5F1F4F92CFD32CE894D4F8AE
:102870002AE030E0853739F1232D297FD22E8F369B
:1028800001F148F48835A9F0F701868197812B96EC
:10289000E2E10C945810803749F08837A9F7D4FE4C
:1028A00002C06894D2F820E130E00DC06894D4F8FA
:1028B000F6CF34FE03C0822F8660D82E20E132E0AE
:1028C00002C028E030E0F801D7FE0FC060817181BE
:1028D000828193810C5F1F4FA5010E94F414C82EC2
:1028E000CA183D2CE89437F867CF6081718190E079
:1028F00080E00E5F1F4FF0CF42FC02C0839478CF80
:102900008394839475CF842D867809F471CFF6CFA4
:10291000B70180E290E00E94C41483948214C0F353
:10292000512C73CF522C5818821408F46ECFF8CF64
:10293000842D867809F47BCF8BE241FE80E247FC50
:102940008DE2B70190E071CFB70180E390E00E9483
:10295000C4149A946CCF8FEF9FEF99CFFC01059030
:10296000615070400110D8F7809590958E0F9F1F91
:102970000895FC016150704001900110D8F78095D6
:1029800090958E0F9F1F08950F931F93CF93DF9302
:10299000182F092FEB018B8181FD09C01FEF0FEF6D
:1029A000812F902FDF91CF911F910F91089582FF7A
:1029B00014C02E813F818C819D81281739073CF4FA
:1029C000E881F981CF0101969983888310838E81F4
:1029D0009F8101969F838E83E3CFE885F985812FC0
:1029E0000995892BA1F3DACFFA01AA27283051F1F2
:1029F000203181F1E8946F936E7F6E5F7F4F8F4F30
:102A00009F4FAF4FB1E03ED0B4E03CD0670F781F8E
:102A1000891F9A1FA11D680F791F8A1F911DA11D73
:102A20006A0F711D811D911DA11D20D009F46894AC
:102A30003F912AE0269F11243019305D3193DEF654
:102A4000CF010895462F4770405D4193B3E00FD00A
:102A5000C9F7F6CF462F4F70405D4A3318F0495DF5
:102A600031FD4052419302D0A9F7EACFB4E0A695D8
:102A70009795879577956795BA95C9F700976105FA
:102A8000710508959B01AC010A2E06945795479550
:102A900037952795BA95C9F7620F731F841F951F45
:102AA000A01D089510E0C2E6D0E004C0FE010E941F
:102AB000B0102196C336D107C9F7F894FFCFFFFFB6
:102AC00008090A0B07060504313233413435364212
:102AD000373839432A30234400006804800000005E
:102AE00040001400540000000000B7011701440129
:102AF00004027501530167010000000067043A04F5
:102B00007E05100433042004110400000000E702D5
:102B1000A702760200000000E30517017E057D058F
:102B2000252D3136730031323334005B5B4B6579D0
:102B300070616420546573745D5D00EC9E85EBA04C
:0E2B4000A5EC9984EBA38C203A20000D0A002E
:107E0000112484B714BE81FFF0D085E080938100F7
:107E100082E08093C00088E18093C10086E0809377
:107E2000C20080E18093C4008EE0C9D0259A86E02C
:107E300020E33CEF91E0309385002093840096BBD3
:107E4000B09BFECF1D9AA8958150A9F7CC24DD24C4
:107E500088248394B5E0AB2EA1E19A2EF3E0BF2EE7
:107E6000A2D0813461F49FD0082FAFD0023811F036
:107E7000013811F484E001C083E08DD089C08234E0
:107E800011F484E103C0853419F485E0A6D080C0E4
:107E9000853579F488D0E82EFF2485D0082F10E0AE
:107EA000102F00270E291F29000F111F8ED06801E7
:107EB0006FC0863521F484E090D080E0DECF843638
:107EC00009F040C070D06FD0082F6DD080E0C81688
:107ED00080E7D80618F4F601B7BEE895C0E0D1E017
:107EE00062D089930C17E1F7F0E0CF16F0E7DF06D8
:107EF00018F0F601B7BEE89568D007B600FCFDCFD4
:107F0000A601A0E0B1E02C9130E011968C91119780
:107F100090E0982F8827822B932B1296FA010C0160
:107F200087BEE89511244E5F5F4FF1E0A038BF0790
:107F300051F7F601A7BEE89507B600FCFDCF97BE46
:107F4000E89526C08437B1F42ED02DD0F82E2BD052
:107F50003CD0F601EF2C8F010F5F1F4F84911BD097
:107F6000EA94F801C1F70894C11CD11CFA94CF0C13
:107F7000D11C0EC0853739F428D08EE10CD085E9AC
:107F80000AD08FE07ACF813511F488E018D01DD067
:107F900080E101D065CF982F8091C00085FFFCCF94
:107FA0009093C60008958091C00087FFFCCF809118
:107FB000C00084FD01C0A8958091C6000895E0E648
:107FC000F0E098E1908380830895EDDF803219F02E
:107FD00088E0F5DFFFCF84E1DECF1F93182FE3DFCA
:107FE0001150E9F7F2DF1F91089580E0E8DFEE27F6
:047FF000FF270994CA
:027FFE00040479
:00000001FF
