:100000000C9462000C948A000C948A000C948A0070
:100010000C948A000C948A000C948A000C948A0038
:100020000C948A000C948A000C948A000C948A0028
:100030000C948A000C948A000C948A000C948A0018
:100040000C94BF060C948A000C948D060C946706E1
:100050000C948A000C948A000C948A000C948A00F8
:100060000C948A000C948A000000000025002800EF
:100070002B0000000000240027002A0000000000E0
:1000800023002600290004040404040404040202DA
:100090000202020203030303030301020408102007
:1000A0004080010204081020010204081020000012
:1000B0000008000201000003040700000000000027
:1000C0000000090711241FBECFEFD8E0DEBFCDBF6F
:1000D00011E0A0E0B1E0E4E3F2E102C005900D928E
:1000E000AA32B107D9F721E0AAE2B1E001C01D921E
:1000F000AE3EB207E1F710E0C2E6D0E004C02197BF
:10010000FE010E941209C136D107C9F70E945E079D
:100110000C9418090C9400008CBD9DBD0895AF92FD
:10012000BF92CF92DF92EF92FF920F931F93CF93E4
:10013000DF936C017B018B01040F151FEB015E0146
:10014000AE18BF08C017D10759F06991D601ED91DB
:10015000FC910190F081E02DC6010995892B79F77A
:10016000C501DF91CF911F910F91FF90EF90DF902C
:10017000CF90BF90AF900895FC01538D448D252FF3
:1001800030E0842F90E0821B930B541710F0CF9631
:10019000089501970895FC01918D828D981761F063
:1001A000A28DAE0FBF2FB11D5D968C91928D9F5F7A
:1001B0009F73928F90E008958FEF9FEF0895FC0159
:1001C000918D828D981731F0828DE80FF11D858D0C
:1001D00090E008958FEF9FEF0895FC01918D228D9F
:1001E000892F90E0805C9F4F821B91098F73992724
:1001F000089584E391E00E94ED0021E0892B09F449
:1002000020E0822F089580E090E0892B29F00E9461
:10021000F90081110C9400000895FC01A48DA80F31
:10022000B92FB11DA35ABF4F2C91848D90E0019638
:100230008F739927848FA689B7892C93A089B18958
:100240008C91837080648C93938D848D981306C0F9
:100250000288F389E02D80818F7D80830895EF925D
:10026000FF920F931F93CF93DF93EC0181E0888F70
:100270009B8D8C8D98131AC0E889F989808185FF40
:1002800015C09FB7F894EE89FF896083E889F989E2
:1002900080818370806480839FBF81E090E0DF91E4
:1002A000CF911F910F91FF90EF900895F62E0B8D37
:1002B00010E00F5F1F4F0F731127E02E8C8D8E11F2
:1002C0000CC00FB607FCFACFE889F989808185FF59
:1002D000F5CFCE010E940D01F1CFEB8DEC0FFD2F7C
:1002E000F11DE35AFF4FF0829FB7F8940B8FEA8914
:1002F000FB8980818062CFCFCF93DF93EC01888D23
:100300008823B9F0AA89BB89E889F9898C9185FD90
:1003100003C0808186FD0DC00FB607FCF7CF8C911E
:1003200085FFF2CF808185FFEDCFCE010E940D01C8
:10033000E9CFDF91CF910895833081F028F48130A7
:1003400099F08230A9F008958730A9F08830C9F07B
:100350008430B1F4809180008F7D03C08091800053
:100360008F7780938000089584B58F7784BD08953A
:1003700084B58F7DFBCF8091B0008F778093B000E4
:1003800008958091B0008F7DF9CF1F93CF93DF93B5
:10039000282F30E0F901E255FF4F8491F901E6562C
:1003A000FF4FD491F901EA57FF4FC491CC23A9F034
:1003B000162F81110E949C01EC2FF0E0EE0FFF1F21
:1003C000E859FF4FA591B4918FB7F894EC911111B2
:1003D00008C0D095DE23DC938FBFDF91CF911F91B2
:1003E0000895DE2BF8CFCF93DF9390E0FC01E65623
:1003F000FF4F24918A579F4FFC0184918823D1F0AD
:1004000090E0880F991FFC01EE58FF4FA591B49121
:10041000FC01E859FF4FC591D49161110EC09FB7FF
:10042000F8948C91E22FE0958E238C932881E2231F
:10043000E8839FBFDF91CF9108958FB7F894EC9137
:10044000E22BEC938FBFF6CF3FB7F89480912F014A
:1004500090913001A0913101B091320126B5A89B55
:1004600005C02F3F19F00196A11DB11D3FBFBA2F46
:10047000A92F982F8827BC01CD01620F711D811D06
:10048000911D42E0660F771F881F991F4A95D1F78B
:1004900008958F929F92AF92BF92CF92DF92EF9288
:1004A000FF926B017C010E9424024B015C01C1148C
:1004B000D104E104F104B9F00E9424026819790919
:1004C0008A099B09683E73408105910580F321E00C
:1004D000C21AD108E108F10888EE880E83E0981E60
:1004E000A11CB11CE4CFFF90EF90DF90CF90BF90A4
:1004F000AF909F908F9008952FB7F89460912B0143
:1005000070912C0180912D0190912E012FBF0895A3
:10051000BC016E5F7F4FDC01ED91FC910190F08199
:10052000E02D40E0099591E0811190E0892F089538
:1005300008958EBD00000DB407FEFDCF8EB5089561
:10054000DF92EF92FF920F931F93CF93DF937C0183
:10055000062FD42E152F80E590E00E948C0060E0DD
:10056000F70186850E94C50182E10E949902CD2D86
:10057000D12F0C0F1D2F111DC017D10721F089910C
:100580000E949902F9CF61E0F7018685DF91CF9152
:100590001F910F91FF90EF90DF900C94C5011F9376
:1005A000CF93DF93EC01162F80E590E00E948C0042
:1005B00060E08E850E94C501812F80680E949902AB
:1005C00080E00E949902182F61E08E850E94C5018B
:1005D000812FDF91CF911F9108950F931F93CF9398
:1005E000DF93EC01062F142F80E590E00E948C0031
:1005F00060E08E850E94C501802F0E949902812FA4
:100600000E94990261E08E85DF91CF911F910F9139
:100610000C94C501CF92DF92EF92FF920F931F933C
:10062000CF93DF93EC016B01F42E890140E062E08F
:100630000E94ED0244E06AE0CE010E94ED0240E833
:1006400064E1CE010E94ED02A6016F2DCE010E9451
:10065000A00243E062E0CE010E94ED020E947C0213
:100660006B017C0129E5C20ED11CE11CF11C6AE082
:10067000CE010E94CF0282FF1BC040E062E0CE01AB
:100680000E94ED0264E4CE010E94CF02F801808353
:1006900062E4CE010E94CF02F801818380E0DF9105
:1006A000CF911F910F91FF90EF90DF90CF90089521
:1006B0000E947C026C157D058E059F05C0F283E0CB
:1006C000EECF2F923F924F925F926F927F928F92D6
:1006D0009F92AF92CF92DF92EF92FF920F931F9370
:1006E000CF93DF9300D0CDB7DEB74C012B01D42ED2
:1006F000390180E0E114F10411F0F70180813C2C14
:10070000329490EF3922380E40E062E0C4010E943A
:10071000ED024FE768E0C4010E94ED0240E864E1A9
:10072000C4010E94ED02A2016D2DC4010E94A0022D
:10073000432D6AE1C4010E94ED024CE062E0C40175
:100740000E94ED026AE1C4010E94CF02482F406876
:100750006AE1C4010E94ED020E947C021B012C018F
:10076000F4E22F0E311C411C511C68E0C4010E94B0
:10077000CF02982F907309F0B7C080FF15C083E0B7
:100780000F900F90DF91CF911F910F91FF90EF90FD
:10079000DF90CF90AF909F908F907F906F905F9001
:1007A0004F903F902F9008950E947C026215730530
:1007B00084059505D0F2E3CF6114710409F469C092
:1007C0000115110509F465C064E1C4010E94CF025E
:1007D000382EF8018081831508F480C030823320E0
:1007E000E1F180E590E00E948C0060E0F4018685F4
:1007F0000E94C5013A9482E90E949902CC20B1F08E
:100800008FEF90E09C0102C0220F331FCA94E2F7E1
:10081000690182E90E9499029C2D9095F301208143
:1008200092238C21982B9083CC24C39423014C0CCD
:10083000511CC31440F482E90E949902F201819391
:100840002F01C394F6CF80E00E949902F2018083C9
:1008500061E0F40186850E94C50168E1C4010E943F
:10086000CF028770E114F10411F0F701808323FCBB
:1008700037C061147104B1F10115110599F1AA2075
:1008800089F1F8014081413031F4843029F58FEF4E
:1008900077CF80E0ECCF4230F8F081111DC042509C
:1008A0009E012F5F3F4FB301C4010E940A038111D3
:1008B00067CFF8019081690E711CF3013297208196
:1008C0009981291309C0F1E06F1A7108F3012081A1
:1008D0009A81291709F454CF87E052CF84E050CF92
:1008E00082E04ECF80E04CCF6CE0C4010E94CF028A
:1008F000282E837109F460CF81E042CF8F929F92BE
:10090000AF92CF92EF92FF920F931F93CF93DF930B
:1009100000D000D01F92CDB7DEB74C0182E08D83AE
:1009200040E064E2C4010E94ED0240E066E2C401DE
:100930000E94ED0246E268E4C4010E94ED0286E2F4
:100940008B838D818230D8F16CE1C4010E94CF028B
:10095000482F4F776CE1C4010E94ED0287E08C8341
:10096000A12CC12CCE0104967C018E010B5F1F4F80
:100970009E012F5F3F4F41E0BE016D5F7F4FC4017D
:100980000E946103982F811117C08D818230B9F4C4
:100990008C81811114C081E00F900F900F900F9007
:1009A0000F90DF91CF911F910F91FF90EF90CF901B
:1009B000AF909F908F90089581E0923069F380E02E
:1009C000EBCF2F923F924F925F926F927F928F92D6
:1009D0009F92AF92BF92CF92DF92EF92FF920F93CE
:1009E0001F93CF93DF93CDB7DEB72D970FB6F89453
:1009F000DEBF0FBECDBF16E0413508F04AC1342E30
:100A00003B014C016CE10E94CF02482F4F776CE113
:100A1000C4010E94ED0283E98983332029F081E03B
:100A2000F3019081953008F480E022242394B12CC6
:100A30009B2D990F990F990FD32CD91AD7FCD12C34
:100A400032E0882319F098E89B8333E021E09D2D64
:100A5000977009F420E09D2D959595959595290F12
:100A6000C9F094E0811193E0291708F4922FEB2D3F
:100A7000F0E03196E60DF71D232F4191A1E0B0E0A3
:100A8000AC0FBD1FA20FB11D4C932F5F422F431B14
:100A9000491798F3882311F0F8E0DF0E8FE18D15E8
:100AA0000CF082C090E79A838B819C8189279D817D
:100AB00089279E8189278F839E01285F3F4F47E0CA
:100AC000BE016F5F7F4FC4010E940A03182F81117E
:100AD000E0C01A86E3E0EB87DC86CE0107962C01A6
:100AE00099E09D87CA844C2D4295407F4C0D6AE168
:100AF000C4010E94ED02A12CCE010A967C018E0158
:100B0000055F1F4F92014D85BE016F5F7F4FC4018E
:100B10000E946103182F823009F065C06CE1C401A6
:100B20000E94CF0285FDB5C08F7109F480E2282FA5
:100B300030E04D2DDD0C550B421753070CF09DC0D6
:100B4000D82EE82FE595E595E595EF5F982F9770FE
:100B500081E009F480E0E80F81E090E08C0F9D1FB8
:100B60008E0F911DFC01215031092770332781E040
:100B700090E002C0880F991F2A95E2F79C018081BE
:100B8000822B80838BCF85E98983332031F081E00C
:100B9000F3019081983008F04BCF80E049CF87E98E
:100BA000898326E0B22EF9CF9D2D97709A878D2DDF
:100BB0008595859585958E5F282F2295207F290F15
:100BC0002A8321E0911101C020E0280F2D874424C1
:100BD0004394512C4C0E5D1E480E511CE9E0E81B5D
:100BE000EB87DC867FCF811154C080E2D82E9C85B4
:100BF00090320CF457CF8B81883809F040C083E0E5
:100C000093E0EB2DF0E03196E60DF71D980FA1E093
:100C1000B0E0AC0FBD1FA80FB11D2C9121938F5FC9
:100C20008913F5CFBB84E3E0BE124DC08A858111E4
:100C30004AC09E012D5F3F4F41E0B201C4010E94B6
:100C40000A03182F811125C09B81F201818198131D
:100C50003CC09C818281981338C0808182FF12C081
:100C60002394F2E02F1609F48ECF83E0281609F4BE
:100C700096CF91E0291609F4CECE15E00AC082E0A5
:100C800094E0BFCFF3018387822D880F820D8F5FA1
:100C90008083812F2D960FB6F894DEBF0FBECDBF97
:100CA000DF91CF911F910F91FF90EF90DF90CF9048
:100CB000BF90AF909F908F907F906F905F904F907C
:100CC0003F902F90089511E0E4CF17E0E2CF1F92FC
:100CD0000F920FB60F9211242F933F934F935F9370
:100CE0006F937F938F939F93AF93BF93EF93FF93F4
:100CF00084E391E00E940D01FF91EF91BF91AF91CC
:100D00009F918F917F916F915F914F913F912F9123
:100D10000F900FBE0F901F9018951F920F920FB655
:100D20000F9211242F938F939F93EF93FF93E09152
:100D30004401F09145018081E0914A01F0914B011D
:100D400082FD1BC0908180914D018F5F8F73209138
:100D50004E01821741F0E0914D01F0E0EC5CFE4F56
:100D6000958F80934D01FF91EF919F918F912F91DE
:100D70000F900FBE0F901F9018958081F4CF1F9297
:100D80000F920FB60F9211242F933F938F939F933F
:100D9000AF93BF9380912B0190912C01A0912D01D5
:100DA000B0912E0130912A0123E0230F2D3758F501
:100DB0000196A11DB11D20932A0180932B019093D0
:100DC0002C01A0932D01B0932E0180912F019091C1
:100DD0003001A0913101B09132010196A11DB11DE8
:100DE00080932F0190933001A0933101B093320191
:100DF000BF91AF919F918F913F912F910F900FBE17
:100E00000F901F90189526E8230F0296A11DB11D83
:100E1000D2CFCF93DF93E4E3F1E01382128288EE26
:100E200093E0A0E0B0E084839583A683B78388E055
:100E300091E09183808385EC90E09587848784ECB2
:100E400090E09787868780EC90E0918B808B81EC97
:100E500090E0938B828B82EC90E0958B848B86EC78
:100E600090E0978B868B118E128E138E148EEEED82
:100E7000F1E08AE191E0918380838AE0868789E0CE
:100E80008787C1EDD1E083E090E0998388831B825E
:100E90001A821F821E8284E690E09D838C830E94CA
:100EA0007C02688779878A879B8761E083E00E945C
:100EB000F30181E08C87DF91CF910895789484B518
:100EC000826084BD84B5816084BD85B5826085BD46
:100ED00085B5816085BD80916E00816080936E00D4
:100EE00010928100809181008260809381008091C6
:100EF0008100816080938100809180008160809377
:100F000080008091B10084608093B1008091B00036
:100F100081608093B00080917A00846080937A0031
:100F200080917A00826080937A0080917A0081605B
:100F300080937A0080917A00806880937A00109282
:100F4000C100E0914401F091450182E08083E0918D
:100F50004001F09141011082E0914201F091430182
:100F600080E1808310924C01E0914801F0914901A9
:100F700086E08083E0914601F091470180818061A5
:100F80008083E0914601F0914701808188608083F1
:100F9000E0914601F0914701808180688083E09173
:100FA0004601F091470180818F7D8083CFB7F8940F
:100FB00080913301811127C0E0E9F0E08491E4EAF7
:100FC000F0E09491E82FF0E0EE0FFF1FEE58FF4F96
:100FD000A591B491EC91E92321F461E08AE00E94AB
:100FE000C50161E08AE00E94F3018CB580618CBD8F
:100FF0008CB580648CBD61E08DE00E94F30161E0FE
:101000008BE00E94F301809133018F5F8093330165
:10101000CFBF61E08091EC010E94F30161E080911B
:10102000EC010E94C5018091ED018F3F09F499C048
:1010300060E00E94F3012091ED0130E0F901E255FA
:10104000FF4F8491F901E656FF4FD491F901EA5719
:10105000FF4FC491C11176C061E08091ED010E9403
:10106000F30160E08091ED010E94C50183E090E012
:101070000197F1F761E08091ED010E94C50162E303
:1010800070E080E090E00E94490240E064E28EED72
:1010900091E00E94ED0240E066E28EED91E00E9458
:1010A000ED0246E268E48EED91E00E94ED0240E838
:1010B00064E58EED91E00E94ED0249EA66E58EED71
:1010C00091E00E94ED0243E068E58EED91E00E9420
:1010D000ED0248EE6AE58EED91E00E94ED0240E4FB
:1010E0006AE28EED91E00E94ED024DE362E28EED48
:1010F00091E00E94ED0268E28EED91E00E94CF0245
:10110000982F9370933039F0482F436068E28EED4A
:1011100091E00E94ED02C0E0D0E08EED91E00E94EF
:101120007E04811135C064EF71E080E090E00E94A0
:101130004902209791F30E94F900882371F30E94DD
:101140000000EBCF81110E949C01EC2FF0E0EE0F2C
:10115000FF1FE458FF4FA591B491EC91ED2309F4E2
:101160007BCF4FE062E08EED91E00E94ED02C3E0A4
:1011700062E370E080E090E00E94490262E08EED60
:1011800091E00E94CF0284FF80CFC15089F77DCFCC
:101190008EED91E00E948802882309F4C4CF9091DB
:1011A00000018091E101981312C09091E2018091B9
:1011B000010198130CC0909102018091E3019813F2
:1011C00006C0909103018091E401981751F061E00D
:1011D0008091D1010E94C50160ED77E080E090E050
:1011E00019C045E050E060E271E084E391E00E94C4
:1011F0008F0042E050E066E271E084E391E00E94FB
:101200008F0061E08091D1010E94C50164E670E029
:1012100080E090E00E94490260E08091D1010E944C
:10122000C50187CFEE0FFF1F0590F491E02D0994C3
:04123000F894FFCF60
:1012340031B5B91A000000002F018F00BC007C01F9
:10124400ED00CB00DF0000000000E1047E04880212
:0A125400457175616C000D0A000081
:00000001FF
