:020000040000FA
:100000000C94D5000C94FD000C94FD000C94FD00A4
:100010000C94FD000C94FD000C94FD000C94FD006C
:100020000C94FD000C94FD000C94FD000C94FD005C
:100030000C94FD000C94FD000C94FD000C94FD004C
:100040000C9401070C94FD000C94CF060C94A906A7
:100050000C94FD000C94FD000C94FD000C94FD002C
:100060000C944B070C94FD0000407A10F35A00A04A
:10007000724E18090010A5D4E80000E87648170071
:1000800000E40B54020000CA9A3B000000E1F505B1
:10009000000080969800000040420F000000A086FB
:1000A00001000000102700000000E803000000002D
:1000B0006400000000000A000000000001000000D1
:1000C00000002C76D888DC674F0823DFC1DFAE59EB
:1000D000E1B1B796E5E3E453C63AE651997696E87E
:1000E000E6C28426EB898C9B62ED407C6FFCEFBC02
:1000F0009C9F40F2BAA56FA5F490055A2AF75C932D
:100100006B6CF9676DC11BFCE0E40D47FEF520E662
:10011000B500D0ED902E0300943577050080841E45
:10012000080000204E0A000000C80C333333330FA0
:10013000986E12831141EF8D2114893BE65516CF3D
:10014000FEE6DB18D1844B381BF77C1D901DA4BB49
:10015000E424203284725E228100C9F124ECA1E5FE
:100160003D2700000000250028002B0004040404A3
:100170000404040402020202020203030303030351
:10018000010204081020408001020408102001022E
:10019000040810200000000800020100000304070A
:1001A00000000000000000006A0811241FBECFEF0D
:1001B000D8E0DEBFCDBF23E0A0E6B1E001C01D92D4
:1001C000AD38B207E1F711E0A0E0B1E0E8EAF8E20B
:1001D00002C005900D92A036B107D9F710E0C5ED29
:1001E000D0E004C02197FE010E94B90FC43DD107A1
:1001F000C9F70E940E090C9452140C940000089543
:100200000895AF92BF92CF92DF92EF92FF920F9339
:100210001F93CF93DF936C017B018B01040F151F9C
:10022000EB015E01AE18BF08C017D10759F0699104
:10023000D601ED91FC910190F081E02DC601099568
:10024000892B79F7C501DF91CF911F910F91FF9015
:10025000EF90DF90CF90BF90AF900895FC01538D49
:10026000448D252F30E0842F90E0821B930B541790
:1002700010F0CF96089501970895FC01918D828D1D
:10028000981761F0A28DAE0FBF2FB11D5D968C91B6
:10029000928D9F5F9F73928F90E008958FEF9FEFF5
:1002A0000895FC01918D828D981731F0828DE80FB1
:1002B000F11D858D90E008958FEF9FEF0895FC016B
:1002C000918D228D892F90E0805C9F4F821B910938
:1002D0008F73992708958FE192E00E945F0121E0DA
:1002E000892B09F420E0822F089580E090E0892B8B
:1002F00029F00E946B0181110C9400000895FC010B
:10030000A48DA80FB92FB11DA35ABF4F2C91848D76
:1003100090E001968F739927848FA689B7892C93D3
:10032000A089B1898C91837080648C93938D848D26
:10033000981306C00288F389E02D80818F7D808329
:100340000895EF92FF920F931F93CF93DF93EC01E9
:1003500081E0888F9B8D8C8D98131AC0E889F9896C
:10036000808185FF15C09FB7F894EE89FF8960836F
:10037000E889F98980818370806480839FBF81E0F0
:1003800090E0DF91CF911F910F91FF90EF90089532
:10039000F62E0B8D10E00F5F1F4F0F731127E02E0D
:1003A0008C8D8E110CC00FB607FCFACFE889F98945
:1003B000808185FFF5CFCE010E947F01F1CFEB8DCB
:1003C000EC0FFD2FF11DE35AFF4FF0829FB7F89419
:1003D0000B8FEA89FB8980818062CFCFCF93DF9337
:1003E000EC01888D8823B9F0AA89BB89E889F9894D
:1003F0008C9185FD03C0808186FD0DC00FB607FC82
:10040000F7CF8C9185FFF2CF808185FFEDCFCE01B4
:100410000E947F01E9CFDF91CF91089590E0FC0128
:10042000EC56FE4F2491FC01E058FE4F3491FC0144
:10043000E459FE4FE491EE23C9F0222339F0233032
:1004400001F1A8F4213019F1223029F1F0E0EE0F8A
:10045000FF1FEE59FE4FA591B4918FB7F894EC9120
:10046000611126C030953E233C938FBF08952730FD
:10047000A9F02830C9F0243049F7809180008F7DA1
:1004800003C0809180008F7780938000DFCF84B598
:100490008F7784BDDBCF84B58F7DFBCF8091B0009B
:1004A0008F778093B000D2CF8091B0008F7DF9CF4D
:1004B0003E2BDACF3FB7F89480911302909114024B
:1004C000A0911502B091160226B5A89B05C02F3F3A
:1004D00019F00196A11DB11D3FBFBA2FA92F982F6A
:1004E0008827BC01CD01620F711D811D911D42E065
:1004F000660F771F881F991F4A95D1F708958F922D
:100500009F92AF92BF92CF92DF92EF92FF924B01F8
:100510005C010E945A026B017C010E945A026C1914
:100520007D098E099F09683E734081059105A8F3F6
:1005300021E0821A9108A108B10888EEC80E83E074
:10054000D81EE11CF11C81149104A104B10429F707
:10055000FF90EF90DF90CF90BF90AF909F908F90E3
:1005600008952091C801260F3327331F213231050A
:10057000ECF42091EC01FC0190E080E0243069F083
:1005800082E00895A091C8012191AC0148555E4FC9
:10059000A40FB52FB11D2C930196861798F3809167
:1005A000C801680F6093C80180E0089581E0089554
:1005B0001092EC0181E08093EE011092ED0161E078
:1005C00082E10E940E0261E083E10E940E02E9EBEB
:1005D000F0E080818E7F808380818D7F808388E4BE
:1005E0008093B80085E48093BC000895CF93DF9397
:1005F00091E09093A7018823B9F0C091B800D09101
:10060000BA008091BC008A7B8093BC0060E082E1EC
:100610000E940E0260E083E10E940E020E94D80256
:10062000D093BA00C093B800DF91CF910895089598
:10063000E0911E0280911D02E81730F4F0E0EE57C1
:10064000FE4F808190E008958FEF9FEF0895909185
:100650001E0280911D022FEF3FEF981748F4E92FFB
:10066000F0E0EE57FE4F208130E09F5F90931E0236
:10067000C901089580911D0290911E02891B990B5A
:100680000895CF92DF92EF92FF920F931F93CF9333
:10069000DF937C01CB018A0120918101222389F023
:1006A000EB016B01C40ED51ECC15DD0569F0699117
:1006B000D701ED91FC910190F081E02DC7010995E2
:1006C000F3CF642F0E94B102C801DF91CF911F9137
:1006D0000F91FF90EF90DF90CF900895CF93DF932D
:1006E0001F92CDB7DEB76983209181012223F9F0F3
:1006F00020911B02203258F021E030E0FC013383CE
:10070000228390E080E00F90DF91CF910895809157
:100710001C02E82FF0E0EF59FE4F998190838F5F24
:1007200080931C0280931B0281E090E0ECCF61E09B
:10073000CE0101960E94B102F7CFCF92DF92EF92E5
:10074000FF920F931F93CF93DF93FC01C48121E0AD
:1007500020938101C093600110921C0210921B0231
:100760008385682B8CEB92E00E946E03D0911B0274
:10077000D13208F092C00E945A026B017C01809134
:10078000EC01811165C082E08093EC0181E08093EF
:10079000EE018FEF8093EB0110921002D0930F02C5
:1007A000A1E6B1E0EFEEF1E080E0D81385C0109251
:1007B000110280911102CC0FC82BC09311028091BD
:1007C000ED01813009F07CC01092ED010E945A02C7
:1007D0006B017C01809111028093BB008091A30189
:1007E0009091A401A091A501B091A601892B8A2B1B
:1007F0008B2B99F00E945A020091A3011091A40141
:100800002091A5013091A6016C197D098E099F09DF
:100810000617170728073907E0F18091BC0083FD10
:10082000D9CF85EC8093BC000E945A026B017C01F9
:100830008091EC01823009F445C08091EB018F3F3B
:1008400061F18091EB01803241F18091EB0125C093
:100850008091A3019091A401A091A501B091A6015E
:10086000892B8A2B8B2B09F48ACF0E945A02009184
:10087000A3011091A4012091A5013091A6016C194A
:100880007D098E099F09061717072807390708F001
:1008900076CF8091A2010E94F60210921C02109263
:1008A0001B0210928101DF91CF911F910F91FF9058
:1008B000EF90DF90CF9008959D9191938F5F75CFCA
:1008C00085EEB0CF8091A3019091A401A091A501E4
:1008D000B091A601892B8A2B8B2B09F4A9CF0E94FA
:1008E0005A020091A3011091A4012091A501309119
:1008F000A6016C197D098E099F090617170728079D
:10090000390708F095CFC5CF089590E080E00895AD
:100910000F931F93CF93DF93EC0188819981009708
:1009200059F02A813B812617370730F081E0DF91AB
:10093000CF911F910F9108958B016F5F7F4F0E94A0
:10094000E410009759F0998388831B830A832C81D4
:100950003D81232B59F7FC011082E8CF80E0E7CFDF
:10096000CF93DF93EC0188819981009711F00E9469
:100970005B10198218821D821C821B821A82DF91F1
:10098000CF910895EF92FF920F931F93CF93DF9330
:10099000EC018617970781F0FB0100811181011599
:1009A000110539F0E480F580B7010E9488048111B7
:1009B0000BC0CE010E94B004CE01DF91CF911F91F8
:1009C0000F91FF90EF900895FD82EC82B80188812D
:1009D00099810E94AA11F0CFFC018081918100973A
:1009E00011F00C945B10089585ED8093BC0080910C
:1009F000A3019091A401A091A501B091A601079631
:100A0000A11DB11D23E0B695A795979587952A95C9
:100A1000D1F72091BC0024FD03C01092EC01089591
:100A20004091A3015091A4016091A5017091A6018C
:100A3000452B462B472B69F30097A105B10541F0E3
:100A400025E32A95F1F700000197A109B109E1CF4B
:100A50008091A2010C94F6020F931F93CF938C0107
:100A6000C62F0E949D036C2F6460C8010E949D03E5
:100A70006C2F6B7FC8010E949D0383EC90E001976F
:100A8000F1F7CF911F910F9108950F931F93CF937B
:100A9000DF938C01D62FC42F607F642B0E942C051E
:100AA00080E1D89FB00111246C2BC801DF91CF9158
:100AB0001F910F910C942C05EF92FF921F93CF93EF
:100AC000DF93CDB7DEB769970FB6F894DEBF0FBEE0
:100AD000CDBF182F7F936F938EE391E09F938F93F9
:100AE000CE0101967C019F938F930E94B111812FBB
:100AF00098E0E6E0F1E0DE01529601900D929A95C1
:100B0000E1F79091D8020F900F900F900F900F90F7
:100B10000F90911710F48FEF890FE82FF0E0EE0F90
:100B2000FF1FEE0DFF1D6189606840E080ED92E0DF
:100B30000E944505F70101900020E9F73197AF01C8
:100B40004E195F09B70180ED92E00E94010169969C
:100B50000FB6F894DEBF0FBECDBFDF91CF911F91CE
:100B6000FF90EF900895CF92DF92EF92FF920F9354
:100B70001F93CF93DF93CDB7DEB76A970FB6F89484
:100B8000DEBF0FBECDBF20918803211143C06A0193
:100B90007B01BC011E8A1D8A188E1F8A1A8E198E2F
:100BA000CE0145960E94C2048E010F5F1F4F22E0C6
:100BB00044E0C701B6010E94A30B7C01FC01019037
:100BC0000020E9F73197E81BF90B892B91F5CE014D
:100BD00045960E94B0041A8219821C821B821E82D2
:100BE0001D82BE016B5E7F4FCE0101960E94C20442
:100BF000CE0145960E94EC0480918803811106C0C5
:100C000069817A8181E090E00E945C05CE010196C5
:100C10000E94EC046A960FB6F894DEBF0FBECDBFFB
:100C2000DF91CF911F910F91FF90EF90DF90CF90C8
:100C30000895309781F2098D1A8D0E0F1F1FB8018C
:100C4000CE0145960E948804882309F22D893E89A9
:100C5000898D9A8DB701820F931F0E94AA111A8F56
:100C6000098FB9CFCF92DF92EF92FF92CF93DF93AC
:100C700000D000D000D0CDB7DEB781E480937C00F7
:100C800080917A00806480937A0080917A0086FD5A
:100C9000FCCF8091780060917900762F682F072E25
:100CA000000C880B990B0E94FA0D20E030E040E820
:100CB0005AE30E94350E20E030E040EA50E40E9402
:100CC000350E20E030E048EC52E40E94350E20E082
:100CD00030E040E05FE30E942B0F6B017C011A8241
:100CE00019821C821B821E821D8263E070E0CE018D
:100CF00001960E94880481111BC0CE0101960E94BA
:100D0000B004B701A601CE0101960E94B305CE0141
:100D100001960E94EC0426960FB6F894DEBF0FBE33
:100D2000CDBFDF91CF91FF90EF90DF90CF900895EE
:100D300083E090E09E838D8364E471E089819A81F1
:100D40000E94AA11DECF41E00E94450581E090E0BB
:100D500008951F920F920FB60F9211242F933F9375
:100D60004F935F936F937F938F939F93AF93BF93B3
:100D7000EF93FF938FE192E00E947F01FF91EF914B
:100D8000BF91AF919F918F917F916F915F914F91A3
:100D90003F912F910F900FBE0F901F9018951F92AB
:100DA0000F920FB60F9211242F938F939F93EF936F
:100DB000FF93E0912F02F09130028081E0913502A3
:100DC000F091360282FD1BC09081809138028F5FC6
:100DD0008F7320913902821741F0E0913802F0E0E0
:100DE000E15EFD4F958F80933802FF91EF919F91C7
:100DF0008F912F910F900FBE0F901F9018958081AB
:100E0000F4CF1F920F920FB60F9211242F933F939E
:100E10008F939F93AF93BF938091C8029091C90223
:100E2000A091CA02B091CB023091120223E0230FAD
:100E30002D3758F50196A11DB11D20931202809304
:100E4000C8029093C902A093CA02B093CB028091CA
:100E5000130290911402A0911502B091160201960E
:100E6000A11DB11D8093130290931402A09315024B
:100E7000B0931602BF91AF919F918F913F912F91A7
:100E80000F900FBE0F901F90189526E8230F029623
:100E9000A11DB11DD2CF1F920F920FB60F92112438
:100EA0002F933F934F935F936F937F938F939F9372
:100EB000AF93BF93EF93FF938091B900887F803603
:100EC00009F44AC0F0F5883209F4A7C018F580315A
:100ED00009F49BC0B8F4882309F4F9C0883009F4F8
:100EE00094C0FF91EF91BF91AF919F918F917F91AE
:100EF0006F915F914F913F912F910F900FBE0F9087
:100F00001F901895883109F488C0803251F780937A
:100F1000EB0114C0803409F49DC040F48033B9F370
:100F20008833F9F68093EB0185ECB0C0803509F485
:100F300085C0883509F496C0883499F60E94F40477
:100F4000D0CF883909F48CC038F5883729F050F4AF
:100F5000883611F0803729F683E08093EC011092F7
:100F6000EA0157C0883809F47BC0803919F080380D
:100F700009F0B7CF8091EA01803208F071C0E091AA
:100F8000EA0181E08E0F8093EA018091BB00F0E0DE
:100F9000E653FE4F80833DC0803B39F0E0F4803A59
:100FA00009F479C0883A09F09CCF84E08093EC0181
:100FB0001092C9011092C801E0911902F0911A0231
:100FC00009958091C80181110FC081E08093C8010B
:100FD0001092A80109C0803C09F4A6CF883C09F40E
:100FE000A3CF883B09F07DCFE091C90181E08E0F4E
:100FF0008093C901F0E0E855FE4F80818093BB00EB
:101000009091C9018091C80129C0809111028093FB
:10101000BB0085EC8093BC0064CF9091100280915E
:101020000F02981758F5E091100281E08E0F80931F
:101030001002F0E0E151FE4F8081E9CFE091100213
:1010400081E08E0F809310028091BB00F0E0E151AF
:10105000FE4F80839091100280910F029817C8F282
:1010600085E8D8CFE091100281E08E0F80931002C6
:101070008091BB00F0E0E151FE4F80838091EE0152
:1010800081115CCF81E08093ED0184EA8093BC0004
:101090001092EC0126CF85EC8093BC001092EC01FD
:1010A0008091EA01803230F4E091EA01F0E0E65309
:1010B000FE4F10826091EA0170E0E0911702F0911A
:1010C00018028AEC91E009951092EA010ACF109279
:1010D000EB0134CFCF93DF931092220210922102C2
:1010E00088EE93E0A0E0B0E0809323029093240286
:1010F000A0932502B093260222E131E03093200232
:1011000020931F0225EC30E030932C0220932B0219
:1011100024EC30E030932E0220932D0220EC30E0BE
:101120003093300220932F0221EC30E030933202D2
:101130002093310222EC30E03093340220933302CA
:1011400026EC30E0309336022093350210923802BC
:101150001092390210923A0210923B021092BF0292
:101160001092BE028093C0029093C102A093C2026B
:10117000B093C30284E291E09093BD028093BC02DD
:1011800080E092ECA1E0B0E08093CC029093CD029D
:10119000A093CE02B093CF021092D3021092D2024B
:1011A00086E391E09093D1028093D00287E280930E
:1011B000D40280E18093D90282E08093DA02109217
:1011C000DB028FB7F8944091C8025091C902609138
:1011D000CA027091CB028FBFC8E6D3E0E4E0F3E02F
:1011E0002CED32E0199211921192D9014D935D9339
:1011F0006D937D939D01CF01825B9F4FDC011D921A
:101200001C92B3E0E831FB0769F710928703109254
:10121000860310928803DF91CF910895CF93DF93D7
:1012200000D000D0CDB7DEB7789484B5826084BD9D
:1012300084B5816084BD85B5826085BD85B58160DA
:1012400085BD80916E00816080936E001092810058
:101250008091810082608093810080918100816013
:1012600080938100809180008160809380008091D4
:10127000B10084608093B1008091B0008160809360
:10128000B00080917A00846080937A0080917A0027
:10129000826080937A0080917A00816080937A00E6
:1012A00080917A00806880937A001092C100C0908B
:1012B000CC02D090CD02E090CE02F090CF0260E060
:1012C00079E08DE390E0A70196010E94970F2150ED
:1012D0003109410951095695479537952795E09170
:1012E0002F02F091300282E08083C11441EED406D7
:1012F000E104F10421F0211580E13807A8F0E09124
:101300002F02F0913002108260E874E88EE190E0E4
:10131000A70196010E94970F2150310941095109F7
:101320005695479537952795E0912B02F0912C0221
:101330003083E0912D02F0912E022083109237022B
:10134000E0913302F091340286E08083E091310233
:10135000F0913202808180618083E0913102F091CE
:101360003202808188608083E0913102F091320204
:10137000808180688083E0913102F0913202808127
:101380008F7D808380918803811189C010921E0215
:1013900010921D0210921C0210921B020E94D80291
:1013A0008FEF90E090931A028093190280E091E011
:1013B00090931802809317021092D5028091DA025E
:1013C000823018F098E09093D5028093D80262E3BF
:1013D00070E080E090E00E947F026091DB0280ED8F
:1013E00092E00E949D0368EE73E080E090E00E942E
:1013F0007F0260E380ED92E00E942C058BE496E48E
:101400000197F1F760E380ED92E00E942C05ABE4D8
:10141000B6E41197F1F760E380ED92E00E942C05AD
:1014200083E592E00197F1F760E280ED92E00E949F
:101430002C056091D502606240E080ED92E00E9450
:10144000450584E08093D60240E06CE080ED92E0B8
:101450000E94450540E061E080ED92E00E94450574
:101460008BE39FE10197F1F782E08093D70240E0A0
:1014700066E080ED92E00E94450540E062E080ED8C
:1014800092E00E944505EBE3FFE13197F1F788E038
:101490008093DB0260E080ED92E00E949D038091EA
:1014A0008603909187030A976CF4E4E0F3E090E000
:1014B00080E021913191232B09F401C101968A30FA
:1014C0009105B9F780918803811106C068E471E045
:1014D00090E080E00E945C0580918803811106C045
:1014E00061E571E081E090E00E945C0501E010E0C0
:1014F000B2E02B2E312C8FB7F8948090C8029090D8
:10150000C902A090CA02B090CB028FBFE4E0F3E022
:101510002CEC32E03C832B833A83298390E080E0FB
:10152000AF0142595F4FDA011D921C922081318137
:101530003296232BC9F1A981BA8150964D915D91C4
:101540006D917C9153979D01245B3F4FD901CD90C4
:10155000DD90ED90FC9024013501441A550A660A8D
:10156000770A4C145D046E047F04F0F04C0D5D1D91
:101570006E1D7F1DA981BA8150964D935D936D9329
:101580007C9353979C0128593C4FD9012C912223DD
:1015900059F022AD33AD21153105C9F59F0124590C
:1015A0003F4FD9010D931C93019629813A812C5FFD
:1015B0003F4F3A8329838A30910509F0B1CFF12C4E
:1015C000E12CCB80DC8036EAC30ED11CD6018D9194
:1015D0009C9181309105C1F10297E9F1BFEFEB1ABF
:1015E000FB0AEB81FC813296FC83EB83FAE0EF1679
:1015F000F10439F720E030E0232B09F47CCF0E947E
:101600006B01882309F477CF0E94000074CF7F011B
:10161000BEE4EB0EF11CD7016D917C91621773074C
:101620001CF6AF0144595F4FDA010D931C936F5FB5
:101630007F4FD7016D937C93621773070CF4B4CF7F
:10164000DA012D923C92B0CFAB81BC81D896ED915E
:10165000FC910995C3CFAB81BC81D896ED91FC91EB
:1016600009958091860390918703009709F4B6CF7E
:10167000EB81FC8120AD31AD232B09F4AFCF11AE4E
:1016800010AEF701E859FC4F1082D6011D921C9252
:10169000F701EE0FFF1FEE0FFF1FE85EFC4F1082F9
:1016A000118212821382EB81FC81E857FF4F118275
:1016B0001082019790938703809386038FCFFC015C
:1016C000EE0FFF1FEE0FFF1FE85FFC4F40ED57E0EE
:1016D00060E070E0408B518B628B738BFC01EE0FEE
:1016E000FF1FEC50FD4F22E336E0318B208BFC01D5
:1016F000EE0FFF1FE05DFC4F118A108AFC01E859D4
:10170000FC4F21E020832FB7F8944091C8025091FC
:10171000C9026091CA027091CB022FBF880F991F36
:10172000880F991FFC01E453FD4F408B518B628B56
:10173000738B809186039091870301969093870322
:1017400080938603BFCEEF920F931F93CF93DF93C7
:10175000E80134E047FD34E1042E000C550B57FF3F
:1017600003C0519541955109E32E022F242FAE015C
:101770000E94C10BCE01DF91CF911F910F91EF908D
:101780000895A9E0B0E0E7ECFBE00C94F90E6A01E3
:10179000F22EB02E102FFBE3AF2EA01608F41BE3A1
:1017A0001F5F012F27E0AE014F5F5F4F0E94200DAA
:1017B000BC018981982F9970913009F43FC09BE258
:1017C000E1FC04C09E2D9170E0FC3AC05E2D50718A
:1017D000E82FE87083FF46C084E0911101C083E0E8
:1017E000EF2DE81B8F1508F0E0E0D6018E2F20E2E8
:1017F000552351F1992329F0D6019C93C6010196F6
:101800006C0196012D5F3F4FE2FE24C08EE4D601AD
:101810008C9391E411969C93119712968C93D90115
:101820008E2F90E281111BC0E20FF32FF11D108269
:101830008EEF9FEF2996ECE00C94150F9DE2C6CF3A
:1018400090E2C4CF2D9381508111FCCFCE0ED11CDC
:10185000E0E0D0CF8EE6D6018C9391E6DBCF9D936E
:101860008150E0CF482F447082FF3DC084E0911149
:1018700001C083E08F1510F4EF2DE81BD6018E2FE9
:1018800020E2552309F1992329F0D6019C93C60142
:1018900001966C0196012D5F3F4FE2FE1BC089E46B
:1018A000D6018C938EE411968C93119786E4129650
:1018B0008C93D9018E2F90E2882309F4B5CF9D93A4
:1018C0008150FACF2D9381508111FCCFCE0ED11CC7
:1018D000E0E0D9CF89E6D6018C938EE611968C9301
:1018E000119786E6E4CF9B0177FF02C030E020E04D
:1018F000A1E0B0E0911102C0B0E0A0E0F9013196A2
:10190000AE0FBF1F8B2C912CBB2009F461C054017A
:10191000EFEFAE1ABE0AAA0DBB1DFA161B0619F090
:1019200014F04F2D4A1B511188C0E3FC59C07601B9
:10193000A42FB0E2A1114FC0C40ED11C992309F409
:101940005BC040E0D6011196F60190836D015523EE
:1019500009F448C0012F060F9A81582F507184FF57
:1019600003C0913309F4015010160CF047C0093040
:1019700008F008E0EEE2FE2E5B01A01AB108850136
:101980009194819491082F3F320729F4D601FC925B
:10199000F60131966F016217730794F1021713076E
:1019A0007CF5DB01A21BB30BAA24A394B12CAC0ED3
:1019B000BD1EAA0DBB1D11968C9121503109D60177
:1019C000119628153905F4F0F60180836D01DBCFFF
:1019D000B12CA12CA0CFF701B1937F01A150AACFC8
:1019E0009111B0CFD601942F50E302C05D93915076
:1019F0009111FCCFC40ED11C40E0ACCF01E0BACFB6
:101A000080E3DBCF6217730731F4963388F49533A4
:101A100011F4552369F0F6018083FD01842F90E2D3
:101A2000811108C0A40FB11D1C9290E080E002CF8C
:101A300081E3F1CF91938150F3CF911183CF8ACF7E
:101A4000283008F027E03327DA01990F311D87FD90
:101A5000916000966105710539F432602E5F3D9307
:101A600030E32A95E1F708959F3F30F08038710503
:101A7000610509F03C5F3C5F3D93913008F0806860
:101A8000911DDF93CF931F930F93FF92EF92192F26
:101A9000987F9695E92F96959695E90FFF27EE5337
:101AA000FF4F99273327EE24FF24A701E701059074
:101AB0000894079428F4360FE71EF81E491F511D9D
:101AC000660F771F881F991F0694A1F7059007944A
:101AD00028F4E70EF81E491F561FC11D770F881FF7
:101AE000991F661F0694A1F70590079428F4F80E35
:101AF000491F561FC71FD11D880F991F661F771FCB
:101B00000694A1F70590079420F4490F561FC71FAC
:101B1000D81F990F661F771F881F0694A9F7849115
:101B20001095177041F0D695C79557954795F7943E
:101B3000E7941A95C1F7E8E6F0E0689415901591DE
:101B400035916591959105907FE27395E118F10AC1
:101B5000430B560BC90BD009C0F7E10CF11E431F14
:101B6000561FC91FD01D7EF4703311F48A95E6CF3D
:101B7000E894015030F0080F0AF40027021708F427
:101B8000202F2395022F7A3328F079E37D932A952D
:101B9000E9F710C07D932A9589F606949795679585
:101BA000379517951794E118F10A430B560BC90B9B
:101BB000D00998F023957E9173957A3308F070E3FD
:101BC0007C932013B8F77E9170617D9330F08395FC
:101BD00071E37D9370E32A95E1F71124EF90FF9074
:101BE0000F911F91CF91DF91992787FD90950895CF
:101BF000E89409C097FB3EF49095809570956195A7
:101C00007F4F8F4F9F4F9923A9F0F92F96E9BB275C
:101C10009395F695879577956795B795F111F8CFD8
:101C2000FAF4BB0F11F460FF1BC06F5F7F4F8F4F43
:101C30009F4F16C0882311F096E911C0772321F039
:101C40009EE8872F762F05C0662371F096E8862FD1
:101C500070E060E02AF09A95660F771F881FDAF728
:101C6000880F9695879597F908950E94480E0C94D1
:101C7000B90E0E94AB0E38F00E94B20E20F09523F0
:101C800011F00C94A20E0C94A80E11240C94ED0EDD
:101C90000E94CA0E70F3959FC1F3950F50E0551F37
:101CA000629FF001729FBB27F00DB11D639FAA27B1
:101CB000F00DB11DAA1F649F6627B00DA11D661F00
:101CC000829F2227B00DA11D621F739FB00DA11D21
:101CD000621F839FA00D611D221F749F3327A00DDB
:101CE000611D231F849F600D211D822F762F6A2F77
:101CF00011249F5750409AF0F1F088234AF0EE0FDC
:101D0000FF1FBB1F661F771F881F91505040A9F708
:101D10009E3F510580F00C94A20E0C94ED0E5F3F97
:101D2000E4F3983ED4F3869577956795B795F79544
:101D3000E7959F5FC1F7FE2B880F911D96958795BC
:101D400097F9089597F99F6780E870E060E008953B
:101D50009FEF80EC089500240A94161617061806C3
:101D60000906089500240A9412161306140605069F
:101D70000895092E0394000C11F4882352F0BB0F30
:101D800040F4BF2B11F460FF04C06F5F7F4F8F4F93
:101D90009F4F089557FD9058440F551F59F05F3FCE
:101DA00071F04795880F97FB991F61F09F3F79F07D
:101DB00087950895121613061406551FF2CF4695FF
:101DC000F1DF08C0161617061806991FF1CF869581
:101DD0007105610508940895E894BB276627772765
:101DE000CB0197F908952F923F924F925F926F9295
:101DF0007F928F929F92AF92BF92CF92DF92EF929B
:101E0000FF920F931F93CF93DF93CDB7DEB7CA1B1B
:101E1000DB0B0FB6F894DEBF0FBECDBF09942A8846
:101E2000398848885F846E847D848C849B84AA84EE
:101E3000B984C884DF80EE80FD800C811B81AA817B
:101E4000B981CE0FD11D0FB6F894DEBF0FBECDBF46
:101E5000ED0108955058BB27AA270E94420F0C9409
:101E6000B90E0E94AB0E38F00E94B20E20F039F489
:101E70009F3F19F426F40C94A80E0EF4E095E7FBAE
:101E80000C94A20EE92F0E94CA0E58F3BA176207EB
:101E900073078407950720F079F4A6F50C94EC0EEF
:101EA0000EF4E0950B2EBA2FA02D0B01B901900175
:101EB0000C01CA01A0011124FF27591B99F0593FB9
:101EC00050F4503E68F11A16F040A22F232F342F01
:101ED0004427585FF3CF469537952795A795F0404F
:101EE0005395C9F77EF41F16BA0B620B730B840B64
:101EF000BAF09150A1F0FF0FBB1F661F771F881F1C
:101F0000C2F70EC0BA0F621F731F841F48F4879573
:101F100077956795B795F7959E3F08F0B0CF939565
:101F2000880F08F09927EE0F979587950895A1E2FD
:101F30001A2EAA1BBB1BFD010DC0AA1FBB1FEE1F43
:101F4000FF1FA217B307E407F50720F0A21BB30B8E
:101F5000E40BF50B661F771F881F991F1A9469F70A
:101F600060957095809590959B01AC01BD01CF0166
:101F70000895EE0FFF1F0590F491E02D09940F9343
:101F80001F93CF93DF938230910510F482E090E0AD
:101F9000E0918B03F0918C0330E020E0B0E0A0E012
:101FA000309799F42115310509F44AC0281B390BE3
:101FB00024303105D8F58A819B816115710589F13D
:101FC000FB0193838283FE0111C040815181028114
:101FD000138148175907E0F04817590799F41097EB
:101FE00061F012960C93129713961C933296CF01C0
:101FF000DF91CF911F910F91089500938B03109360
:102000008C03F4CF2115310551F04217530738F0F6
:10201000A901DB019A01BD01DF01F801C1CFEF0188
:10202000F9CF90938C0380938B03CDCFFE01E20F09
:10203000F31F819391932250310939832883D7CF9D
:102040002091890330918A03232B41F420910201CE
:102050003091030130938A0320938903209100017A
:10206000309101012115310541F42DB73EB7409162
:10207000040150910501241B350BE0918903F09177
:102080008A03E217F307A0F42E1B3F0B281739072A
:1020900078F0AC014E5F5F4F2417350748F04E0FC4
:1020A0005F1F50938A0340938903819391939FCF3D
:1020B000F0E0E0E09CCFCF93DF930097E9F0FC01E4
:1020C000329713821282A0918B03B0918C03ED01A1
:1020D00030E020E01097A1F420813181820F931F1E
:1020E0002091890330918A032817390709F061C0CC
:1020F000F0938A03E0938903DF91CF910895EA0179
:10210000CE17DF07E8F54A815B819E014115510535
:10211000B1F7E901FB83EA8349915991C40FD51FB7
:10212000EC17FD0761F4808191810296840F951F61
:10213000E90199838883828193819B838A83F0E07C
:10214000E0E012968D919C9113970097B9F52D912F
:102150003C911197CD010296820F931F2091890324
:1021600030918A032817390739F6309751F51092C4
:102170008C0310928B03B0938A03A0938903BCCF86
:10218000D383C28340815181840F951FC817D9071B
:1021900061F44E5F5F4F88819981480F591F5183C9
:1021A00040838A819B81938382832115310509F0C5
:1021B000B0CFF0938C03E0938B039ECFFD01DC0145
:1021C000C0CF13821282D7CFB0E0A0E0EAEEF0E1F8
:1021D0000C94F50E8C01009751F4CB010E94BF0FB7
:1021E0008C01C801CDB7DEB7E0E10C94110FFC0102
:1021F000E60FF71F9C0122503109E217F30708F49C
:102200009DC0D901CD91DC911197C617D70798F0E1
:10221000C530D10530F3CE0104978617970708F330
:10222000C61BD70B2297C193D1936D937C93CF019B
:102230000E945B10D6CF5B01AC1ABD0A4C018C0E1C
:102240009D1EA0918B03B0918C03512C412CF12C3D
:10225000E12C109731F58091890390918A038815BC
:10226000990509F05CC04616570608F058C08091E1
:10227000000190910101009741F48DB79EB7409104
:10228000040150910501841B950BE817F90708F02C
:1022900055C0F0938A03E0938903F9017183608349
:1022A000A0CF8D919C91119712966C9012971396D6
:1022B0007C901397A815B90559F56C0142E0C40E3E
:1022C000D11CCA14DB0420F1AC014A195B09DA0104
:1022D0001296159780F06282738251834083D901F0
:1022E0006D937C93E114F10471F0D7011396FC9384
:1022F000EE93129776CF22968C0F9D1FF901918352
:102300008083F301EFCFF0938C03E0938B0369CFCD
:102310004816590608F42C017D01D3019ACFCB0150
:102320000E94BF0F7C01009749F0AE01B8010E94E6
:10233000A111C8010E945B10870153CF10E000E09B
:1023400050CFFB01DC0102C001900D924150504082
:10235000D8F70895FB01DC0101900D920020E1F710
:102360000895AEE0B0E0E7EBF1E10C94010F0D89C8
:102370001E8986E08C831A8309838FEF9FE79E83F3
:102380008D83AE01475E5F4F6F89788DCE010196D8
:102390000E94D4112F813885020F131FF80110827B
:1023A0002E96E4E00C941D0FABE0B0E0EAEDF1E115
:1023B0000C94F30E7C013B018A01FC01178216820A
:1023C000838181FFC8C1CE0101965C01F701938131
:1023D000F30193FD859193FF81913F01882309F4D7
:1023E00053C1853239F493FD859193FF81913F016B
:1023F000853229F4B70190E00E94C413E7CF912CF5
:10240000212C312CFFE1F31538F08B3211F190F4CF
:10241000803209F1833229F137FC3CC020ED280FCE
:102420002A3050F536FE20C08AE0989E200D1124F7
:10243000922E06C08D3291F0803371F7689430F897
:10244000F30193FD859193FF81913F018111DACFD3
:1024500021C0689431F8689432F8F2CF689433F868
:10246000EFCF689434F8ECCFEAE02E9E200D1124D3
:10247000222E689435F8E4CF8E3229F436FC04C15C
:10248000689436F8DDCF8C3619F4689437F8D8CFD5
:102490008836B1F2982F9F7D95549330E0F08336C3
:1024A000A1F18337C1F1833509F063C02801F2E05F
:1024B0004F0E511CF801C080D180692D70E036FCB0
:1024C00002C06FEF7FEFC6010E94AE134C0168940B
:1024D00037F882010AC00C5F1F4FFFE3F98388249D
:1024E0008394912C6501E89437F833FE2DC0522C6B
:1024F0008114910471F5552009F468CFB70180E289
:1025000090E00E94C4135A94F6CFF8018081898329
:102510000E5F1F4FE4CF2801F2E04F0E511CF8016F
:10252000C080D180692D70E036FC02C06FEF7FEF74
:10253000C6010E94B9134C018201D5CFB70180E2D8
:1025400090E00E94C4132A942814190409F0B0F7EB
:10255000CECFF60137FC859137FE81916F01B7012F
:1025600090E00E94C41351105A94F1E08F1A910820
:10257000BFCF843619F0893609F077C0F80137FEED
:102580006BC060817181828193810C5F1F4FF32D3D
:10259000FF763F2E97FF09C09095809570956195C5
:1025A0007F4F8F4F9F4F689437F82AE030E0A501A6
:1025B0000E94F413C82ECA188C2C432C36FE0CC073
:1025C000E89440F8C91440F434FE05C032FC03C05E
:1025D000F32DFE7E4F2E892C44FE95C0FE01EC0D9E
:1025E000F11D8081803309F087C0242D297E422E81
:1025F000842D8870582E43FC95C040FE8FC09C2CC3
:10260000821418F42C0C922C981844FE91C0B70137
:1026100080E390E00E94C41342FE09C088E790E086
:1026200041FE02C088E590E0B7010E94C413C914BE
:1026300008F48AC0CA94D12C9FEFC91AD90ACA0CCF
:10264000DB1CF60182916F01B70190E00E94C41378
:10265000AC14BD04B1F74FCF60817181072E000C1F
:10266000880B990B0E5F1F4F92CFD32CE894D4F8B0
:102670002AE030E0853739F1232D297FD22E8F369D
:1026800001F148F48835A9F0F701868197812B96EE
:10269000E2E10C940F0F803749F08837A9F7D4FE98
:1026A00002C06894D2F820E130E00DC06894D4F8FC
:1026B000F6CF34FE03C0822F8660D82E20E132E0B0
:1026C00002C028E030E0F801D7FE0FC060817181C0
:1026D000828193810C5F1F4FA5010E94F413C82EC5
:1026E000CA183D2CE89437F867CF6081718190E07B
:1026F00080E00E5F1F4FF0CF42FC02C0839478CF82
:102700008394839475CF842D867809F471CFF6CFA6
:10271000B70180E290E00E94C41383948214C0F356
:10272000512C73CF522C5818821408F46ECFF8CF66
:10273000842D867809F47BCF8BE241FE80E247FC52
:102740008DE2B70190E071CFB70180E390E00E9485
:10275000C4139A946CCF8FEF9FEF99CFFC01059033
:10276000615070400110D8F7809590958E0F9F1F93
:102770000895FC016150704001900110D8F78095D8
:1027800090958E0F9F1F08950F931F93CF93DF9304
:10279000182F092FEB018B8181FD09C01FEF0FEF6F
:1027A000812F902FDF91CF911F910F91089582FF7C
:1027B00014C02E813F818C819D81281739073CF4FC
:1027C000E881F981CF0101969983888310838E81F6
:1027D0009F8101969F838E83E3CFE885F985812FC2
:1027E0000995892BA1F3DACFFA01AA27283051F1F4
:1027F000203181F1E8946F936E7F6E5F7F4F8F4F32
:102800009F4FAF4FB1E03ED0B4E03CD0670F781F90
:10281000891F9A1FA11D680F791F8A1F911DA11D75
:102820006A0F711D811D911DA11D20D009F46894AE
:102830003F912AE0269F11243019305D3193DEF656
:10284000CF010895462F4770405D4193B3E00FD00C
:10285000C9F7F6CF462F4F70405D4A3318F0495DF7
:1028600031FD4052419302D0A9F7EACFB4E0A695DA
:102870009795879577956795BA95C9F700976105FC
:10288000710508959B01AC010A2E06945795479552
:1028900037952795BA95C9F7620F731F841F951F47
:1028A000A01D0895F894FFCF00008D038000000064
:1028B00040001400540000000000A10101012E019D
:1028C000EE015F013D015101000000006E03410374
:1028D000850417033A032703180300000000A3062A
:1028E000010185048404252D31367300543A2000FB
:1028F0005B5B4C4D33355D5D005072657061726994
:082900006E67204C4D333500D9
:107E0000112484B714BE81FFF0D085E080938100F7
:107E100082E08093C00088E18093C10086E0809377
:107E2000C20080E18093C4008EE0C9D0259A86E02C
:107E300020E33CEF91E0309385002093840096BBD3
:107E4000B09BFECF1D9AA8958150A9F7CC24DD24C4
:107E500088248394B5E0AB2EA1E19A2EF3E0BF2EE7
:107E6000A2D0813461F49FD0082FAFD0023811F036
:107E7000013811F484E001C083E08DD089C08234E0
:107E800011F484E103C0853419F485E0A6D080C0E4
:107E9000853579F488D0E82EFF2485D0082F10E0AE
:107EA000102F00270E291F29000F111F8ED06801E7
:107EB0006FC0863521F484E090D080E0DECF843638
:107EC00009F040C070D06FD0082F6DD080E0C81688
:107ED00080E7D80618F4F601B7BEE895C0E0D1E017
:107EE00062D089930C17E1F7F0E0CF16F0E7DF06D8
:107EF00018F0F601B7BEE89568D007B600FCFDCFD4
:107F0000A601A0E0B1E02C9130E011968C91119780
:107F100090E0982F8827822B932B1296FA010C0160
:107F200087BEE89511244E5F5F4FF1E0A038BF0790
:107F300051F7F601A7BEE89507B600FCFDCF97BE46
:107F4000E89526C08437B1F42ED02DD0F82E2BD052
:107F50003CD0F601EF2C8F010F5F1F4F84911BD097
:107F6000EA94F801C1F70894C11CD11CFA94CF0C13
:107F7000D11C0EC0853739F428D08EE10CD085E9AC
:107F80000AD08FE07ACF813511F488E018D01DD067
:107F900080E101D065CF982F8091C00085FFFCCF94
:107FA0009093C60008958091C00087FFFCCF809118
:107FB000C00084FD01C0A8958091C6000895E0E648
:107FC000F0E098E1908380830895EDDF803219F02E
:107FD00088E0F5DFFFCF84E1DECF1F93182FE3DFCA
:107FE0001150E9F7F2DF1F91089580E0E8DFEE27F6
:047FF000FF270994CA
:027FFE00040479
:00000001FF
