:020000040000FA
:100000000C9462000C948A000C948A000C948A0070
:100010000C948A000C948A000C948A000C948A0038
:100020000C948A000C948A000C948A000C948A0028
:100030000C948A000C948A000C948A000C948A0018
:100040000C945B050C948A000C9429050C94030510
:100050000C948A000C948A000C948A000C948A00F8
:100060000C94A5050C948A000000000023002600D3
:10007000290000000008000201000003040700003E
:1000800000000000000000000000250028002B00F8
:1000900000000000240027002A00040404040404D3
:1000A0000404020202020202030303030303010227
:1000B00004081020408001020408102001020408F6
:1000C0001020C40611241FBECFEFD8E0DEBFCDBF85
:1000D00023E0A8E6B1E001C01D92AB39B207E1F719
:1000E00011E0A0E0B1E0E4E9FAE102C005900D9270
:1000F000A836B107D9F710E0C2E6D0E004C02197D6
:10010000FE010E94A10AC136D107C9F70E94BB07B0
:100110000C94480D0C94000008950895AF92BF927E
:10012000CF92DF92EF92FF920F931F93CF93DF93C3
:100130006C017B018B01040F151FEB015E01AE18F2
:10014000BF08C017D10759F06991D601ED91FC9114
:100150000190F081E02DC6010995892B79F7C50141
:10016000DF91CF911F910F91FF90EF90DF90CF9093
:10017000BF90AF900895FC01538D448D252F30E042
:10018000842F90E0821B930B541710F0CF960895A4
:1001900001970895FC01918D828D981761F0A28DD1
:1001A000AE0FBF2FB11D5D968C91928D9F5F9F7397
:1001B000928F90E008958FEF9FEF0895FC01918D4D
:1001C000828D981731F0828DE80FF11D858D90E0BA
:1001D00008958FEF9FEF0895FC01918D228D892F57
:1001E00090E0805C9F4F821B91098F73992708953F
:1001F00087E292E00E94EC0021E0892B09F420E0E4
:10020000822F089580E090E0892B29F00E94F80069
:1002100081110C9400000895FC01A48DA80FB92F42
:10022000B11DA35ABF4F2C91848D90E001968F731E
:100230009927848FA689B7892C93A089B1898C913D
:10024000837080648C93938D848D981306C002888C
:10025000F389E02D80818F7D80830895EF92FF9256
:100260000F931F93CF93DF93EC0181E0888F9B8DD9
:100270008C8D98131AC0E889F989808185FF15C093
:100280009FB7F894EE89FF896083E889F9898081B6
:100290008370806480839FBF81E090E0DF91CF9185
:1002A0001F910F91FF90EF900895F62E0B8D10E0A7
:1002B0000F5F1F4F0F731127E02E8C8D8E110CC016
:1002C0000FB607FCFACFE889F989808185FFF5CF61
:1002D000CE010E940C01F1CFEB8DEC0FFD2FF11D33
:1002E000E35AFF4FF0829FB7F8940B8FEA89FB899E
:1002F00080818062CFCFCF93DF93EC01888D8823FC
:10030000B9F0AA89BB89E889F9898C9185FD03C078
:10031000808186FD0DC00FB607FCF7CF8C9185FF5D
:10032000F2CF808185FFEDCFCE010E940C01E9CF95
:10033000DF91CF910895833081F028F4813099F0D6
:100340008230A9F008958730A9F08830C9F0843050
:10035000B1F4809180008F7D03C0809180008F7701
:1003600080938000089584B58F7784BD089584B507
:100370008F7DFBCF8091B0008F778093B000089580
:100380008091B0008F7DF9CF1F93CF93DF93282FFB
:1003900030E0F901EE58FF4F8491F901E255FF4F2B
:1003A000D491F901E656FF4FC491CC23A9F0162F42
:1003B00081110E949B01EC2FF0E0EE0FFF1FEA5726
:1003C000FF4FA591B4918FB7F894EC91111108C02B
:1003D000D095DE23DC938FBFDF91CF911F910895DD
:1003E000DE2BF8CF3FB7F89480911B0290911C024E
:1003F000A0911D02B0911E0226B5A89B05C02F3FFB
:1004000019F00196A11DB11D3FBFBA2FA92F982F3A
:100410008827BC01CD01620F711D811D911D42E035
:10042000660F771F881F991F4A95D1F708958F92FD
:100430009F92AF92BF92CF92DF92EF92FF924B01C9
:100440005C010E94F2016B017C010E94F2016C19B7
:100450007D098E099F09683E734081059105A8F3C7
:1004600021E0821A9108A108B10888EEC80E83E045
:10047000D81EE11CF11C81149104A104B10429F7D8
:10048000FF90EF90DF90CF90BF90AF909F908F90B4
:1004900008952091D001260F3327331F21323105D3
:1004A000ECF42091F401FC0190E080E0243069F04C
:1004B00082E00895A091D0012191AC0140555E4F9A
:1004C000A40FB52FB11D2C930196861798F3809138
:1004D000D001680F6093D00180E0089581E0089515
:1004E0001092F40181E08093F6011092F50161E031
:1004F00082E10E94C40161E083E10E94C401E9EB52
:10050000F0E080818E7F808380818D7F808388E48E
:100510008093B80085E48093BC000895CF93DF9367
:1005200091E09093AF018823B9F0C091B800D091C9
:10053000BA008091BC008A7B8093BC0060E082E1BD
:100540000E94C40160E083E10E94C4010E94700225
:10055000D093BA00C093B800DF91CF910895089569
:10056000E091260280912502E81730F4F0E0E6578A
:10057000FE4F808190E008958FEF9FEF0895909156
:100580002602809125022FEF3FEF981748F4E92FBC
:10059000F0E0E657FE4F208130E09F5F9093260207
:1005A000C90108958091250290912602891B990B1B
:1005B0000895CF92DF92EF92FF920F931F93CF9304
:1005C000DF937C01CB018A0120918901222389F0EC
:1005D000EB016B01C40ED51ECC15DD0569F06991E8
:1005E000D701ED91FC910190F081E02DC7010995B3
:1005F000F3CF642F0E944902C801DF91CF911F9170
:100600000F91FF90EF90DF90CF900895CF93DF93FD
:100610001F92CDB7DEB76983209189012223F9F0BB
:1006200020912302203258F021E030E0FC01338396
:10063000228390E080E00F90DF91CF910895809128
:100640002402E82FF0E0E759FE4F998190838F5FF5
:10065000809324028093230281E090E0ECCF61E05C
:10066000CE0101960E944902F7CFCF92DF92EF921E
:10067000FF920F931F93CF93DF93FC01C48121E07E
:1006800020938901C09368011092240210922302E2
:100690008385682B84EC92E00E940603D0912302AC
:1006A000D13208F092C00E94F2016B017C0180916E
:1006B000F401811165C082E08093F40181E08093B0
:1006C000F6018FEF8093F30110921802D093170276
:1006D000A9E6B1E0E7EFF1E080E0D81385C0109221
:1006E000190280911902CC0FC82BC0931902809176
:1006F000F501813009F07CC01092F5010E94F201F1
:100700006B017C01809119028093BB008091AB0149
:100710009091AC01A091AD01B091AE01892B8A2BD3
:100720008B2B99F00E94F2010091AB011091AC016A
:100730002091AD013091AE016C197D098E099F09A0
:100740000617170728073907E0F18091BC0083FDE1
:10075000D9CF85EC8093BC000E94F2016B017C0133
:100760008091F401823009F445C08091F3018F3FFC
:1007700061F18091F301803241F18091F30125C054
:100780008091AB019091AC01A091AD01B091AE010F
:10079000892B8A2B8B2B09F48ACF0E94F2010091BE
:1007A000AB011091AC012091AD013091AE016C19FB
:1007B0007D098E099F09061717072807390708F0D2
:1007C00076CF8091AA010E948E021092240210928C
:1007D000230210928901DF91CF911F910F91FF9019
:1007E000EF90DF90CF9008959D9191938F5F75CF9B
:1007F00085EEB0CF8091AB019091AC01A091AD019D
:10080000B091AE01892B8A2B8B2B09F4A9CF0E94C2
:10081000F2010091AB011091AC012091AD0130913A
:10082000AE016C197D098E099F0906171707280765
:10083000390708F095CFC5CF089590E080E008957E
:100840000F931F93CF938C01C62F0E9435036C2FFB
:100850006460C8010E9435036C2F6B7FC8010E9441
:10086000350383EC90E00197F1F7CF911F910F9141
:1008700008950F931F93CF93DF938C01D62FC42F2E
:10088000607F642B0E94200480E1D89FB001112476
:100890006C2BC801DF91CF911F910F910C94200414
:1008A00041E00E94390481E090E00895EF92FF92C8
:1008B0001F93CF93DF93CDB7DEB769970FB6F89448
:1008C000DEBF0FBECDBF182F7F936F9388E391E0FB
:1008D0009F938F93CE0101967C019F938F930E94EB
:1008E000A70A812F98E0E0E0F1E0DE015296019046
:1008F0000D929A95E1F79091EA020F900F900F9068
:100900000F900F900F90911710F48FEF890FE82F31
:10091000F0E0EE0FFF1FEE0DFF1D6189606840E003
:1009200082EE92E00E943904F70101900020E9F77D
:100930003197AF014E195F09B70182EE92E00E9434
:100940008E0069960FB6F894DEBF0FBECDBFDF9163
:10095000CF911F91FF90EF90089580919A0381119C
:1009600006C06EE371E081E090E00E94560460E012
:100970008091DC020C94C40180919A03811106C01D
:100980006CE471E081E090E00E94560461E08091A7
:10099000DC020C94C40185ED8093BC008091AB0116
:1009A0009091AC01A091AD01B091AE010796A11D4F
:1009B000B11D23E0B695A795979587952A95D1F710
:1009C0002091BC0024FD03C01092F40108954091D1
:1009D000AB015091AC016091AD017091AE01452B1E
:1009E000462B472B69F30097A105B10541F025E39C
:1009F0002A95F1F700000197A109B109E1CF809193
:100A0000AA010C948E021F920F920FB60F9211241E
:100A10002F933F934F935F936F937F938F939F9306
:100A2000AF93BF93EF93FF9387E292E00E940C0194
:100A3000FF91EF91BF91AF919F918F917F916F91B6
:100A40005F914F913F912F910F900FBE0F901F908C
:100A500018951F920F920FB60F9211242F938F9318
:100A60009F93EF93FF93E0913702F09138028081DA
:100A7000E0913D02F0913E0282FD1BC09081809189
:100A800040028F5F8F7320914102821741F0E09105
:100A90004002F0E0E95DFD4F958F80934002FF91A9
:100AA000EF919F918F912F910F900FBE0F901F90FC
:100AB00018958081F4CF1F920F920FB60F921124D8
:100AC0002F933F938F939F93AF93BF938091D002C7
:100AD0009091D102A091D202B091D30230911A022A
:100AE00023E0230F2D3758F50196A11DB11D20934A
:100AF0001A028093D0029093D102A093D202B093B5
:100B0000D30280911B0290911C02A0911D02B09112
:100B10001E020196A11DB11D80931B0290931C0221
:100B2000A0931D02B0931E02BF91AF919F918F9130
:100B30003F912F910F900FBE0F901F90189526E8B0
:100B4000230F0296A11DB11DD2CF1F920F920FB697
:100B50000F9211242F933F934F935F936F937F9343
:100B60008F939F93AF93BF93EF93FF938091B900BF
:100B7000887F803609F44AC0F0F5883209F4A7C0AE
:100B800018F5803109F49BC0B8F4882309F4F9C042
:100B9000883009F494C0FF91EF91BF91AF919F917C
:100BA0008F917F916F915F914F913F912F910F9016
:100BB0000FBE0F901F901895883109F488C08032BD
:100BC00051F78093F30114C0803409F49DC040F4C0
:100BD0008033B9F38833F9F68093F30185ECB0C024
:100BE000803509F485C0883509F496C0883499F6B3
:100BF0000E94CB04D0CF883909F48CC038F58837EF
:100C000029F050F4883611F0803729F683E080937C
:100C1000F4011092F20157C0883809F47BC0803982
:100C200019F0803809F0B7CF8091F201803208F0D6
:100C300071C0E091F20181E08E0F8093F20180910A
:100C4000BB00F0E0EE52FE4F80833DC0803B39F0A8
:100C5000E0F4803A09F479C0883A09F09CCF84E046
:100C60008093F4011092D1011092D001E091210201
:100C7000F091220209958091D00181110FC081E08D
:100C80008093D0011092B00109C0803C09F4A6CF36
:100C9000883C09F4A3CF883B09F07DCFE091D101D6
:100CA00081E08E0F8093D101F0E0E055FE4F80810E
:100CB0008093BB009091D1018091D00129C0809197
:100CC00019028093BB0085EC8093BC0064CF9091A7
:100CD000180280911702981758F5E091180281E0E8
:100CE0008E0F80931802F0E0E950FE4F8081E9CF2B
:100CF000E091180281E08E0F809318028091BB0072
:100D0000F0E0E950FE4F8083909118028091170225
:100D10009817C8F285E8D8CFE091180281E08E0FCD
:100D2000809318028091BB00F0E0E950FE4F808371
:100D30008091F60181115CCF81E08093F50184EA16
:100D40008093BC001092F40126CF85EC8093BC0008
:100D50001092F4018091F201803230F4E091F201BE
:100D6000F0E0EE52FE4F10826091F20170E0E091EF
:100D70001F02F091200282ED91E009951092F2019C
:100D80000ACF1092F30134CFCF93DF9310922A024F
:100D90001092290288EE93E0A0E0B0E080932B024D
:100DA00090932C02A0932D02B0932E022CE031E000
:100DB000309328022093270225EC30E03093340250
:100DC0002093330224EC30E0309336022093350236
:100DD00020EC30E0309338022093370221EC30E0F1
:100DE00030933A022093390222EC30E030933C02F7
:100DF00020933B0226EC30E030933E0220933D02EC
:100E0000109240021092410210924202109243024C
:100E10001092C7021092C6028093C8029093C90232
:100E2000A093CA02B093CB028EE191E09093C502E9
:100E30008093C40280E092ECA1E0B0E08093DE02F7
:100E40009093DF02A093E002B093E1021092E502DA
:100E50001092E40280E391E09093E3028093E20237
:100E600087E28093E60280E18093EB0282E0809348
:100E7000EC021092ED028FB7F8944091D00250919D
:100E8000D1026091D2027091D3028FBFCAE7D3E042
:100E9000E6E1F3E02EEE32E0199211921192D901BF
:100EA0004D935D936D937D939D01CF01825B9F4F29
:100EB000DC011D921C92B3E0EA32FB0769F7109245
:100EC00099031092980310929A0388E090E090930F
:100ED000DD028093DC02E6EBF0E02491E2EAF0E050
:100EE0008491882399F090E0880F991FFC01E057C6
:100EF000FF4FA591B491FC01EA57FF4F8591949162
:100F00008FB7F894EC91E22BEC938FBF87E090E0E1
:100F10009093D5028093D402E5EBF0E02491E1EACE
:100F2000F0E084918823C1F090E0880F991FFC01C4
:100F3000E057FF4FC591D491FC01EA57FF4FA591AF
:100F4000B4919FB7F8948881E22FE0958E2388832F
:100F50008C91E823EC939FBF1092D7021092D60297
:100F60001092D9021092D8021092DB021092DA028B
:100F7000DF91CF910895CF93DF9300D000D0CDB70C
:100F8000DEB7789484B5826084BD84B5816084BD09
:100F900085B5826085BD85B5816085BD80916E0017
:100FA000816080936E001092810080918100826048
:100FB0008093810080918100816080938100809185
:100FC00080008160809380008091B1008460809374
:100FD000B1008091B00081608093B00080917A0070
:100FE000846080937A0080917A00826080937A0096
:100FF00080917A00816080937A0080917A00806885
:1010000080937A001092C100C090DE02D090DF027F
:10101000E090E002F090E10260E079E08DE390E0A2
:10102000A70196010E947F0A215031094109510907
:101030005695479537952795E0913702F0913802FC
:1010400082E08083C11441EED406E104F10421F072
:10105000211580E13807A8F0E0913702F0913802BD
:10106000108260E874E88EE190E0A70196010E948A
:101070007F0A215031094109510956954795379505
:101080002795E0913302F09134023083E0913502EC
:10109000F0913602208310923F02E0913B02F091E2
:1010A0003C0286E08083E0913902F0913A0280812F
:1010B00080618083E0913902F0913A0280818860FA
:1010C0008083E0913902F0913A02808180688083C8
:1010D000E0913902F0913A0280818F7D8083809186
:1010E0009A03811189C01092260210922502109253
:1010F0002402109223020E9470028CE890E09093E8
:101100002202809321028DE890E090932002809348
:101110001F021092E7028091EC02823018F098E0F2
:101120009093E7028093EA0262E370E080E090E04F
:101130000E9417026091ED0282EE92E00E94350358
:1011400068EE73E080E090E00E94170260E382EEB8
:1011500092E00E9420048BE496E40197F1F760E3AB
:1011600082EE92E00E942004ABE4B6E41197F1F71E
:1011700060E382EE92E00E94200483E592E0019712
:10118000F1F760E282EE92E00E9420046091E702B3
:10119000606240E082EE92E00E94390484E0809335
:1011A000E80240E06CE082EE92E00E94390440E008
:1011B00061E082EE92E00E9439048BE39FE10197A7
:1011C000F1F782E08093E90240E066E082EE92E08F
:1011D0000E94390440E062E082EE92E00E9439040D
:1011E000EBE3FFE13197F1F788E08093ED0260E0F7
:1011F00082EE92E00E94350380919A03811106C02D
:101200006DE571E090E080E00E9456048CEB94E084
:101210009093D9028093D8028DEA94E09093DB02F8
:101220008093DA0201E010E022242394312C8FB75E
:10123000F8948090D0029090D102A090D202B09009
:10124000D3028FBFE6E1F3E02EED32E03C832B8347
:101250003A83298390E080E0AF0142595F4FDA0181
:101260001D921C92208131813296232BD1F1A981CC
:10127000BA8150964D915D916D917C9153979D01EE
:10128000245B3F4FD901CD90DD90ED90FC9024017F
:101290003501441A550A660A770A4C145D046E0437
:1012A0007F04F8F04C0D5D1D6E1D7F1DA981BA8174
:1012B00050964D935D936D937C9353979C01265864
:1012C0003C4FD9012C91222361F022AD33AD211581
:1012D000310509F072C09F0124593F4FD9010D9388
:1012E0001C930196A981BA811496BA83A9838A3086
:1012F000910509F0B1CFF12CE12CCB80DC80B6EA6E
:10130000CB0ED11CF601808191818130910509F4C9
:1013100074C0029709F478C0BFEFEB1AFB0AEB81A7
:10132000FC813296FC83EB83FAE0EF16F10429F797
:101330002091D4023091D5023327F901EE58FF4FA6
:101340008491F901E255FF4F44914983F901E65632
:10135000FF4F94919B83992309F48AC081110E94C5
:101360009B01AB81EA2FF0E0EE0FFF1FE859FF4F22
:10137000A591B491EC91B981BE2309F479C0809113
:10138000D6029091D702892B59F43092D70220923D
:10139000D602E091D802F091D902309709F0099570
:1013A000E0E0F0E0EF2B09F442CF0E94F800882340
:1013B00009F43DCF0E9400003ACF7F01BEE4EB0E5E
:1013C000F11CD7016D917C91621773070CF089CFE6
:1013D000AF0144595F4FDA010D931C936F5F7F4F4C
:1013E000D7016D937C93621773070CF47ACF22E0D8
:1013F00030E0DA012D933C9374CFAB81BC81D89659
:10140000ED91FC91099588CFAB81BC81D896ED9187
:10141000FC9109958091980390919903009709F4A4
:101420007BCFEB81FC8120AD31AD232B09F474CF50
:1014300011AE10AEF701E658FC4F1082D6011D9296
:101440001C92F701EE0FFF1FEE0FFF1FE65DFC4F32
:101450001082118212821382EB81FC81E857FF4FC8
:10146000118210820197909399038093980354CF2F
:101470008091D6029091D702019709F091CF1092F6
:10148000D7021092D602E091DA02F091DB0285CF0A
:101490002F923F924F925F926F927F928F929F9284
:1014A000AF92BF92CF92DF92EF92FF920F931F9372
:1014B000CF93DF93CDB7DEB7CA1BDB0B0FB6F89423
:1014C000DEBF0FBECDBF09942A88398848885F8463
:1014D0006E847D848C849B84AA84B984C884DF80D4
:1014E000EE80FD800C811B81AA81B981CE0FD11DB8
:1014F0000FB6F894DEBF0FBECDBFED010895A1E297
:101500001A2EAA1BBB1BFD010DC0AA1FBB1FEE1F7D
:10151000FF1FA217B307E407F50720F0A21BB30BC8
:10152000E40BF50B661F771F881F991F1A9469F744
:1015300060957095809590959B01AC01BD01CF01A0
:101540000895EE0FFF1F0590F491E02D0994AEE091
:10155000B0E0EDEAFAE00C94560A0D891E8986E0A7
:101560008C831A8309838FEF9FE79E838D83AE015F
:10157000475E5F4F6F89788DCE0101960E94CA0A3F
:101580002F813885020F131FF80110822E96E4E098
:101590000C94720AABE0B0E0E0EDFAE00C94480A7B
:1015A0007C013B018A01FC0117821682838181FF45
:1015B000C8C1CE0101965C01F7019381F30193FD4F
:1015C000859193FF81913F01882309F453C18532AE
:1015D00039F493FD859193FF81913F01853229F480
:1015E000B70190E00E94BA0CE7CF912C212C312C4E
:1015F000FFE1F31538F08B3211F190F4803209F1EC
:10160000833229F137FC3CC020ED280F2A3050F5F9
:1016100036FE20C08AE0989E200D1124922E06C02E
:101620008D3291F0803371F7689430F8F30193FDB7
:10163000859193FF81913F018111DACF21C0689498
:1016400031F8689432F8F2CF689433F8EFCF6894A9
:1016500034F8ECCFEAE02E9E200D1124222E68945F
:1016600035F8E4CF8E3229F436FC04C1689436F89C
:10167000DDCF8C3619F4689437F8D8CF8836B1F2BC
:10168000982F9F7D95549330E0F08336A1F18337F6
:10169000C1F1833509F063C02801F2E04F0E511CFF
:1016A000F801C080D180692D70E036FC02C06FEF78
:1016B0007FEFC6010E94A40C4C01689437F88201A8
:1016C0000AC00C5F1F4FFFE3F98388248394912C99
:1016D0006501E89437F833FE2DC0522C8114910433
:1016E00071F5552009F468CFB70180E290E00E94BF
:1016F000BA0C5A94F6CFF801808189830E5F1F4F90
:10170000E4CF2801F2E04F0E511CF801C080D180D7
:10171000692D70E036FC02C06FEF7FEFC6010E94BA
:10172000AF0C4C018201D5CFB70180E290E00E945E
:10173000BA0C2A942814190409F0B0F7CECFF60198
:1017400037FC859137FE81916F01B70190E00E94CF
:10175000BA0C51105A94F1E08F1A9108BFCF843619
:1017600019F0893609F077C0F80137FE6BC0608147
:101770007181828193810C5F1F4FF32DFF763F2E85
:1017800097FF09C090958095709561957F4F8F4F19
:101790009F4F689437F82AE030E0A5010E94EA0CD8
:1017A000C82ECA188C2C432C36FE0CC0E89440F886
:1017B000C91440F434FE05C032FC03C0F32DFE7E94
:1017C0004F2E892C44FE95C0FE01EC0DF11D808149
:1017D000803309F087C0242D297E422E842D887005
:1017E000582E43FC95C040FE8FC09C2C821418F4E8
:1017F0002C0C922C981844FE91C0B70180E390E025
:101800000E94BA0C42FE09C088E790E041FE02C087
:1018100088E590E0B7010E94BA0CC91408F48AC0A8
:10182000CA94D12C9FEFC91AD90ACA0CDB1CF60145
:1018300082916F01B70190E00E94BA0CAC14BD0414
:10184000B1F74FCF60817181072E000C880B990B87
:101850000E5F1F4F92CFD32CE894D4F82AE030E0EB
:10186000853739F1232D297FD22E8F3601F148F4A7
:101870008835A9F0F701868197812B96E2E10C94D7
:10188000640A803749F08837A9F7D4FE02C068940B
:10189000D2F820E130E00DC06894D4F8F6CF34FEE1
:1018A00003C0822F8660D82E20E132E002C028E0FB
:1018B00030E0F801D7FE0FC0608171818281938191
:1018C0000C5F1F4FA5010E94EA0CC82ECA183D2CC0
:1018D000E89437F867CF6081718190E080E00E5F17
:1018E0001F4FF0CF42FC02C0839478CF839483943F
:1018F00075CF842D867809F471CFF6CFB70180E2D9
:1019000090E00E94BA0C83948214C0F3512C73CFE0
:10191000522C5818821408F46ECFF8CF842D867894
:1019200009F47BCF8BE241FE80E247FC8DE2B701F8
:1019300090E071CFB70180E390E00E94BA0C9A94D6
:101940006CCF8FEF9FEF99CFFC01059061507040F5
:101950000110D8F7809590958E0F9F1F0895FC0178
:101960006150704001900110D8F7809590958E0FCE
:101970009F1F08950F931F93CF93DF93182F092F65
:10198000EB018B8181FD09C01FEF0FEF812F902F9D
:10199000DF91CF911F910F91089582FF14C02E8186
:1019A0003F818C819D81281739073CF4E881F981BA
:1019B000CF0101969983888310838E819F81019640
:1019C0009F838E83E3CFE885F985812F0995892B45
:1019D000A1F3DACFFA01AA27283051F1203181F1A1
:1019E000E8946F936E7F6E5F7F4F8F4F9F4FAF4F27
:1019F000B1E03ED0B4E03CD0670F781F891F9A1F3A
:101A0000A11D680F791F8A1F911DA11D6A0F711DED
:101A1000811D911DA11D20D009F468943F912AE0F9
:101A2000269F11243019305D3193DEF6CF010895E1
:101A3000462F4770405D4193B3E00FD0C9F7F6CF12
:101A4000462F4F70405D4A3318F0495D31FD4052DA
:101A5000419302D0A9F7EACFB4E0A6959795879570
:101A600077956795BA95C9F700976105710508954F
:101A70009B01AC010A2E06945795479537952795FB
:101A8000BA95C9F7620F731F841F951FA01D089593
:101A9000F894FFCF00004000140054000000000044
:101AA0002E018E00BB007B01EC00CA00DE000000AE
:101AB00000000603D9021D04AF02D202BF02B00229
:101AC0000000000050048E001D041C04252D31363A
:101AD00073004D6F74696F6E20656E6465642100DC
:101AE0004D6F74696F6E20646574656374656421FD
:0C1AF000005B5B4D6F74696F6E5D5D0004
:107E0000112484B714BE81FFF0D085E080938100F7
:107E100082E08093C00088E18093C10086E0809377
:107E2000C20080E18093C4008EE0C9D0259A86E02C
:107E300020E33CEF91E0309385002093840096BBD3
:107E4000B09BFECF1D9AA8958150A9F7CC24DD24C4
:107E500088248394B5E0AB2EA1E19A2EF3E0BF2EE7
:107E6000A2D0813461F49FD0082FAFD0023811F036
:107E7000013811F484E001C083E08DD089C08234E0
:107E800011F484E103C0853419F485E0A6D080C0E4
:107E9000853579F488D0E82EFF2485D0082F10E0AE
:107EA000102F00270E291F29000F111F8ED06801E7
:107EB0006FC0863521F484E090D080E0DECF843638
:107EC00009F040C070D06FD0082F6DD080E0C81688
:107ED00080E7D80618F4F601B7BEE895C0E0D1E017
:107EE00062D089930C17E1F7F0E0CF16F0E7DF06D8
:107EF00018F0F601B7BEE89568D007B600FCFDCFD4
:107F0000A601A0E0B1E02C9130E011968C91119780
:107F100090E0982F8827822B932B1296FA010C0160
:107F200087BEE89511244E5F5F4FF1E0A038BF0790
:107F300051F7F601A7BEE89507B600FCFDCF97BE46
:107F4000E89526C08437B1F42ED02DD0F82E2BD052
:107F50003CD0F601EF2C8F010F5F1F4F84911BD097
:107F6000EA94F801C1F70894C11CD11CFA94CF0C13
:107F7000D11C0EC0853739F428D08EE10CD085E9AC
:107F80000AD08FE07ACF813511F488E018D01DD067
:107F900080E101D065CF982F8091C00085FFFCCF94
:107FA0009093C60008958091C00087FFFCCF809118
:107FB000C00084FD01C0A8958091C6000895E0E648
:107FC000F0E098E1908380830895EDDF803219F02E
:107FD00088E0F5DFFFCF84E1DECF1F93182FE3DFCA
:107FE0001150E9F7F2DF1F91089580E0E8DFEE27F6
:047FF000FF270994CA
:027FFE00040479
:00000001FF
