:020000040000FA
:100000000C9462000C948A000C948A000C948A0070
:100010000C948A000C948A000C948A000C948A0038
:100020000C948A000C948A000C948A000C948A0028
:100030000C948A000C948A000C948A000C948A0018
:100040000C9448050C948A000C9416050C94F0044A
:100050000C948A000C948A000C948A000C948A00F8
:100060000C9492050C948A00000000080002010024
:100070000003040700000000000000000000000072
:1000800023002600290000000000250028002B0086
:1000900000000000240027002A00040404040404D3
:1000A0000404020202020202030303030303010227
:1000B00004081020408001020408102001020408F6
:1000C0001020F60611241FBECFEFD8E0DEBFCDBF53
:1000D00023E0A0E6B1E001C01D92A539B207E1F727
:1000E00011E0A0E0B1E0ECE3FBE102C005900D926D
:1000F000A036B107D9F710E0C2E6D0E004C02197DE
:10010000FE010E94F50AC136D107C9F70E94ED072A
:100110000C949C0D0C94000008950895AF92BF922A
:10012000CF92DF92EF92FF920F931F93CF93DF93C3
:100130006C017B018B01040F151FEB015E01AE18F2
:10014000BF08C017D10759F06991D601ED91FC9114
:100150000190F081E02DC6010995892B79F7C50141
:10016000DF91CF911F910F91FF90EF90DF90CF9093
:10017000BF90AF900895FC01538D448D252F30E042
:10018000842F90E0821B930B541710F0CF960895A4
:1001900001970895FC01918D828D981761F0A28DD1
:1001A000AE0FBF2FB11D5D968C91928D9F5F9F7397
:1001B000928F90E008958FEF9FEF0895FC01918D4D
:1001C000828D981731F0828DE80FF11D858D90E0BA
:1001D00008958FEF9FEF0895FC01918D228D892F57
:1001E00090E0805C9F4F821B91098F73992708953F
:1001F0008FE192E00E94EC0021E0892B09F420E0DD
:10020000822F089580E090E0892B29F00E94F80069
:1002100081110C9400000895FC01A48DA80FB92F42
:10022000B11DA35ABF4F2C91848D90E001968F731E
:100230009927848FA689B7892C93A089B1898C913D
:10024000837080648C93938D848D981306C002888C
:10025000F389E02D80818F7D80830895EF92FF9256
:100260000F931F93CF93DF93EC0181E0888F9B8DD9
:100270008C8D98131AC0E889F989808185FF15C093
:100280009FB7F894EE89FF896083E889F9898081B6
:100290008370806480839FBF81E090E0DF91CF9185
:1002A0001F910F91FF90EF900895F62E0B8D10E0A7
:1002B0000F5F1F4F0F731127E02E8C8D8E110CC016
:1002C0000FB607FCFACFE889F989808185FFF5CF61
:1002D000CE010E940C01F1CFEB8DEC0FFD2FF11D33
:1002E000E35AFF4FF0829FB7F8940B8FEA89FB899E
:1002F00080818062CFCFCF93DF93EC01888D8823FC
:10030000B9F0AA89BB89E889F9898C9185FD03C078
:10031000808186FD0DC00FB607FCF7CF8C9185FF5D
:10032000F2CF808185FFEDCFCE010E940C01E9CF95
:10033000DF91CF91089590E0FC01E859FF4F24919F
:10034000FC01E255FF4F3491FC01E656FF4FE4916A
:10035000EE23C9F0222339F0233001F1A8F4213033
:1003600019F1223029F1F0E0EE0FFF1FEA57FF4F9D
:10037000A591B4918FB7F894EC91611126C0309596
:100380003E233C938FBF08952730A9F02830C9F051
:10039000243049F7809180008F7D03C080918000D8
:1003A0008F7780938000DFCF84B58F7784BDDBCFDC
:1003B00084B58F7DFBCF8091B0008F778093B000A4
:1003C000D2CF8091B0008F7DF9CF3E2BDACF3FB7EF
:1003D000F8948091130290911402A0911502B091AB
:1003E000160226B5A89B05C02F3F19F00196A11D46
:1003F000B11D3FBFBA2FA92F982F8827BC01CD016F
:10040000620F711D811D911D42E0660F771F881FCD
:10041000991F4A95D1F708958F929F92AF92BF92FC
:10042000CF92DF92EF92FF924B015C010E94E701B5
:100430006B017C010E94E7016C197D098E099F09FF
:10044000683E734081059105A8F321E0821A910866
:10045000A108B10888EEC80E83E0D81EE11CF11C8B
:1004600081149104A104B10429F7FF90EF90DF906B
:10047000CF90BF90AF909F908F9008952091C8012A
:10048000260F3327331F21323105ECF42091EC0184
:10049000FC0190E080E0243069F082E00895A091B2
:1004A000C8012191AC0148555E4FA40FB52FB11D75
:1004B0002C930196861798F38091C801680F60937A
:1004C000C80180E0089581E008951092EC0181E078
:1004D0008093EE011092ED0161E082E10E949B01A8
:1004E00061E083E10E949B01E9EBF0E080818E7F77
:1004F000808380818D7F808388E48093B80085E449
:100500008093BC000895CF93DF9391E09093A7016F
:100510008823B9F0C091B800D091BA008091BC0096
:100520008A7B8093BC0060E082E10E949B0160E0D6
:1005300083E10E949B010E946502D093BA00C093A0
:10054000B800DF91CF9108950895E0911E02809147
:100550001D02E81730F4F0E0EE57FE4F808190E086
:1005600008958FEF9FEF089590911E0280911D02D4
:100570002FEF3FEF981748F4E92FF0E0EE57FE4FCA
:10058000208130E09F5F90931E02C9010895809101
:100590001D0290911E02891B990B0895CF92DF9244
:1005A000EF92FF920F931F93CF93DF937C01CB01C8
:1005B0008A0120918101222389F0EB016B01C40E95
:1005C000D51ECC15DD0569F06991D701ED91FC913F
:1005D0000190F081E02DC7010995F3CF642F0E94AF
:1005E0003E02C801DF91CF911F910F91FF90EF90D4
:1005F000DF90CF900895CF93DF931F92CDB7DEB7F2
:100600006983209181012223F9F020911B0220327D
:1006100058F021E030E0FC013383228390E080E059
:100620000F90DF91CF91089580911C02E82FF0E0A8
:10063000EF59FE4F998190838F5F80931C028093C6
:100640001B0281E090E0ECCF61E0CE0101960E94B8
:100650003E02F7CFCF92DF92EF92FF920F931F935C
:10066000CF93DF93FC01C48121E020938101C093EB
:10067000600110921C0210921B028385682B8CEB88
:1006800092E00E94FB02D0911B02D13208F092C08E
:100690000E94E7016B017C018091EC01811165C032
:1006A00082E08093EC0181E08093EE018FEF8093F4
:1006B000EB0110921002D0930F02A1E6B1E0EFEE31
:1006C000F1E080E0D81385C01092110280911102F0
:1006D000CC0FC82BC09311028091ED01813009F03D
:1006E0007CC01092ED010E94E7016B017C018091BA
:1006F00011028093BB008091A3019091A401A0916D
:10070000A501B091A601892B8A2B8B2B99F00E9411
:10071000E7010091A3011091A4012091A50130915E
:10072000A6016C197D098E099F090617170728076E
:100730003907E0F18091BC0083FDD9CF85EC80932F
:10074000BC000E94E7016B017C018091EC018230CA
:1007500009F445C08091EB018F3F61F18091EB017D
:10076000803241F18091EB0125C08091A3019091ED
:10077000A401A091A501B091A601892B8A2B8B2BF6
:1007800009F48ACF0E94E7010091A3011091A4010E
:100790002091A5013091A6016C197D098E099F0950
:1007A000061717072807390708F076CF8091A201AE
:1007B0000E94830210921C0210921B02109281016F
:1007C000DF91CF911F910F91FF90EF90DF90CF902D
:1007D00008959D9191938F5F75CF85EEB0CF8091F5
:1007E000A3019091A401A091A501B091A601892B2C
:1007F0008A2B8B2B09F4A9CF0E94E7010091A3015A
:100800001091A4012091A5013091A6016C197D09D8
:100810008E099F09061717072807390708F095CF93
:10082000C5CF089590E080E0089585ED8093BC00E9
:100830008091A3019091A401A091A501B091A6017E
:100840000796A11DB11D23E0B695A79597958795AD
:100850002A95D1F72091BC0024FD03C01092EC0131
:1008600008954091A3015091A4016091A501709158
:10087000A601452B462B472B69F30097A105B1052F
:1008800041F025E32A95F1F700000197A109B1098C
:10089000E1CF8091A2010C9483020F931F93CF9319
:1008A0008C01C62F0E942A036C2F6460C8010E942D
:1008B0002A036C2F6B7FC8010E942A0383EC90E00F
:1008C0000197F1F7CF911F910F9108950F931F9307
:1008D000CF93DF938C01D62FC42F607F642B0E94AF
:1008E0004D0480E1D89FB00111246C2BC801DF9129
:1008F000CF911F910F910C944D04EF92FF921F9393
:10090000CF93DF93CDB7DEB769970FB6F894DEBF0C
:100910000FBECDBF182F7F936F9388E391E09F9315
:100920008F93CE0101967C019F938F930E94FB0AC7
:10093000812F98E0E0E0F1E0DE01529601900D9207
:100940009A95E1F79091E4020F900F900F900F901D
:100950000F900F90911710F48FEF890FE82FF0E0B0
:10096000EE0FFF1FEE0DFF1D6189606840E08CED0A
:1009700092E00E946604F70101900020E9F73197A8
:10098000AF014E195F09B7018CED92E00E948E0015
:1009900069960FB6F894DEBF0FBECDBFDF91CF9141
:1009A0001F91FF90EF90089580919403811106C0EC
:1009B0006EE371E081E090E00C947D0408958091F5
:1009C0009403811106C069E471E081E090E00C9429
:1009D0007D04089541E00E94660481E090E008955E
:1009E0001F920F920FB60F9211242F933F934F93A4
:1009F0005F936F937F938F939F93AF93BF93EF9387
:100A0000FF938FE192E00E940C01FF91EF91BF9163
:100A1000AF919F918F917F916F915F914F913F9196
:100A20002F910F900FBE0F901F9018951F920F924D
:100A30000FB60F9211242F938F939F93EF93FF93F1
:100A4000E0912F02F09130028081E0913502F09127
:100A5000360282FD1BC09081809138028F5F8F73B8
:100A600020913902821741F0E0913802F0E0E15E16
:100A7000FD4F958F80933802FF91EF919F918F9159
:100A80002F910F900FBE0F901F9018958081F4CF7B
:100A90001F920F920FB60F9211242F933F938F93B3
:100AA0009F93AF93BF938091C8029091C902A09188
:100AB000CA02B091CB023091120223E0230F2D37EE
:100AC00058F50196A11DB11D209312028093C80212
:100AD0009093C902A093CA02B093CB0280911302F3
:100AE00090911402A0911502B09116020196A11DD9
:100AF000B11D8093130290931402A0931502B0933A
:100B00001602BF91AF919F918F913F912F910F90BE
:100B10000FBE0F901F90189526E8230F0296A11D77
:100B2000B11DD2CF1F920F920FB60F9211242F93A7
:100B30003F934F935F936F937F938F939F93AF9365
:100B4000BF93EF93FF938091B900887F803609F4BB
:100B50004AC0F0F5883209F4A7C018F5803109F4CD
:100B60009BC0B8F4882309F4F9C0883009F494C014
:100B7000FF91EF91BF91AF919F918F917F916F9175
:100B80005F914F913F912F910F900FBE0F901F904B
:100B90001895883109F488C0803251F78093EB01B1
:100BA00014C0803409F49DC040F48033B9F3883315
:100BB000F9F68093EB0185ECB0C0803509F485C06F
:100BC000883509F496C0883499F60E941504D0CF70
:100BD000883909F48CC038F5883729F050F4883604
:100BE00011F0803729F683E08093EC011092EA013E
:100BF00057C0883809F47BC0803919F0803809F073
:100C0000B7CF8091EA01803208F071C0E091EA012B
:100C100081E08E0F8093EA018091BB00F0E0E65303
:100C2000FE4F80833DC0803B39F0E0F4803A09F408
:100C300079C0883A09F09CCF84E08093EC0110924F
:100C4000C9011092C801E0911902F0911A020995A8
:100C50008091C80181110FC081E08093C80110927A
:100C6000A80109C0803C09F4A6CF883C09F4A3CFB1
:100C7000883B09F07DCFE091C90181E08E0F809320
:100C8000C901F0E0E855FE4F80818093BB00909150
:100C9000C9018091C80129C0809111028093BB00D5
:100CA00085EC8093BC0064CF9091100280910F027C
:100CB000981758F5E091100281E08E0F8093100292
:100CC000F0E0E151FE4F8081E9CFE091100281E038
:100CD0008E0F809310028091BB00F0E0E151FE4F37
:100CE00080839091100280910F029817C8F285E8D6
:100CF000D8CFE091100281E08E0F80931002809196
:100D0000BB00F0E0E151FE4F80838091EE01811144
:100D10005CCF81E08093ED0184EA8093BC00109267
:100D2000EC0126CF85EC8093BC001092EC01809101
:100D3000EA01803230F4E091EA01F0E0E653FE4F40
:100D400010826091EA0170E0E0911702F0911802C0
:100D50008AEC91E009951092EA010ACF1092EB011A
:100D600034CFCF92DF92EF92FF920F931F93E82F31
:100D7000F92F05C0015011092109310961F1908154
:100D800096239417B9F305C00150110921093109BF
:100D900011F1908196239413F7CFC12CD12CE12C23
:100DA000F12C0AC08FEFC81AD80AE80AF80A0C1505
:100DB0001D052E053F0579F080818623841791F368
:100DC0006C2D7D2D8E2D9F2D1F910F91FF90EF90FB
:100DD000DF90CF90089560E070E080E090E01F9198
:100DE0000F91FF90EF90DF90CF900895CF93DF9316
:100DF000109222021092210288EE93E0A0E0B0E06F
:100E00008093230290932402A0932502B09326029C
:100E10002CE031E03093200220931F0225EC30E0DB
:100E200030932C0220932B0224EC30E030932E02DE
:100E300020932D0220EC30E03093300220932F02DB
:100E400021EC30E0309332022093310222EC30E08A
:100E5000309334022093330226EC30E03093360294
:100E600020933502109238021092390210923A0201
:100E700010923B021092BF021092BE028093C002F9
:100E80009093C102A093C202B093C3028EE191E09D
:100E90009093BD028093BC0280E092ECA1E0B0E0B0
:100EA0008093D8029093D902A093DA02B093DB0228
:100EB0001092DF021092DE0280E391E09093DD0257
:100EC0008093DC0287E28093E00280E18093E50278
:100ED00082E08093E6021092E7028FB7F894409187
:100EE000C8025091C9026091CA027091CB028FBFB3
:100EF000C4E7D3E0E0E1F3E028EE32E0199211928A
:100F00001192D9014D935D936D937D939D01CF0116
:100F1000825B9F4FDC011D921C92B3E0E432FB0721
:100F200069F710929303109292031092940385E054
:100F300090E09093CD028093CC0286E090E0909375
:100F4000CF028093CE02E3EBF0E02491EFE9F0E0F2
:100F500084918823C1F090E0880F991FFC01E0572D
:100F6000FF4FC591D491FC01EA57FF4FA591B49171
:100F70009FB7F8948881E22FE0958E2388838C9127
:100F8000E823EC939FBFE4EBF0E02491E0EAF0E08B
:100F90008491882399F090E0880F991FFC01E05715
:100FA000FF4FA591B491FC01EA57FF4F85919491B1
:100FB0008FB7F894EC91E22BEC938FBF1092D30291
:100FC0001092D2021092D5021092D4021092D7023F
:100FD0001092D602DF91CF910895CF93DF9300D086
:100FE00000D0CDB7DEB7789484B5826084BD84B577
:100FF000816084BD85B5826085BD85B5816085BD14
:1010000080916E00816080936E00109281008091CB
:101010008100826080938100809181008160809353
:101020008100809180008160809380008091B10078
:1010300084608093B1008091B00081608093B000A3
:1010400080917A00846080937A0080917A00826037
:1010500080937A0080917A00816080937A008091F9
:101060007A00806880937A001092C100C090D80204
:10107000D090D902E090DA02F090DB0260E079E0F3
:101080008DE390E0A70196010E94D30A2150310917
:10109000410951095695479537952795E0912F02BB
:1010A000F091300282E08083C11481EED806E10421
:1010B000F10421F0211590E13907A8F0E0912F0209
:1010C000F0913002108260E874E88EE190E0A701B0
:1010D00096010E94D30A21503109410951095695C0
:1010E000479537952795E0912B02F0912C0230839C
:1010F000E0912D02F0912E02208310923702E091B0
:101100003302F091340286E08083E0913102F09165
:101110003202808180618083E0913102F09132025D
:10112000808188608083E0913102F0913202808179
:1011300080688083E0913102F091320280818F7D5E
:10114000808380919403811189C010921E021092B5
:101150001D0210921C0210921B020E9465028CE874
:1011600090E090931A02809319028DE890E090939A
:101170001802809317021092E1028091E6028230F9
:1011800018F098E09093E1028093E40262E370E04B
:1011900080E090E00E940C026091E7028CED92E00A
:1011A0000E942A0368EE73E080E090E00E940C0247
:1011B00060E38CED92E00E944D048BE496E401978D
:1011C000F1F760E38CED92E00E944D04ABE4B6E4ED
:1011D0001197F1F760E38CED92E00E944D0483E5F6
:1011E00092E00197F1F760E28CED92E00E944D04ED
:1011F0006091E102606240E08CED92E00E94660442
:1012000084E08093E20240E06CE08CED92E00E948A
:10121000660440E061E08CED92E00E9466048BE39E
:101220009FE10197F1F782E08093E30240E066E0FE
:101230008CED92E00E94660440E062E08CED92E06A
:101240000E946604EBE3FFE13197F1F788E08093B9
:10125000E70260E08CED92E00E942A038091940303
:10126000811106C063E571E090E080E00E947D049A
:1012700088E290E09093D1028093D0028FED94E0C9
:101280009093D3028093D20284ED94E09093D502A0
:101290008093D40222242394312C8FB7F894C090E9
:1012A000C802D090C902E090CA02F090CB028FBF72
:1012B000E0E1F3E088ED92E09C838B839A8389835D
:1012C00010E000E09F0122593F4FD9011D921C926E
:1012D000808191813296892BC9F1A981BA8150967A
:1012E0004D915D916D917C915397CD01845B9F4FA2
:1012F000DC018D909D90AD90BC9026013701441A81
:10130000550A660A770A481459046A047B04F0F007
:10131000480D591D6A1D7B1DA981BA8150964D93B8
:101320005D936D937C935397C8018C589C4FDC015F
:101330008C91882359F082AD93AD009709F08DC050
:10134000CF0184599F4FDC012D923C920F5F1F4FBC
:10135000A981BA811496BA83A9830A30110509F0CC
:10136000B1CF10E000E0EB80FC80B6EAEB0EF11CA0
:10137000F701808191818130910509F48DC0029738
:1013800009F491C00F5F1F4FEB81FC813296FC8303
:10139000EB830A30110539F761E08091CE020E949B
:1013A0009B0183E290E00197F1F760E08091CE022B
:1013B0000E949B018091CC029091CD029927FC0163
:1013C000E255FF4F6491FC01E656FF4FE491F0E0D7
:1013D000EE0FFF1FE458FF4F8591949100E412E453
:1013E0002FE030E0462F0E94B1066115710581059E
:1013F000910529F06F5F7F4F8F4F9F4F9F702AE3BA
:1014000030E040E050E00E94D30A8091D6029091F3
:10141000D702892B09F07BC08091D0029091D10234
:10142000821793076CF081E090E09093D70280934D
:10143000D602E091D202F091D302309709F00995DB
:10144000A0E0B0E0AB2B09F428CF0E94F80088237D
:1014500009F423CF0E94000020CFBF01625B7F4FC1
:10146000DB014D915C91481759070CF06FCF9F013C
:1014700024593F4FD9012D923C924F5F5F4FDB01C2
:101480004D935C93481759070CF460CF82E090E0CD
:10149000D9018D939C935ACFAB81BC81D896ED91A5
:1014A000FC9109956FCFAB81BC81D896ED91FC91F1
:1014B00009958091920390919303009709F462CF6C
:1014C000EB81FC8120AD31AD232B09F45BCF11AE54
:1014D00010AEF801EC58FC4F1082D7011D921C92FF
:1014E000F801EE0FFF1FEE0FFF1FEC5DFC4F1082A7
:1014F000118212821382EB81FC81E857FF4F118227
:101500001082019790939303809392033BCF211510
:10151000310549F08091D0029091D1020296821754
:1015200093070CF08DCF1092D7021092D602E09163
:10153000D402F091D50281CF2F923F924F925F92C9
:101540006F927F928F929F92AF92BF92CF92DF92D3
:10155000EF92FF920F931F93CF93DF93CDB7DEB738
:10156000CA1BDB0B0FB6F894DEBF0FBECDBF0994CC
:101570002A88398848885F846E847D848C849B8423
:10158000AA84B984C884DF80EE80FD800C811B8131
:10159000AA81B981CE0FD11D0FB6F894DEBF0FBE60
:1015A000CDBFED010895A1E21A2EAA1BBB1BFD01C0
:1015B0000DC0AA1FBB1FEE1FFF1FA217B307E40732
:1015C000F50720F0A21BB30BE40BF50B661F771F8A
:1015D000881F991F1A9469F760957095809590956A
:1015E0009B01AC01BD01CF010895EE0FFF1F0590D7
:1015F000F491E02D0994AEE0B0E0E1E0FBE00C9462
:10160000AA0A0D891E8986E08C831A8309838FEFCD
:101610009FE79E838D83AE01475E5F4F6F89788D14
:10162000CE0101960E941E0B2F813885020F131FD9
:10163000F80110822E96E4E00C94C60AABE0B0E00C
:10164000E4E2FBE00C949C0A7C013B018A01FC0172
:1016500017821682838181FFC8C1CE0101965C0189
:10166000F7019381F30193FD859193FF81913F01F0
:10167000882309F453C1853239F493FD859193FF92
:1016800081913F01853229F4B70190E00E940E0D4F
:10169000E7CF912C212C312CFFE1F31538F08B3260
:1016A00011F190F4803209F1833229F137FC3CC00A
:1016B00020ED280F2A3050F536FE20C08AE0989E93
:1016C000200D1124922E06C08D3291F0803371F7D7
:1016D000689430F8F30193FD859193FF81913F0168
:1016E0008111DACF21C0689431F8689432F8F2CFD2
:1016F000689433F8EFCF689434F8ECCFEAE02E9E8C
:10170000200D1124222E689435F8E4CF8E3229F46E
:1017100036FC04C1689436F8DDCF8C3619F4689431
:1017200037F8D8CF8836B1F2982F9F7D95549330F3
:10173000E0F08336A1F18337C1F1833509F063C04E
:101740002801F2E04F0E511CF801C080D180692DB4
:1017500070E036FC02C06FEF7FEFC6010E94F80C0C
:101760004C01689437F882010AC00C5F1F4FFFE3F9
:10177000F98388248394912C6501E89437F833FE2B
:101780002DC0522C8114910471F5552009F468CFB5
:10179000B70180E290E00E940E0D5A94F6CFF80156
:1017A000808189830E5F1F4FE4CF2801F2E04F0E46
:1017B000511CF801C080D180692D70E036FC02C058
:1017C0006FEF7FEFC6010E94030D4C018201D5CF60
:1017D000B70180E290E00E940E0D2A9428141904AB
:1017E00009F0B0F7CECFF60137FC859137FE819135
:1017F0006F01B70190E00E940E0D51105A94F1E074
:101800008F1A9108BFCF843619F0893609F077C056
:10181000F80137FE6BC060817181828193810C5F1A
:101820001F4FF32DFF763F2E97FF09C090958095AF
:10183000709561957F4F8F4F9F4F689437F82AE0DE
:1018400030E0A5010E943E0DC82ECA188C2C432CF6
:1018500036FE0CC0E89440F8C91440F434FE05C0CC
:1018600032FC03C0F32DFE7E4F2E892C44FE95C022
:10187000FE01EC0DF11D8081803309F087C0242D1D
:10188000297E422E842D8870582E43FC95C040FE40
:101890008FC09C2C821418F42C0C922C981844FEA7
:1018A00091C0B70180E390E00E940E0D42FE09C096
:1018B00088E790E041FE02C088E590E0B7010E9411
:1018C0000E0DC91408F48AC0CA94D12C9FEFC91A0E
:1018D000D90ACA0CDB1CF60182916F01B70190E0B6
:1018E0000E940E0DAC14BD04B1F74FCF6081718121
:1018F000072E000C880B990B0E5F1F4F92CFD32C35
:10190000E894D4F82AE030E0853739F1232D297F97
:10191000D22E8F3601F148F48835A9F0F70186817F
:1019200097812B96E2E10C94B80A803749F088370A
:10193000A9F7D4FE02C06894D2F820E130E00DC0CF
:101940006894D4F8F6CF34FE03C0822F8660D82E78
:1019500020E132E002C028E030E0F801D7FE0FC0FD
:1019600060817181828193810C5F1F4FA5010E946C
:101970003E0DC82ECA183D2CE89437F867CF608119
:10198000718190E080E00E5F1F4FF0CF42FC02C0FB
:10199000839478CF8394839475CF842D867809F4CB
:1019A00071CFF6CFB70180E290E00E940E0D8394D4
:1019B0008214C0F3512C73CF522C5818821408F49F
:1019C0006ECFF8CF842D867809F47BCF8BE241FE71
:1019D00080E247FC8DE2B70190E071CFB70180E370
:1019E00090E00E940E0D9A946CCF8FEF9FEF99CFED
:1019F000FC010590615070400110D8F780959095DA
:101A00008E0F9F1F0895FC016150704001900110DE
:101A1000D8F7809590958E0F9F1F08950F931F9371
:101A2000CF93DF93182F092FEB018B8181FD09C024
:101A30001FEF0FEF812F902FDF91CF911F910F910B
:101A4000089582FF14C02E813F818C819D812817CB
:101A500039073CF4E881F981CF01019699838883A5
:101A600010838E819F8101969F838E83E3CFE885CB
:101A7000F985812F0995892BA1F3DACFFA01AA27DD
:101A8000283051F1203181F1E8946F936E7F6E5FC1
:101A90007F4F8F4F9F4FAF4FB1E03ED0B4E03CD06F
:101AA000670F781F891F9A1FA11D680F791F8A1F52
:101AB000911DA11D6A0F711D811D911DA11D20D0B9
:101AC00009F468943F912AE0269F11243019305D73
:101AD0003193DEF6CF010895462F4770405D419364
:101AE000B3E00FD0C9F7F6CF462F4F70405D4A33B1
:101AF00018F0495D31FD4052419302D0A9F7EACF79
:101B0000B4E0A6959795879577956795BA95C9F7A7
:101B100000976105710508959B01AC010A2E06949A
:101B20005795479537952795BA95C9F7620F731F53
:101B3000841F951FA01D0895F894FFCF000040005A
:101B400014005400000000002E018E00BB007B0139
:101B5000EC00CA00DE0000000000FB02CE0212040E
:101B6000A402C702B402A50200000000EA048E002D
:101B700012041104252D313673004E4F544943454C
:101B8000204F5554004E4F5449434520494E005B69
:0C1B90005B44697374616E63655D5D0009
:107E0000112484B714BE81FFF0D085E080938100F7
:107E100082E08093C00088E18093C10086E0809377
:107E2000C20080E18093C4008EE0C9D0259A86E02C
:107E300020E33CEF91E0309385002093840096BBD3
:107E4000B09BFECF1D9AA8958150A9F7CC24DD24C4
:107E500088248394B5E0AB2EA1E19A2EF3E0BF2EE7
:107E6000A2D0813461F49FD0082FAFD0023811F036
:107E7000013811F484E001C083E08DD089C08234E0
:107E800011F484E103C0853419F485E0A6D080C0E4
:107E9000853579F488D0E82EFF2485D0082F10E0AE
:107EA000102F00270E291F29000F111F8ED06801E7
:107EB0006FC0863521F484E090D080E0DECF843638
:107EC00009F040C070D06FD0082F6DD080E0C81688
:107ED00080E7D80618F4F601B7BEE895C0E0D1E017
:107EE00062D089930C17E1F7F0E0CF16F0E7DF06D8
:107EF00018F0F601B7BEE89568D007B600FCFDCFD4
:107F0000A601A0E0B1E02C9130E011968C91119780
:107F100090E0982F8827822B932B1296FA010C0160
:107F200087BEE89511244E5F5F4FF1E0A038BF0790
:107F300051F7F601A7BEE89507B600FCFDCF97BE46
:107F4000E89526C08437B1F42ED02DD0F82E2BD052
:107F50003CD0F601EF2C8F010F5F1F4F84911BD097
:107F6000EA94F801C1F70894C11CD11CFA94CF0C13
:107F7000D11C0EC0853739F428D08EE10CD085E9AC
:107F80000AD08FE07ACF813511F488E018D01DD067
:107F900080E101D065CF982F8091C00085FFFCCF94
:107FA0009093C60008958091C00087FFFCCF809118
:107FB000C00084FD01C0A8958091C6000895E0E648
:107FC000F0E098E1908380830895EDDF803219F02E
:107FD00088E0F5DFFFCF84E1DECF1F93182FE3DFCA
:107FE0001150E9F7F2DF1F91089580E0E8DFEE27F6
:047FF000FF270994CA
:027FFE00040479
:00000001FF
