:100000000C9462000C948A000C948A000C948A0070
:100010000C948A000C948A000C948A000C948A0038
:100020000C948A000C948A000C948A000C948A0028
:100030000C948A000C948A000C948A000C948A0018
:100040000C9484060C948A000C9452060C942C0692
:100050000C948A000C948A000C948A000C948A00F8
:100060000C94CE060C948A000000000023002600A9
:10007000290000000008000201000003040700003E
:1000800000000000000000000000250028002B00F8
:1000900000000000240027002A00040404040404D3
:1000A0000404020202020202030303030303010227
:1000B00004081020408001020408102001020408F6
:1000C0001020320811241FBECFEFD8E0DEBFCDBF15
:1000D00023E0AEE5B1E001C01D92AB38B207E1F715
:1000E00011E0A0E0B1E0ECE8F1E202C005900D9271
:1000F000AE35B107D9F710E0C2E6D0E004C02197D1
:10010000FE010E942B0CC136D107C9F70E94D60808
:100110000C94C4100C94000008950895AF92BF92FF
:10012000CF92DF92EF92FF920F931F93CF93DF93C3
:100130006C017B018B01040F151FEB015E01AE18F2
:10014000BF08C017D10759F06991D601ED91FC9114
:100150000190F081E02DC6010995892B79F7C50141
:10016000DF91CF911F910F91FF90EF90DF90CF9093
:10017000BF90AF900895FC01538D448D252F30E042
:10018000842F90E0821B930B541710F0CF960895A4
:1001900001970895FC01918D828D981761F0A28DD1
:1001A000AE0FBF2FB11D5D968C91928D9F5F9F7397
:1001B000928F90E008958FEF9FEF0895FC01918D4D
:1001C000828D981731F0828DE80FF11D858D90E0BA
:1001D00008958FEF9FEF0895FC01918D228D892F57
:1001E00090E0805C9F4F821B91098F73992708953F
:1001F0008DE192E00E94EC0021E0892B09F420E0DF
:10020000822F089580E090E0892B29F00E94F80069
:1002100081110C9400000895FC01A48DA80FB92F42
:10022000B11DA35ABF4F2C91848D90E001968F731E
:100230009927848FA689B7892C93A089B1898C913D
:10024000837080648C93938D848D981306C002888C
:10025000F389E02D80818F7D80830895EF92FF9256
:100260000F931F93CF93DF93EC0181E0888F9B8DD9
:100270008C8D98131AC0E889F989808185FF15C093
:100280009FB7F894EE89FF896083E889F9898081B6
:100290008370806480839FBF81E090E0DF91CF9185
:1002A0001F910F91FF90EF900895F62E0B8D10E0A7
:1002B0000F5F1F4F0F731127E02E8C8D8E110CC016
:1002C0000FB607FCFACFE889F989808185FFF5CF61
:1002D000CE010E940C01F1CFEB8DEC0FFD2FF11D33
:1002E000E35AFF4FF0829FB7F8940B8FEA89FB899E
:1002F00080818062CFCFCF93DF93EC01888D8823FC
:10030000B9F0AA89BB89E889F9898C9185FD03C078
:10031000808186FD0DC00FB607FCF7CF8C9185FF5D
:10032000F2CF808185FFEDCFCE010E940C01E9CF95
:10033000DF91CF91089590E0FC01EE58FF4F24919A
:10034000FC01E255FF4F3491FC01E656FF4FE4916A
:10035000EE23C9F0222339F0233001F1A8F4213033
:1003600019F1223029F1F0E0EE0FFF1FEA57FF4F9D
:10037000A591B4918FB7F894EC91611126C0309596
:100380003E233C938FBF08952730A9F02830C9F051
:10039000243049F7809180008F7D03C080918000D8
:1003A0008F7780938000DFCF84B58F7784BDDBCFDC
:1003B00084B58F7DFBCF8091B0008F778093B000A4
:1003C000D2CF8091B0008F7DF9CF3E2BDACF3FB7EF
:1003D000F8948091110290911202A0911302B091B1
:1003E000140226B5A89B05C02F3F19F00196A11D48
:1003F000B11D3FBFBA2FA92F982F8827BC01CD016F
:10040000620F711D811D911D42E0660F771F881FCD
:10041000991F4A95D1F708958F929F92AF92BF92FC
:10042000CF92DF92EF92FF924B015C010E94E701B5
:100430006B017C010E94E7016C197D098E099F09FF
:10044000683E734081059105A8F321E0821A910866
:10045000A108B10888EEC80E83E0D81EE11CF11C8B
:1004600081149104A104B10429F7FF90EF90DF906B
:10047000CF90BF90AF909F908F9008952091C6012C
:10048000260F3327331F21323105ECF42091EA0186
:10049000FC0190E080E0243069F082E00895A091B2
:1004A000C6012191AC014A555E4FA40FB52FB11D75
:1004B0002C930196861798F38091C601680F60937C
:1004C000C60180E0089581E008951092EA0181E07C
:1004D0008093EC011092EB0161E082E10E949B01AC
:1004E00061E083E10E949B01E9EBF0E080818E7F77
:1004F000808380818D7F808388E48093B80085E449
:100500008093BC000895CF93DF9391E09093A50171
:100510008823B9F0C091B800D091BA008091BC0096
:100520008A7B8093BC0060E082E10E949B0160E0D6
:1005300083E10E949B010E946502D093BA00C093A0
:10054000B800DF91CF9108950895E0911C02809149
:100550001B02E81730F4F0E0E058FE4F808190E095
:1005600008958FEF9FEF089590911C0280911B02D8
:100570002FEF3FEF981748F4E92FF0E0E058FE4FD7
:10058000208130E09F5F90931C02C9010895809103
:100590001B0290911C02891B990B0895CF92DF9248
:1005A000EF92FF920F931F93CF93DF937C01CB01C8
:1005B0008A0120917F01222389F0EB016B01C40E97
:1005C000D51ECC15DD0569F06991D701ED91FC913F
:1005D0000190F081E02DC7010995F3CF642F0E94AF
:1005E0003E02C801DF91CF911F910F91FF90EF90D4
:1005F000DF90CF900895CF93DF931F92CDB7DEB7F2
:10060000698320917F012223F9F020911902203281
:1006100058F021E030E0FC013383228390E080E059
:100620000F90DF91CF91089580911A02E82FF0E0AA
:10063000E15AFE4F998190838F5F80931A028093D5
:10064000190281E090E0ECCF61E0CE0101960E94BA
:100650003E02F7CFCF92DF92EF92FF920F931F935C
:10066000CF93DF93FC01C48121E020937F01C093ED
:100670005E0110921A02109219028385682B8AEB90
:1006800092E00E94FB02D0911902D13208F092C090
:100690000E94E7016B017C018091EA01811165C034
:1006A00082E08093EA0181E08093EC018FEF8093F8
:1006B000E90110920E02D0930D02AFE5B1E0EDEE2C
:1006C000F1E080E0D81385C010920F0280910F02F4
:1006D000CC0FC82BC0930F028091EB01813009F041
:1006E0007CC01092EB010E94E7016B017C018091BC
:1006F0000F028093BB008091A1019091A201A09173
:10070000A301B091A401892B8A2B8B2B99F00E9415
:10071000E7010091A1011091A2012091A301309164
:10072000A4016C197D098E099F0906171707280770
:100730003907E0F18091BC0083FDD9CF85EC80932F
:10074000BC000E94E7016B017C018091EA018230CC
:1007500009F445C08091E9018F3F61F18091E90181
:10076000803241F18091E90125C08091A1019091F1
:10077000A201A091A301B091A401892B8A2B8B2BFC
:1007800009F48ACF0E94E7010091A1011091A20112
:100790002091A3013091A4016C197D098E099F0954
:1007A000061717072807390708F076CF8091A001B0
:1007B0000E94830210921A021092190210927F0175
:1007C000DF91CF911F910F91FF90EF90DF90CF902D
:1007D00008959D9191938F5F75CF85EEB0CF8091F5
:1007E000A1019091A201A091A301B091A401892B34
:1007F0008A2B8B2B09F4A9CF0E94E7010091A1015C
:100800001091A2012091A3013091A4016C197D09DE
:100810008E099F09061717072807390708F095CF93
:10082000C5CF089590E080E008950F931F93CF9374
:10083000DF93EC0188819981009759F02A813B81EF
:100840002617370730F081E0DF91CF911F910F918C
:1008500008958B016F5F7F4F0E94560D009759F0EE
:10086000998388831B830A832C813D81232B59F72D
:10087000FC011082E8CF80E0E7CFCF93DF93EC015B
:1008800088819981009711F00E94CD0C19821882FD
:100890001D821C821B821A82DF91CF910895EF92F4
:1008A000FF920F931F93CF93DF93EC018617970767
:1008B00081F0FB01008111810115110539F0E480FF
:1008C000F580B7010E94150481110BC0CE010E9472
:1008D0003D04CE01DF91CF911F910F91FF90EF90DA
:1008E0000895FD82EC82B801888199810E941C0ED6
:1008F000F0CFFC0180819181009711F00C94CD0C18
:10090000089585ED8093BC008091A1019091A20192
:10091000A091A301B091A4010796A11DB11D23E0F0
:10092000B695A795979587952A95D1F72091BC0004
:1009300024FD03C01092EA0108954091A101509155
:10094000A2016091A3017091A401452B462B472B76
:1009500069F30097A105B10541F025E32A95F1F768
:1009600000000197A109B109E1CF8091A0010C9489
:1009700083020F931F93CF938C01C62F0E942A03EB
:100980006C2F6460C8010E942A036C2F6B7FC80122
:100990000E942A0383EC90E00197F1F7CF911F9119
:1009A0000F9108950F931F93CF93DF938C01D62F50
:1009B000C42F607F642B0E94B90480E1D89FB001EE
:1009C00011246C2BC801DF91CF911F910F910C94D2
:1009D000B904EF92FF921F93CF93DF93CDB7DEB7A9
:1009E00069970FB6F894DEBF0FBECDBF182F7F9367
:1009F0006F938EE391E09F938F93CE0101967C01DC
:100A00009F938F930E94230E812F98E0E6E0F1E000
:100A1000DE01529601900D929A95E1F79091D602DF
:100A20000F900F900F900F900F900F90911710F460
:100A30008FEF890FE82FF0E0EE0FFF1FEE0DFF1D87
:100A40006189606840E08EEC92E00E94D204F70178
:100A500001900020E9F73197AF014E195F09B70106
:100A60008EEC92E00E948E0069960FB6F894DEBF7D
:100A70000FBECDBFDF91CF911F91FF90EF900895F2
:100A8000EF92FF920F931F93CF93DF93CDB7DEB713
:100A90002E970FB6F894DEBF0FBECDBF2091860310
:100AA00021114FC08B01BC011A8619861C861B863A
:100AB0001E861D86CE0109960E944F044AE0CE0193
:100AC00001967C01BC01C8010E949D0BF7010190B9
:100AD0000020E9F73197EE19FF09B1F00D851E8569
:100AE0000E0F1F1FB801CE0109960E94150488231E
:100AF000A9F129853A858D859E85B701820F931FBF
:100B00000E941C0E1E870D871A8219821C821B826E
:100B10001E821D82BE01675F7F4FC7010E944F0486
:100B2000CE0109960E94790480918603811106C046
:100B300069817A8181E090E00E94E904C7010E9406
:100B400079042E960FB6F894DEBF0FBECDBFDF91AD
:100B5000CF911F910F91FF90EF900895CE010996CC
:100B60000E943D04D1CF41E00E94D20481E090E098
:100B70000895CF92DF92EF92FF920F931F93CF933E
:100B8000DF9300D000D000D0CDB7DEB761E086E0C3
:100B90000E949B0183E290E00197F1F760E086E01C
:100BA0000E949B01E3EBF0E06491EFE9F0E0E49157
:100BB000F0E0EE0FFF1FE859FF4F8591949100E49C
:100BC00012E42FE030E0462F0E94ED076115710519
:100BD0008105910529F06F5F7F4F8F4F9F4F9F7069
:100BE0002AE330E040E050E00E94090C69011A82DB
:100BF00019821C821B821E821D826CE070E0CE0175
:100C000001960E94150481111CC0CE0101960E941C
:100C10003D04B601CE0101960E944005CE01019629
:100C20000E94790426960FB6F894DEBF0FBECDBFA2
:100C3000DF91CF911F910F91FF90EF90DF90CF90B8
:100C400008958CE090E09E838D8364E471E0898157
:100C50009A810E941C0EDDCF1F920F920FB60F9249
:100C600011242F933F934F935F936F937F938F93B1
:100C70009F93AF93BF93EF93FF938DE192E00E9418
:100C80000C01FF91EF91BF91AF919F918F917F9157
:100C90006F915F914F913F912F910F900FBE0F90E9
:100CA0001F9018951F920F920FB60F9211242F9339
:100CB0008F939F93EF93FF93E0912D02F0912E027B
:100CC0008081E0913302F091340282FD1BC090815B
:100CD000809136028F5F8F7320913702821741F027
:100CE000E0913602F0E0E35EFD4F958F809336028F
:100CF000FF91EF919F918F912F910F900FBE0F90C9
:100D00001F9018958081F4CF1F920F920FB60F920B
:100D100011242F933F938F939F93AF93BF93809111
:100D2000C6029091C702A091C802B091C902309149
:100D3000100223E0230F2D3758F50196A11DB11D98
:100D4000209310028093C6029093C702A093C8021A
:100D5000B093C9028091110290911202A0911302E6
:100D6000B09114020196A11DB11D809311029093C0
:100D70001202A0931302B0931402BF91AF919F91FE
:100D80008F913F912F910F900FBE0F901F9018954C
:100D900026E8230F0296A11DB11DD2CF1F920F92FC
:100DA0000FB60F9211242F933F934F935F936F933E
:100DB0007F938F939F93AF93BF93EF93FF93809114
:100DC000B900887F803609F44AC0F0F5883209F40A
:100DD000A7C018F5803109F49BC0B8F4882309F442
:100DE000F9C0883009F494C0FF91EF91BF91AF91A1
:100DF0009F918F917F916F915F914F913F912F9133
:100E00000F900FBE0F901F901895883109F488C07D
:100E1000803251F78093E90114C0803409F49DC0F9
:100E200040F48033B9F38833F9F68093E90185EC17
:100E3000B0C0803509F485C0883509F496C088347F
:100E400099F60E948104D0CF883909F48CC038F516
:100E5000883729F050F4883611F0803729F683E07E
:100E60008093EA011092E80157C0883809F47BC0EA
:100E7000803919F0803809F0B7CF8091E8018032CD
:100E800008F071C0E091E80181E08E0F8093E801E5
:100E90008091BB00F0E0E853FE4F80833DC0803B73
:100EA00039F0E0F4803A09F479C0883A09F09CCF2F
:100EB00084E08093EA011092C7011092C601E0918C
:100EC0001702F091180209958091C60181110FC097
:100ED00081E08093C6011092A60109C0803C09F40C
:100EE000A6CF883C09F4A3CF883B09F07DCFE091E1
:100EF000C70181E08E0F8093C701F0E0EA55FE4FF5
:100F000080818093BB009091C7018091C60129C068
:100F100080910F028093BB0085EC8093BC0064CF6E
:100F200090910E0280910D02981758F5E0910E02F3
:100F300081E08E0F80930E02F0E0E351FE4F80813E
:100F4000E9CFE0910E0281E08E0F80930E02809136
:100F5000BB00F0E0E351FE4F808390910E02809140
:100F60000D029817C8F285E8D8CFE0910E0281E013
:100F70008E0F80930E028091BB00F0E0E351FE4F94
:100F800080838091EC0181115CCF81E08093EB0143
:100F900084EA8093BC001092EA0126CF85EC80930E
:100FA000BC001092EA018091E801803230F4E091B7
:100FB000E801F0E0E853FE4F10826091E80170E034
:100FC000E0911502F091160288EC91E009951092DB
:100FD000E8010ACF1092E90134CFCF92DF92EF926D
:100FE000FF920F931F93E82FF92F05C001501109AD
:100FF0002109310961F1908196239417B9F305C055
:10100000015011092109310911F19081962394139E
:10101000F7CFC12CD12CE12CF12C0AC08FEFC81ACC
:10102000D80AE80AF80A0C151D052E053F0579F0C7
:1010300080818623841791F36C2D7D2D8E2D9F2D1D
:101040001F910F91FF90EF90DF90CF90089560E097
:1010500070E080E090E01F910F91FF90EF90DF90A3
:10106000CF900895CF93DF931092200210921F0229
:1010700088EE93E0A0E0B0E08093210290932202FA
:10108000A0932302B093240222E131E030931E02A8
:1010900020931D0225EC30E030932A022093290290
:1010A00024EC30E030932C0220932B0220EC30E033
:1010B00030932E0220932D0221EC30E03093300249
:1010C00020932F0222EC30E0309332022093310241
:1010D00026EC30E030933402209333021092360233
:1010E0001092370210923802109239021092BD020B
:1010F0001092BC028093BE029093BF02A093C002E4
:10110000B093C10284E291E09093BB028093BA0253
:1011100080E092ECA1E0B0E08093CA029093CB0211
:10112000A093CC02B093CD021092D1021092D002C3
:1011300086E391E09093CF028093CE0287E2809382
:10114000D20280E18093D70282E08093D80210928D
:10115000D9028FB7F8944091C6025091C7026091AE
:10116000C8027091C9028FBFC6E6D3E0E2E0F3E0A7
:101170002AED32E0199211921192D9014D935D93AB
:101180006D937D939D01CF01825B9F4FDC011D928A
:101190001C92B3E0E631FB0769F7109285031092C9
:1011A000840310928603DF91CF910895CF93DF934C
:1011B00000D000D0CDB7DEB7789484B5826084BD0E
:1011C00084B5816084BD85B5826085BD85B581604B
:1011D00085BD80916E00816080936E0010928100C9
:1011E0008091810082608093810080918100816084
:1011F0008093810080918000816080938000809145
:10120000B10084608093B1008091B00081608093D0
:10121000B00080917A00846080937A0080917A0097
:10122000826080937A0080917A00816080937A0056
:1012300080917A00806880937A001092C100C090FB
:10124000CA02D090CB02E090CC02F090CD0260E0D8
:1012500079E08DE390E0A70196010E94090C2150EE
:101260003109410951095695479537952795E091E0
:101270002D02F0912E0282E08083C11441EED4064B
:10128000E104F10421F0211550E13507A8F0E091C7
:101290002D02F0912E02108260E874E88EE190E059
:1012A000A70196010E94090C2150310941095109F9
:1012B0005695479537952795E0912902F0912A0296
:1012C0003083E0912B02F0912C02208310923502A2
:1012D000E0913102F091320286E08083E0912F02AA
:1012E000F0913002808180618083E0912F02F09143
:1012F0003002808188608083E0912F02F09130027B
:10130000808180688083E0912F02F091300280819B
:101310008F7D808380918603811189C010921C0289
:1013200010921B0210921A02109219020E9465027A
:101330008CE890E090931802809317028DE890E07B
:1013400090931602809315021092D3028091D802D6
:10135000823018F098E09093D3028093D60262E333
:1013600070E080E090E00E940C026091D9028EEC67
:1013700092E00E942A0368EE73E080E090E00E9411
:101380000C0260E38EEC92E00E94B9048BE496E4D8
:101390000197F1F760E38EEC92E00E94B9048BE4D0
:1013A00096E40197F1F760E38EEC92E00E94B904B5
:1013B00083E592E00197F1F760E28EEC92E00E9403
:1013C000B9046091D302606240E08EEC92E00E942A
:1013D000D20484E08093D40240E06CE08EEC92E092
:1013E0000E94D20440E061E08EEC92E00E94D204C0
:1013F0008BE39FE10197F1F782E08093D50240E013
:1014000066E08EEC92E00E94D20440E062E08EEC56
:1014100092E00E94D204ABE3BFE11197F1F788E0BC
:101420008093D90260E08EEC92E00E942A038091C2
:101430008603811106C061E571E090E080E00E94C2
:10144000E90480918403909185030A976CF4E2E0AB
:10145000F3E090E080E021913191232B09F429C140
:1014600001968A309105B9F7E3EBF0E02491EFE9BA
:10147000F0E084918823C9F090E0880F991FFC0167
:10148000E057FF4F65917491FC01EA57FF4FA5911A
:10149000B4919FB7F894FB018081209582238083CB
:1014A0008C91E22FE823EC939FBFE4EBF0E02491D2
:1014B000E0EAF0E08491882399F090E0880F991F8A
:1014C000FC01E057FF4FA591B491FC01EA57FF4F93
:1014D000859194918FB7F894EC91E22BEC938FBFA8
:1014E00001E010E0B2E02B2E312C8FB7F894809001
:1014F000C6029090C702A090C802B090C9028FBFE8
:10150000E2E0F3E02AEC32E03C832B833A83298348
:1015100090E080E0AF0142595F4FDA011D921C92CA
:10152000208131813296232BC9F1A981BA8150964D
:101530004D915D916D917C9153979D01245B3F4F3F
:10154000D901CD90DD90ED90FC9024013501441A35
:10155000550A660A770A4C145D046E047F04F0F0A5
:101560004C0D5D1D6E1D7F1DA981BA8150964D9356
:101570005D936D937C9353979C012A593C4FD901FD
:101580002C91222359F022AD33AD21153105C9F537
:101590009F0124593F4FD9010D931C930196298136
:1015A0003A812C5F3F4F3A8329838A30910509F0B5
:1015B000B1CFF12CE12CCB80DC8036EAC30ED11CFC
:1015C000D6018D919C9181309105C1F10297E9F18D
:1015D000BFEFEB1AFB0AEB81FC813296FC83EB83B5
:1015E000FAE0EF16F10439F720E030E0232B09F49C
:1015F0007CCF0E94F800882309F477CF0E94000076
:1016000074CF7F01BEE4EB0EF11CD7016D917C918C
:10161000621773071CF6AF0144595F4FDA010D934F
:101620001C936F5F7F4FD7016D937C936217730795
:101630000CF4B4CFDA012D923C92B0CFAB81BC81D7
:10164000D896ED91FC910995C3CFAB81BC81D8961A
:10165000ED91FC9109958091840390918503009709
:1016600009F4B6CFEB81FC8120AD31AD232B09F419
:10167000AFCF11AE10AEF701EA59FC4F1082D60180
:101680001D921C92F701EE0FFF1FEE0FFF1FEA5E87
:10169000FC4F1082118212821382EB81FC81E85789
:1016A000FF4F1182108201979093850380938403EA
:1016B0008FCFFC01EE0FFF1FEE0FFF1FEA5FFC4F05
:1016C00048EE53E060E070E0408B518B628B738B8F
:1016D000FC01EE0FFF1FEE50FD4F29EB35E0318B83
:1016E000208BFC01EE0FFF1FE25DFC4F118A108A78
:1016F000FC01EA59FC4F21E020832FB7F894409178
:10170000C6025091C7026091C8027091C9022FBFF2
:10171000880F991F880F991FFC01E653FD4F408BDE
:10172000518B628B738B809184039091850301961A
:10173000909385038093840397CEBB274A3031F47E
:10174000992322F4BDE2909581959F4F0C94A90BAB
:10175000BB27FB015527AA27880F991FAA1FA4178B
:1017600010F0A41B83955051B9F7A05DAA3308F07F
:10177000A95DA193009779F7B111B1931192CB01B3
:101780000C94C20BDC01FC01672F71917723E1F708
:10179000329704C07C916D9370836291AE17BF073E
:1017A000C8F308952F923F924F925F926F927F926B
:1017B0008F929F92AF92BF92CF92DF92EF92FF9261
:1017C0000F931F93CF93DF93CDB7DEB7CA1BDB0B0D
:1017D0000FB6F894DEBF0FBECDBF09942A883988B2
:1017E00048885F846E847D848C849B84AA84B984B9
:1017F000C884DF80EE80FD800C811B81AA81B981C5
:10180000CE0FD11D0FB6F894DEBF0FBECDBFED01D8
:101810000895A1E21A2EAA1BBB1BFD010DC0AA1F31
:10182000BB1FEE1FFF1FA217B307E407F50720F049
:10183000A21BB30BE40BF50B661F771F881F991FC4
:101840001A9469F760957095809590959B01AC010D
:10185000BD01CF010895EE0FFF1F0590F491E02D1B
:1018600009940F931F93CF93DF938230910510F467
:1018700082E090E0E0918903F0918A0330E020E07B
:10188000B0E0A0E0309799F42115310509F44AC081
:10189000281B390B24303105D8F58A819B816115CD
:1018A000710589F1FB0193838283FE0111C04081A0
:1018B00051810281138148175907E0F048175907F1
:1018C00099F4109761F012960C93129713961C934B
:1018D0003296CF01DF91CF911F910F910895009320
:1018E000890310938A03F4CF2115310551F0421773
:1018F000530738F0A901DB019A01BD01DF01F801AE
:10190000C1CFEF01F9CF90938A0380938903CDCFA4
:10191000FE01E20FF31F8193919322503109398325
:101920002883D7CF2091870330918803232B41F45C
:1019300020910201309103013093880320938703A3
:1019400020910001309101012115310541F42DB79D
:101950003EB74091040150910501241B350BE091E5
:101960008703F0918803E217F307A0F42E1B3F0BC7
:101970002817390778F0AC014E5F5F4F2417350701
:1019800048F04E0F5F1F5093880340938703819365
:1019900091939FCFF0E0E0E09CCFCF93DF9300974F
:1019A000E9F0FC01329713821282A0918903B09171
:1019B0008A03ED0130E020E01097A1F4208131810D
:1019C000820F931F209187033091880328173907CE
:1019D00009F061C0F0938803E0938703DF91CF9112
:1019E0000895EA01CE17DF07E8F54A815B819E0181
:1019F00041155105B1F7E901FB83EA8349915991FA
:101A0000C40FD51FEC17FD0761F480819181029608
:101A1000840F951FE90199838883828193819B8339
:101A20008A83F0E0E0E012968D919C9113970097E5
:101A3000B9F52D913C911197CD010296820F931F1C
:101A400020918703309188032817390739F630979A
:101A500051F510928A0310928903B0938803A093E2
:101A60008703BCCFD383C28340815181840F951FEC
:101A7000C817D90761F44E5F5F4F88819981480F7D
:101A8000591F518340838A819B81938382832115CF
:101A9000310509F0B0CFF0938A03E09389039ECF1C
:101AA000FD01DC01C0CF13821282D7CFB0E0A0E0ED
:101AB000ECE5FDE00C94D40B8C01009751F4CB01C4
:101AC0000E94310C8C01C801CDB7DEB7E0E10C9467
:101AD000F00BFC01E60FF71F9C0122503109E217C1
:101AE000F30708F49DC0D901CD91DC911197C61779
:101AF000D70798F0C530D10530F3CE01049786178B
:101B0000970708F3C61BD70B2297C193D1936D9308
:101B10007C93CF010E94CD0CD6CF5B01AC1ABD0ADD
:101B20004C018C0E9D1EA0918903B0918A03512C0B
:101B3000412CF12CE12C109731F580918703909185
:101B400088038815990509F05CC04616570608F009
:101B500058C08091000190910101009741F48DB728
:101B60009EB74091040150910501841B950BE81725
:101B7000F90708F055C0F0938803E0938703F90153
:101B800071836083A0CF8D919C91119712966C9078
:101B9000129713967C901397A815B90559F56C0107
:101BA00042E0C40ED11CCA14DB0420F1AC014A1976
:101BB0005B09DA011296159780F062827382518375
:101BC0004083D9016D937C93E114F10471F0D70146
:101BD0001396FC93EE93129776CF22968C0F9D1F4F
:101BE000F90191838083F301EFCFF0938A03E093AF
:101BF000890369CF4816590608F42C017D01D301E9
:101C00009ACFCB010E94310C7C01009749F0AE01C4
:101C1000B8010E94130EC8010E94CD0C870153CF5A
:101C200010E000E050CFFB01DC0102C001900D92FA
:101C300041505040D8F70895FB01DC0101900D920E
:101C40000020E1F70895AEE0B0E0E9E2FEE00C9498
:101C5000E00B0D891E8986E08C831A8309838FEF40
:101C60009FE79E838D83AE01475E5F4F6F89788DBE
:101C7000CE0101960E94460E2F813885020F131F58
:101C8000F80110822E96E4E00C94FC0BABE0B0E07F
:101C9000ECE4FEE00C94D20B7C013B018A01FC01D8
:101CA00017821682838181FFC8C1CE0101965C0133
:101CB000F7019381F30193FD859193FF81913F019A
:101CC000882309F453C1853239F493FD859193FF3C
:101CD00081913F01853229F4B70190E00E943610CE
:101CE000E7CF912C212C312CFFE1F31538F08B320A
:101CF00011F190F4803209F1833229F137FC3CC0B4
:101D000020ED280F2A3050F536FE20C08AE0989E3C
:101D1000200D1124922E06C08D3291F0803371F780
:101D2000689430F8F30193FD859193FF81913F0111
:101D30008111DACF21C0689431F8689432F8F2CF7B
:101D4000689433F8EFCF689434F8ECCFEAE02E9E35
:101D5000200D1124222E689435F8E4CF8E3229F418
:101D600036FC04C1689436F8DDCF8C3619F46894DB
:101D700037F8D8CF8836B1F2982F9F7D955493309D
:101D8000E0F08336A1F18337C1F1833509F063C0F8
:101D90002801F2E04F0E511CF801C080D180692D5E
:101DA00070E036FC02C06FEF7FEFC6010E9420108A
:101DB0004C01689437F882010AC00C5F1F4FFFE3A3
:101DC000F98388248394912C6501E89437F833FED5
:101DD0002DC0522C8114910471F5552009F468CF5F
:101DE000B70180E290E00E9436105A94F6CFF801D5
:101DF000808189830E5F1F4FE4CF2801F2E04F0EF0
:101E0000511CF801C080D180692D70E036FC02C001
:101E10006FEF7FEFC6010E942B104C018201D5CFDE
:101E2000B70180E290E00E9436102A942814190429
:101E300009F0B0F7CECFF60137FC859137FE8191DE
:101E40006F01B70190E00E94361051105A94F1E0F2
:101E50008F1A9108BFCF843619F0893609F077C000
:101E6000F80137FE6BC060817181828193810C5FC4
:101E70001F4FF32DFF763F2E97FF09C09095809559
:101E8000709561957F4F8F4F9F4F689437F82AE088
:101E900030E0A5010E946610C82ECA188C2C432C75
:101EA00036FE0CC0E89440F8C91440F434FE05C076
:101EB00032FC03C0F32DFE7E4F2E892C44FE95C0CC
:101EC000FE01EC0DF11D8081803309F087C0242DC7
:101ED000297E422E842D8870582E43FC95C040FEEA
:101EE0008FC09C2C821418F42C0C922C981844FE51
:101EF00091C0B70180E390E00E94361042FE09C015
:101F000088E790E041FE02C088E590E0B7010E94BA
:101F10003610C91408F48AC0CA94D12C9FEFC91A8C
:101F2000D90ACA0CDB1CF60182916F01B70190E05F
:101F30000E943610AC14BD04B1F74FCF608171819F
:101F4000072E000C880B990B0E5F1F4F92CFD32CDE
:101F5000E894D4F82AE030E0853739F1232D297F41
:101F6000D22E8F3601F148F48835A9F0F701868129
:101F700097812B96E2E10C94EE0B803749F088377D
:101F8000A9F7D4FE02C06894D2F820E130E00DC079
:101F90006894D4F8F6CF34FE03C0822F8660D82E22
:101FA00020E132E002C028E030E0F801D7FE0FC0A7
:101FB00060817181828193810C5F1F4FA5010E9416
:101FC0006610C82ECA183D2CE89437F867CF608198
:101FD000718190E080E00E5F1F4FF0CF42FC02C0A5
:101FE000839478CF8394839475CF842D867809F475
:101FF00071CFF6CFB70180E290E00E943610839453
:102000008214C0F3512C73CF522C5818821408F448
:102010006ECFF8CF842D867809F47BCF8BE241FE1A
:1020200080E247FC8DE2B70190E071CFB70180E319
:1020300090E00E9436109A946CCF8FEF9FEF99CF6B
:10204000FC010590615070400110D8F78095909583
:102050008E0F9F1F0895FC01615070400190011088
:10206000D8F7809590958E0F9F1F08950F931F931B
:10207000CF93DF93182F092FEB018B8181FD09C0CE
:102080001FEF0FEF812F902FDF91CF911F910F91B5
:10209000089582FF14C02E813F818C819D81281775
:1020A00039073CF4E881F981CF010196998388834F
:1020B00010838E819F8101969F838E83E3CFE88575
:1020C000F985812F0995892BA1F3DACFFA01AA2787
:1020D000283051F1203181F1E8946F936E7F6E5F6B
:1020E0007F4F8F4F9F4FAF4FB1E03ED0B4E03CD019
:1020F000670F781F891F9A1FA11D680F791F8A1FFC
:10210000911DA11D6A0F711D811D911DA11D20D062
:1021100009F468943F912AE0269F11243019305D1C
:102120003193DEF6CF010895462F4770405D41930D
:10213000B3E00FD0C9F7F6CF462F4F70405D4A335A
:1021400018F0495D31FD4052419302D0A9F7EACF22
:10215000B4E0A6959795879577956795BA95C9F751
:1021600000976105710508959B01AC010A2E069444
:102170005795479537952795BA95C9F7620F731FFD
:0C218000841F951FA01D0895F894FFCF48
:10218C0000008B038000000040001400540000008D
:10219C0000002E018E00BB007B01EC00CA00DE00AB
:1021AC0000000000FB02CE021204A402C702B4021B
:1021BC00A50200000000B3058E0012041104252DA9
:1021CC0031367300446973742E28636D29203D20C9
:0E21DC00005B5B44697374616E63655D5D005A
:00000001FF
