:100000000C9435000C945D000C945D000C945D0024
:100010000C945D000C945D000C945D000C945D00EC
:100020000C945D000C945D000C945D000C945D00DC
:100030000C945D000C945D000C945D000C945D00CC
:100040000C943C030C945D000C940A030C94E402A1
:100050000C945D000C945D000C945D000C945D00AC
:100060000C945D000C945D00860311241FBECFEF3D
:10007000D8E0DEBFCDBF11E0A0E0B1E0E6E2F0E104
:1000800002C005900D92AE37B107D9F722E0AEE776
:10009000B1E001C01D92A03DB207E1F710E0C5E359
:1000A000D0E004C02197FE010E940B08C433D107A1
:1000B000C9F70E94F5030C9411080C940000AF924C
:1000C000BF92CF92DF92EF92FF920F931F93CF9345
:1000D000DF936C017B018B01040F151FEB015E01A7
:1000E000AE18BF08C017D10759F06991D601ED913C
:1000F000FC910190F081E02DC6010995892B79F7DB
:10010000C501DF91CF911F910F91FF90EF90DF908C
:10011000CF90BF90AF900895FC01538D448D252F53
:1001200030E0842F90E0821B930B541710F0CF9691
:10013000089501970895FC01918D828D981761F0C3
:10014000A28DAE0FBF2FB11D5D968C91928D9F5FDA
:100150009F73928F90E008958FEF9FEF0895FC01B9
:10016000918D828D981731F0828DE80FF11D858D6C
:1001700090E008958FEF9FEF0895FC01918D228DFF
:10018000892F90E0805C9F4F821B91098F73992784
:10019000089583E891E00E94BD0021E0892B09F4D5
:1001A00020E0822F089580E090E0892B29F00E94C2
:1001B000C90081110C9400000895FC01A48DA80FC2
:1001C000B92FB11DA35ABF4F2C91848D90E0019699
:1001D0008F739927848FA689B7892C93A089B189B9
:1001E0008C91837080648C93938D848D981306C05A
:1001F0000288F389E02D80818F7D80830895EF92BE
:10020000FF920F931F93CF93DF93EC0181E0888FD0
:100210009B8D8C8D98131AC0E889F989808185FFA0
:1002200015C09FB7F894EE89FF896083E889F98942
:1002300080818370806480839FBF81E090E0DF9144
:10024000CF911F910F91FF90EF900895F62E0B8D97
:1002500010E00F5F1F4F0F731127E02E8C8D8E1152
:100260000CC00FB607FCFACFE889F989808185FFB9
:10027000F5CFCE010E94DD00F1CFEB8DEC0FFD2F0D
:10028000F11DE35AFF4FF0829FB7F8940B8FEA8974
:10029000FB8980818062CFCFCF93DF93EC01888D83
:1002A0008823B9F0AA89BB89E889F9898C9185FDF1
:1002B00003C0808186FD0DC00FB607FCF7CF8C917F
:1002C00085FFF2CF808185FFEDCFCE010E94DD005A
:1002D000E9CFDF91CF910895FC0101900020E9F76B
:1002E0003197AF01481B590BBC0183E891E00C9496
:1002F0005F008F929F92AF92BF920F931F93CF9305
:10030000DF93CDB7DEB7A1970FB6F894DEBF0FBE6F
:10031000CDBF19A2423008F44AE08E010F5D1F4F95
:10032000842E912CB12CA12CA50194010E94E907E7
:10033000E62FB901CA01EA30F4F4E05DD801EE938A
:100340008D01232B242B252B79F790E080E010974B
:1003500019F0CD010E946C01A1960FB6F894DEBF92
:100360000FBECDBFDF91CF911F910F91BF90AF9086
:100370009F908F900895E95CE1CF4F925F926F92CA
:100380007F928F929F92AF92BF92CF92DF92EF9225
:10039000FF92CF93DF9300D000D000D0CDB7DEB76F
:1003A00080E480937C0080917A00806480937A005E
:1003B00080917A0086FDFCCF8091780020917900B1
:1003C000B22FA82FBE83AD834D01BB0FAA08BB0877
:1003D000C501B4010E94C20620E030EC4FE754E4AE
:1003E0000E941F0620E030E040EA50E40E947707B8
:1003F0006B017C01C982DA82EB82FC8282E191E0AE
:100400000E946C01A7019601C701B6010E94E40792
:10041000882309F442C089E291E00E946C0185E3DF
:1004200091E00E946C0188E391E00E946C01AD8133
:10043000BE814AE0C501B401B7FF0DC06DE283E89B
:1004400091E00E94FF0066277727CB0168197909A0
:100450008A099B094AE00E94790185E391E00E94A4
:100460006C0181E591E00E946C0185E391E02696A4
:100470000FB6F894DEBF0FBECDBFDF91CF91FF90D6
:10048000EF90DF90CF90BF90AF909F908F907F9034
:100490006F905F904F900C946C0126013701E894A7
:1004A00077F82FEF3FEF4FE75FE7C301B2010E94FC
:1004B000E40781110DC02FEF3FEF4FE75FE7C30166
:1004C000B2010E941A0618161CF48DE291E0A5CF25
:1004D0002FEF3FEF4FE75FE4C701B6010E947207BD
:1004E00018161CF481E391E098CF2FEF3FEF4FE710
:1004F0005FECC701B6010E941A0687FDF3CF20E02A
:1005000030E0A901C701B6010E941A0687FF0CC09E
:100510006DE283E891E00E94FF00D701C601B05868
:1005200089839A83AB83BC832AE037ED43EA5BE39C
:1005300069817A818B819C810E94AE052B013C01EF
:100540000E9491066B017C010E94C0069B01AC01D8
:10055000C301B2010E94AD052B013C014AE0C70175
:10056000B6010E9479016EE283E891E00E94FF00EB
:1005700020E030E040E251E4C301B2010E9477077D
:100580002B013C010E9491066B01F12CE12C4AE009
:10059000C701B6010E947901C701B6010E94C006D9
:1005A0009B01AC01C301B2010E94AD0520E030E027
:1005B00040E251E40E9477070E94910690E080E0BB
:1005C0004AE00E9479012BCF1F920F920FB60F9233
:1005D00011242F933F934F935F936F937F938F9348
:1005E0009F93AF93BF93EF93FF9383E891E00E94B3
:1005F000DD00FF91EF91BF91AF919F918F917F911E
:100600006F915F914F913F912F910F900FBE0F907F
:100610001F9018951F920F920FB60F9211242F93CF
:100620008F939F93EF93FF93E0919301F091940147
:100630008081E0919901F0919A0182FD1BC0908127
:1006400080919C018F5F8F7320919D01821741F0F3
:10065000E0919C01F0E0ED57FE4F958F80939C0157
:10066000FF91EF919F918F912F910F900FBE0F905F
:100670001F9018958081F4CF1F920F920FB60F92A2
:1006800011242F933F938F939F93AF93BF938091A8
:10069000200290912102A0912202B0912302309178
:1006A000820123E0230F2D3758F50196A11DB11DBE
:1006B000209382018093200290932102A093220232
:1006C000B093230280917E0190917F01A0918001DF
:1006D000B09181010196A11DB11D80937E0190937F
:1006E0007F01A0938001B0938101BF91AF919F9151
:1006F0008F913F912F910F900FBE0F901F901895E3
:1007000026E8230F0296A11DB11DD2CFCF93DF9310
:10071000109286011092850188EE93E0A0E0B0E08F
:100720008093870190938801A0938901B0938A01F7
:1007300084E091E0909384018093830185EC90E0C4
:100740009093900180938F0184EC90E090939201BC
:100750008093910180EC90E09093940180939301B9
:1007600081EC90E0909396018093950182EC90E06B
:10077000909398018093970186EC90E090939A0172
:100780008093990110929C0110929D0110929E01FC
:1007900010929F018FB7F89440912002509121024E
:1007A00060912202709123028FBFC0EBD2E0ECE493
:1007B000F2E024E232E0199211921192D9014D93A4
:1007C0005D936D937D939D01CF01825B9F4FDC0113
:1007D0001D921C92B2E0E036FB0769F71092CF023F
:1007E0001092CE02DF91CF910895CF93DF9300D086
:1007F00000D0CDB7DEB7789484B5826084BD84B56F
:10080000816084BD85B5826085BD85B5816085BD0B
:1008100080916E00816080936E00109281008091C3
:10082000810082608093810080918100816080934B
:100830008100809180008160809380008091B10070
:1008400084608093B1008091B00081608093B0009B
:1008500080917A00846080937A0080917A0082602F
:1008600080937A0080917A00816080937A008091F1
:100870007A00806880937A001092C100E091930121
:10088000F091940182E08083E0918F01F0919001DA
:100890001082E0919101F091920180E180831092A9
:1008A0009B01E0919701F091980186E08083E091AF
:1008B0009501F0919601808180618083E09195019E
:1008C000F0919601808188608083E0919501F0919C
:1008D0009601808180688083E0919501F091960176
:1008E00080818F7D80838091CE029091CF020A9784
:1008F0006CF4ECE4F2E090E080E021913191232B64
:1009000009F4E7C001968A309105B9F701E010E0DB
:1009100082E0282E312C8FB7F8948090200290909E
:100920002102A0902202B09023028FBFECE4F2E0FB
:1009300024E232E03C832B833A83298390E080E0F9
:10094000AF0142595F4FDA011D921C922081318123
:100950003296232B99F1A981BA814D915D916D91C8
:100960007C911397DC96CD90DD90ED90FC90DF9715
:1009700024013501441A550A660A770A4C145D04AD
:100980006E047F04D8F04C0D5D1D6E1D7F1D4D93D0
:100990005D936D937C9313979C0120553D4FD90136
:1009A0002C91222359F022AD33AD21153105C9F523
:1009B0009F0124593F4FD9010D931C930196298122
:1009C0003A812C5F3F4F3A8329838A30910509F0A1
:1009D000B7CFF12CE12CCB80DC8036E9C30ED11CE3
:1009E000D6018D919C9181309105C1F10297E9F179
:1009F000BFEFEB1AFB0AEB81FC813296FC83EB83A1
:100A0000FAE0EF16F10439F720E030E0232B09F487
:100A100082CF0E94C900882309F47DCF0E94000084
:100A20007ACF7F01BEE4EB0EF11CD7016D917C9172
:100A3000621773071CF6AF0144595F4FDA010D933B
:100A40001C936F5F7F4FD7016D937C936217730781
:100A50000CF4B4CFDA012D923C92B0CFAB81BC81C3
:100A60009896ED91FC910995C3CFAB81BC81989686
:100A7000ED91FC9109958091CE029091CF02009763
:100A800009F4B6CFEB81FC8120A531A5232B09F415
:100A9000AFCF11A610A6F701E055FD4F1082D60189
:100AA0001D921C92F701EE0FFF1FEE0FFF1FEC5D72
:100AB000FD4F14AE15AE16AE17AEEB81FC81E858B3
:100AC000FF4F1182108201979093CF028093CE0244
:100AD0008FCFFC01EE0FFF1FEE0FFF1FE05AFD4FFF
:100AE00040ED57E060E070E04083518362837383A0
:100AF000FC01EE0FFF1FE45BFD4F2DEB31E0318376
:100B00002083FC01EE0FFF1FE857FD4F118210827A
:100B1000FC01E055FD4F21E020832FB7F894409170
:100B200020025091210260912202709123022FBF76
:100B3000880F991F880F991FFC01EC5DFD4F4083C2
:100B40005183628373838091CE029091CF0201968C
:100B50009093CF028093CE02D9CE5058BB27AA27BC
:100B60000E94C5050C9438070E942A0738F00E949D
:100B7000310720F039F49F3F19F426F40C9427072D
:100B80000EF4E095E7FB0C942107E92F0E9449073A
:100B900058F3BA17620773078407950720F079F4B2
:100BA000A6F50C946B070EF4E0950B2EBA2FA02D32
:100BB0000B01B90190010C01CA01A0011124FF270A
:100BC000591B99F0593F50F4503E68F11A16F04005
:100BD000A22F232F342F4427585FF3CF4695379504
:100BE0002795A795F0405395C9F77EF41F16BA0BC9
:100BF000620B730B840BBAF09150A1F0FF0FBB1F77
:100C0000661F771F881FC2F70EC0BA0F621F731FBF
:100C1000841F48F4879577956795B795F7959E3F1C
:100C200008F0B0CF9395880F08F09927EE0F9795AD
:100C3000879508950E94FD0608F481E008950E94BA
:100C400033060C9438070E94310758F00E942A0797
:100C500040F029F45F3F29F00C94210751110C94C6
:100C60006C070C9427070E94490768F39923B1F396
:100C7000552391F3951B550BBB27AA2762177307C2
:100C8000840738F09F5F5F4F220F331F441FAA1F56
:100C9000A9F335D00E2E3AF0E0E832D09150504012
:100CA000E695001CCAF72BD0FE2F29D0660F771FC0
:100CB000881FBB1F261737074807AB07B0E809F0A6
:100CC000BB0B802DBF01FF2793585F4F3AF09E3F2B
:100CD000510578F00C9421070C946C075F3FE4F306
:100CE000983ED4F3869577956795B795F7959F5F6E
:100CF000C9F7880F911D9695879597F90895E1E0BA
:100D0000660F771F881FBB1F621773078407BA0718
:100D100020F0621B730B840BBA0BEE1F88F7E09573
:100D200008950E94510788F09F5798F0B92F99278E
:100D3000B751B0F0E1F0660F771F881F991F1AF0C6
:100D4000BA95C9F714C0B13091F00E946B07B1E0B9
:100D500008950C946B07672F782F8827B85F39F0B8
:100D6000B93FCCF3869577956795B395D9F73EF45F
:100D700090958095709561957F4F8F4F9F4F089507
:100D8000E89409C097FB3EF4909580957095619525
:100D90007F4F8F4F9F4F9923A9F0F92F96E9BB27DB
:100DA0009395F695879577956795B795F111F8CF57
:100DB000FAF4BB0F11F460FF1BC06F5F7F4F8F4FC2
:100DC0009F4F16C0882311F096E911C0772321F0B8
:100DD0009EE8872F762F05C0662371F096E8862F50
:100DE00070E060E02AF09A95660F771F881FDAF7A7
:100DF000880F9695879597F90895990F0008550FD4
:100E0000AA0BE0E8FEEF16161706E807F907C0F090
:100E100012161306E407F50798F0621B730B840B98
:100E2000950B39F40A2661F0232B242B252B21F472
:100E300008950A2609F4A140A6958FEF811D811D12
:100E4000089597F99F6780E870E060E008959FEF4C
:100E500080EC089500240A94161617061806090651
:100E6000089500240A941216130614060506089520
:100E7000092E0394000C11F4882352F0BB0F40F4A8
:100E8000BF2B11F460FF04C06F5F7F4F8F4F9F4FE8
:100E9000089557FD9058440F551F59F05F3F71F06A
:100EA0004795880F97FB991F61F09F3F79F08795D1
:100EB0000895121613061406551FF2CF4695F1DF5A
:100EC00008C0161617061806991FF1CF86957105EA
:100ED000610508940895E894BB2766277727CB011E
:100EE00097F908950E94FD0608F48FEF08950E9477
:100EF0008A070C9438070E942A0738F00E943107AD
:100F000020F0952311F00C9421070C94270711244D
:100F10000C946C070E94490770F3959FC1F3950FDD
:100F200050E0551F629FF001729FBB27F00DB11D6D
:100F3000639FAA27F00DB11DAA1F649F6627B00DFD
:100F4000A11D661F829F2227B00DA11D621F739FE6
:100F5000B00DA11D621F839FA00D611D221F749FF4
:100F60003327A00D611D231F849F600D211D822F3B
:100F7000762F6A2F11249F5750409AF0F1F0882362
:100F80004AF0EE0FFF1FBB1F661F771F881F91508F
:100F90005040A9F79E3F510580F00C9421070C9416
:100FA0006C075F3FE4F3983ED4F386957795679599
:100FB000B795F795E7959F5FC1F7FE2B880F911DB9
:100FC0009695879597F908950E94FD06880B990BD1
:100FD0000895A1E21A2EAA1BBB1BFD010DC0AA1F7A
:100FE000BB1FEE1FFF1FA217B307E407F50720F092
:100FF000A21BB30BE40BF50B661F771F881F991F0D
:101000001A9469F760957095809590959B01AC0155
:10101000BD01CF010895EE0FFF1F0590F491E02D63
:061020000994F894FFCFD3
:1010260000000000FF005F008C004C01BD009B002B
:10103600AF00496E70757420566F6C7461676528D1
:10104600307E355629203D20006E616E00696E6641
:10105600006F7666000D0A004469676974616C204A
:1010660056616C756528307E3130323329203D203B
:10107600002D2D2D2D2D2D2D2D2D2D2D2D2D2D2DC7
:101086002D2D2D2D2D2D2D2D2D2D2D2D2D2D2D2D8A
:0E1096002D2D2D2D2D2D2D2D2D2D2D2D000030
:00000001FF
